{
  "contractName": "SimpleStorage",
  "abi": [
    {
      "inputs": [],
      "name": "get",
      "outputs": [
        {
          "internalType": "uint256",
          "name": "",
          "type": "uint256"
        }
      ],
      "stateMutability": "view",
      "type": "function",
      "constant": true
    }
  ],
  "bytecode": "0x608060405234801561001057600080fd5b5060d38061001f6000396000f3fe6080604052348015600f57600080fd5b50600436106045576000357c0100000000000000000000000000000000000000000000000000000000900480636d4ce63c14604a575b600080fd5b60506064565b604051605b91906084565b60405180910390f35b60008054905090565b6000819050919050565b607e81606d565b82525050565b6000602082019050609760008301846077565b9291505056fea2646970667358221220a7695ebbaaf059c16570793d1c18188e2d405368d3961fbfd9404f023e5a8f8564736f6c634300080b0033",
  "immutableReferences": {},
  "source": "pragma solidity 0.8.11;\n \ncontract SimpleStorage {\n   uint data; //Cette variable est intialisé avec une valeure précise\n \n   function get() public view returns (uint) {\n       return data;\n   }\n}\n",
  "sourcePath": "C:\\Users\\mdmou\\source\\repos\\Developpeur-Ethereum-Template\\6. dapp\\exercices\\testnettruffledeployment\\contracts\\SimpleStorage.sol",
  "compiler": {
    "name": "solc",
    "version": "0.8.11+commit.d7f03943.Emscripten.clang"
  },
  "schemaVersion": "3.4.4",
  "updatedAt": "2022-02-07T13:30:27.480Z",
  "networkType": "ethereum",
  "devdoc": {
    "kind": "dev",
    "methods": {},
    "version": 1
  },
  "userdoc": {
    "kind": "user",
    "methods": {},
    "version": 1
  }
}