{
  "contractName": "MyERC20Token",
  "abi": [
    {
      "anonymous": false,
      "inputs": [
        {
          "indexed": false,
          "internalType": "address",
          "name": "from",
          "type": "address"
        },
        {
          "indexed": false,
          "internalType": "address",
          "name": "spender",
          "type": "address"
        },
        {
          "indexed": false,
          "internalType": "uint256",
          "name": "value",
          "type": "uint256"
        }
      ],
      "name": "Approval",
      "type": "event"
    },
    {
      "anonymous": false,
      "inputs": [
        {
          "indexed": true,
          "internalType": "address",
          "name": "previousOwner",
          "type": "address"
        },
        {
          "indexed": true,
          "internalType": "address",
          "name": "newOwner",
          "type": "address"
        }
      ],
      "name": "OwnershipTransferred",
      "type": "event"
    },
    {
      "anonymous": false,
      "inputs": [
        {
          "indexed": false,
          "internalType": "address",
          "name": "from",
          "type": "address"
        },
        {
          "indexed": false,
          "internalType": "address",
          "name": "to",
          "type": "address"
        },
        {
          "indexed": false,
          "internalType": "uint256",
          "name": "amount",
          "type": "uint256"
        }
      ],
      "name": "Transfer",
      "type": "event"
    },
    {
      "inputs": [
        {
          "internalType": "address",
          "name": "",
          "type": "address"
        },
        {
          "internalType": "address",
          "name": "",
          "type": "address"
        }
      ],
      "name": "allowance",
      "outputs": [
        {
          "internalType": "uint256",
          "name": "",
          "type": "uint256"
        }
      ],
      "stateMutability": "view",
      "type": "function"
    },
    {
      "inputs": [
        {
          "internalType": "address",
          "name": "",
          "type": "address"
        }
      ],
      "name": "balanceOf",
      "outputs": [
        {
          "internalType": "uint256",
          "name": "",
          "type": "uint256"
        }
      ],
      "stateMutability": "view",
      "type": "function"
    },
    {
      "inputs": [],
      "name": "decimals",
      "outputs": [
        {
          "internalType": "uint256",
          "name": "",
          "type": "uint256"
        }
      ],
      "stateMutability": "view",
      "type": "function"
    },
    {
      "inputs": [],
      "name": "name",
      "outputs": [
        {
          "internalType": "string",
          "name": "",
          "type": "string"
        }
      ],
      "stateMutability": "view",
      "type": "function"
    },
    {
      "inputs": [],
      "name": "owner",
      "outputs": [
        {
          "internalType": "address",
          "name": "",
          "type": "address"
        }
      ],
      "stateMutability": "view",
      "type": "function"
    },
    {
      "inputs": [],
      "name": "renounceOwnership",
      "outputs": [],
      "stateMutability": "nonpayable",
      "type": "function"
    },
    {
      "inputs": [],
      "name": "symbol",
      "outputs": [
        {
          "internalType": "string",
          "name": "",
          "type": "string"
        }
      ],
      "stateMutability": "view",
      "type": "function"
    },
    {
      "inputs": [],
      "name": "totalSupply",
      "outputs": [
        {
          "internalType": "uint256",
          "name": "",
          "type": "uint256"
        }
      ],
      "stateMutability": "view",
      "type": "function"
    },
    {
      "inputs": [
        {
          "internalType": "address",
          "name": "newOwner",
          "type": "address"
        }
      ],
      "name": "transferOwnership",
      "outputs": [],
      "stateMutability": "nonpayable",
      "type": "function"
    },
    {
      "inputs": [
        {
          "internalType": "address",
          "name": "to",
          "type": "address"
        },
        {
          "internalType": "uint256",
          "name": "value",
          "type": "uint256"
        }
      ],
      "name": "transfer",
      "outputs": [
        {
          "internalType": "bool",
          "name": "",
          "type": "bool"
        }
      ],
      "stateMutability": "nonpayable",
      "type": "function"
    },
    {
      "inputs": [
        {
          "internalType": "address",
          "name": "spender",
          "type": "address"
        },
        {
          "internalType": "uint256",
          "name": "value",
          "type": "uint256"
        }
      ],
      "name": "approve",
      "outputs": [
        {
          "internalType": "bool",
          "name": "",
          "type": "bool"
        }
      ],
      "stateMutability": "nonpayable",
      "type": "function"
    },
    {
      "inputs": [
        {
          "internalType": "address",
          "name": "from",
          "type": "address"
        },
        {
          "internalType": "address",
          "name": "to",
          "type": "address"
        },
        {
          "internalType": "uint256",
          "name": "value",
          "type": "uint256"
        }
      ],
      "name": "transferFrom",
      "outputs": [
        {
          "internalType": "bool",
          "name": "",
          "type": "bool"
        }
      ],
      "stateMutability": "nonpayable",
      "type": "function"
    },
    {
      "inputs": [
        {
          "internalType": "address",
          "name": "to",
          "type": "address"
        },
        {
          "internalType": "uint256",
          "name": "amount",
          "type": "uint256"
        }
      ],
      "name": "sendReward",
      "outputs": [
        {
          "internalType": "bool",
          "name": "",
          "type": "bool"
        }
      ],
      "stateMutability": "nonpayable",
      "type": "function"
    }
  ],
  "bytecode": "0x60806040526040518060400160405280600d81526020017f4d79455243323020746f6b656e000000000000000000000000000000000000008152506001908051906020019062000051929190620001b7565b506040518060400160405280600581526020017f4d59455243000000000000000000000000000000000000000000000000000000815250600290805190602001906200009f929190620001b7565b506012600355348015620000b257600080fd5b50620000e5620000d0620000eb640100000000026401000000009004565b620000f3640100000000026401000000009004565b620002cc565b600033905090565b60008060009054906101000a900473ffffffffffffffffffffffffffffffffffffffff169050816000806101000a81548173ffffffffffffffffffffffffffffffffffffffff021916908373ffffffffffffffffffffffffffffffffffffffff1602179055508173ffffffffffffffffffffffffffffffffffffffff168173ffffffffffffffffffffffffffffffffffffffff167f8be0079c531659141344cd1fd0a4f28419497f9722a3daafe3b4186f6b6457e060405160405180910390a35050565b828054620001c59062000296565b90600052602060002090601f016020900481019282620001e9576000855562000235565b82601f106200020457805160ff191683800117855562000235565b8280016001018555821562000235579182015b828111156200023457825182559160200191906001019062000217565b5b50905062000244919062000248565b5090565b5b808211156200026357600081600090555060010162000249565b5090565b7f4e487b7100000000000000000000000000000000000000000000000000000000600052602260045260246000fd5b60006002820490506001821680620002af57607f821691505b60208210811415620002c657620002c562000267565b5b50919050565b61145f80620002dc6000396000f3fe608060405234801561001057600080fd5b50600436106100ec576000357c01000000000000000000000000000000000000000000000000000000009004806370a08231116100a957806395d89b411161008357806395d89b4114610233578063a9059cbb14610251578063dd62ed3e14610281578063f2fde38b146102b1576100ec565b806370a08231146101db578063715018a61461020b5780638da5cb5b14610215576100ec565b806306fdde03146100f157806307420a411461010f578063095ea7b31461013f57806318160ddd1461016f57806323b872dd1461018d578063313ce567146101bd575b600080fd5b6100f96102cd565b6040516101069190610d79565b60405180910390f35b61012960048036038101906101249190610e34565b61035b565b6040516101369190610e8f565b60405180910390f35b61015960048036038101906101549190610e34565b6103ee565b6040516101669190610e8f565b60405180910390f35b610177610405565b6040516101849190610eb9565b60405180910390f35b6101a760048036038101906101a29190610ed4565b61040b565b6040516101b49190610e8f565b60405180910390f35b6101c5610575565b6040516101d29190610eb9565b60405180910390f35b6101f560048036038101906101f09190610f27565b61057b565b6040516102029190610eb9565b60405180910390f35b610213610593565b005b61021d61061b565b60405161022a9190610f63565b60405180910390f35b61023b610644565b6040516102489190610d79565b60405180910390f35b61026b60048036038101906102669190610e34565b6106d2565b6040516102789190610e8f565b60405180910390f35b61029b60048036038101906102969190610f7e565b6106e9565b6040516102a89190610eb9565b60405180910390f35b6102cb60048036038101906102c69190610f27565b61070e565b005b600180546102da90610fed565b80601f016020809104026020016040519081016040528092919081815260200182805461030690610fed565b80156103535780601f1061032857610100808354040283529160200191610353565b820191906000526020600020905b81548152906001019060200180831161033657829003601f168201915b505050505081565b6000610365610806565b73ffffffffffffffffffffffffffffffffffffffff1661038361061b565b73ffffffffffffffffffffffffffffffffffffffff1614156103da576040517f08c379a00000000000000000000000000000000000000000000000000000000081526004016103d19061106b565b60405180910390fd5b6103e4838361080e565b6001905092915050565b60006103fb33848461097d565b6001905092915050565b60045481565b600081600660008673ffffffffffffffffffffffffffffffffffffffff1673ffffffffffffffffffffffffffffffffffffffff16815260200190815260200160002060003373ffffffffffffffffffffffffffffffffffffffff1673ffffffffffffffffffffffffffffffffffffffff1681526020019081526020016000205410156104cc576040517f08c379a00000000000000000000000000000000000000000000000000000000081526004016104c3906110d7565b60405180910390fd5b6104d7848484610aae565b81600660008673ffffffffffffffffffffffffffffffffffffffff1673ffffffffffffffffffffffffffffffffffffffff16815260200190815260200160002060003373ffffffffffffffffffffffffffffffffffffffff1673ffffffffffffffffffffffffffffffffffffffff16815260200190815260200160002060008282546105639190611126565b92505081905550600190509392505050565b60035481565b60056020528060005260406000206000915090505481565b61059b610806565b73ffffffffffffffffffffffffffffffffffffffff166105b961061b565b73ffffffffffffffffffffffffffffffffffffffff161461060f576040517f08c379a0000000000000000000000000000000000000000000000000000000008152600401610606906111a6565b60405180910390fd5b6106196000610c1c565b565b60008060009054906101000a900473ffffffffffffffffffffffffffffffffffffffff16905090565b6002805461065190610fed565b80601f016020809104026020016040519081016040528092919081815260200182805461067d90610fed565b80156106ca5780601f1061069f576101008083540402835291602001916106ca565b820191906000526020600020905b8154815290600101906020018083116106ad57829003601f168201915b505050505081565b60006106df338484610aae565b6001905092915050565b6006602052816000526040600020602052806000526040600020600091509150505481565b610716610806565b73ffffffffffffffffffffffffffffffffffffffff1661073461061b565b73ffffffffffffffffffffffffffffffffffffffff161461078a576040517f08c379a0000000000000000000000000000000000000000000000000000000008152600401610781906111a6565b60405180910390fd5b600073ffffffffffffffffffffffffffffffffffffffff168173ffffffffffffffffffffffffffffffffffffffff1614156107fa576040517f08c379a00000000000000000000000000000000000000000000000000000000081526004016107f190611238565b60405180910390fd5b61080381610c1c565b50565b600033905090565b610816610806565b73ffffffffffffffffffffffffffffffffffffffff1661083461061b565b73ffffffffffffffffffffffffffffffffffffffff16141561088b576040517f08c379a00000000000000000000000000000000000000000000000000000000081526004016108829061106b565b60405180910390fd5b600081116108ce576040517f08c379a00000000000000000000000000000000000000000000000000000000081526004016108c5906112a4565b60405180910390fd5b80600460008282546108e091906112c4565b9250508190555080600560008473ffffffffffffffffffffffffffffffffffffffff1673ffffffffffffffffffffffffffffffffffffffff168152602001908152602001600020600082825461093691906112c4565b925050819055507fddf252ad1be2c89b69c2b068fc378daa952ba7f163c4a11628f55a4df523b3ef600083836040516109719392919061131a565b60405180910390a15050565b600073ffffffffffffffffffffffffffffffffffffffff168273ffffffffffffffffffffffffffffffffffffffff1614156109ed576040517f08c379a00000000000000000000000000000000000000000000000000000000081526004016109e49061139d565b60405180910390fd5b80600660008573ffffffffffffffffffffffffffffffffffffffff1673ffffffffffffffffffffffffffffffffffffffff16815260200190815260200160002060008473ffffffffffffffffffffffffffffffffffffffff1673ffffffffffffffffffffffffffffffffffffffff168152602001908152602001600020819055507f8c5be1e5ebec7d5bd14f71427d1e84f3dd0314c0f7b2291e5b200ac8c7c3b925338383604051610aa19392919061131a565b60405180910390a1505050565b80600560008573ffffffffffffffffffffffffffffffffffffffff1673ffffffffffffffffffffffffffffffffffffffff168152602001908152602001600020541015610b30576040517f08c379a0000000000000000000000000000000000000000000000000000000008152600401610b2790611409565b60405180910390fd5b80600560008573ffffffffffffffffffffffffffffffffffffffff1673ffffffffffffffffffffffffffffffffffffffff1681526020019081526020016000206000828254610b7f9190611126565b9250508190555080600560008473ffffffffffffffffffffffffffffffffffffffff1673ffffffffffffffffffffffffffffffffffffffff1681526020019081526020016000206000828254610bd591906112c4565b925050819055507fddf252ad1be2c89b69c2b068fc378daa952ba7f163c4a11628f55a4df523b3ef838383604051610c0f9392919061131a565b60405180910390a1505050565b60008060009054906101000a900473ffffffffffffffffffffffffffffffffffffffff169050816000806101000a81548173ffffffffffffffffffffffffffffffffffffffff021916908373ffffffffffffffffffffffffffffffffffffffff1602179055508173ffffffffffffffffffffffffffffffffffffffff168173ffffffffffffffffffffffffffffffffffffffff167f8be0079c531659141344cd1fd0a4f28419497f9722a3daafe3b4186f6b6457e060405160405180910390a35050565b600081519050919050565b600082825260208201905092915050565b60005b83811015610d1a578082015181840152602081019050610cff565b83811115610d29576000848401525b50505050565b6000601f19601f8301169050919050565b6000610d4b82610ce0565b610d558185610ceb565b9350610d65818560208601610cfc565b610d6e81610d2f565b840191505092915050565b60006020820190508181036000830152610d938184610d40565b905092915050565b600080fd5b600073ffffffffffffffffffffffffffffffffffffffff82169050919050565b6000610dcb82610da0565b9050919050565b610ddb81610dc0565b8114610de657600080fd5b50565b600081359050610df881610dd2565b92915050565b6000819050919050565b610e1181610dfe565b8114610e1c57600080fd5b50565b600081359050610e2e81610e08565b92915050565b60008060408385031215610e4b57610e4a610d9b565b5b6000610e5985828601610de9565b9250506020610e6a85828601610e1f565b9150509250929050565b60008115159050919050565b610e8981610e74565b82525050565b6000602082019050610ea46000830184610e80565b92915050565b610eb381610dfe565b82525050565b6000602082019050610ece6000830184610eaa565b92915050565b600080600060608486031215610eed57610eec610d9b565b5b6000610efb86828701610de9565b9350506020610f0c86828701610de9565b9250506040610f1d86828701610e1f565b9150509250925092565b600060208284031215610f3d57610f3c610d9b565b5b6000610f4b84828501610de9565b91505092915050565b610f5d81610dc0565b82525050565b6000602082019050610f786000830184610f54565b92915050565b60008060408385031215610f9557610f94610d9b565b5b6000610fa385828601610de9565b9250506020610fb485828601610de9565b9150509250929050565b7f4e487b7100000000000000000000000000000000000000000000000000000000600052602260045260246000fd5b6000600282049050600182168061100557607f821691505b6020821081141561101957611018610fbe565b5b50919050565b7f43616c6c657220697320746865206f776e657200000000000000000000000000600082015250565b6000611055601383610ceb565b91506110608261101f565b602082019050919050565b6000602082019050818103600083015261108481611048565b9050919050565b7f4e6f7420616c6c6f776564000000000000000000000000000000000000000000600082015250565b60006110c1600b83610ceb565b91506110cc8261108b565b602082019050919050565b600060208201905081810360008301526110f0816110b4565b9050919050565b7f4e487b7100000000000000000000000000000000000000000000000000000000600052601160045260246000fd5b600061113182610dfe565b915061113c83610dfe565b92508282101561114f5761114e6110f7565b5b828203905092915050565b7f4f776e61626c653a2063616c6c6572206973206e6f7420746865206f776e6572600082015250565b6000611190602083610ceb565b915061119b8261115a565b602082019050919050565b600060208201905081810360008301526111bf81611183565b9050919050565b7f4f776e61626c653a206e6577206f776e657220697320746865207a65726f206160008201527f6464726573730000000000000000000000000000000000000000000000000000602082015250565b6000611222602683610ceb565b915061122d826111c6565b604082019050919050565b6000602082019050818103600083015261125181611215565b9050919050565b7f496e736966756369656e7420616d6f756e740000000000000000000000000000600082015250565b600061128e601283610ceb565b915061129982611258565b602082019050919050565b600060208201905081810360008301526112bd81611281565b9050919050565b60006112cf82610dfe565b91506112da83610dfe565b9250827fffffffffffffffffffffffffffffffffffffffffffffffffffffffffffffffff0382111561130f5761130e6110f7565b5b828201905092915050565b600060608201905061132f6000830186610f54565b61133c6020830185610f54565b6113496040830184610eaa565b949350505050565b7f4e6f7420617070726f7665206f776e657220736d61727420636f6e7472616374600082015250565b6000611387602083610ceb565b915061139282611351565b602082019050919050565b600060208201905081810360008301526113b68161137a565b9050919050565b7f4e6f7420656e6f7567746820746f6b656e000000000000000000000000000000600082015250565b60006113f3601183610ceb565b91506113fe826113bd565b602082019050919050565b60006020820190508181036000830152611422816113e6565b905091905056fea264697066735822122006cfa2093f55ec891e6d53fda76d47cec356225f85b6d7f52caf5f609be1820264736f6c634300080c0033",
  "immutableReferences": {},
  "source": "// SPDX-License-Identifier: MIT\npragma solidity 0.8.12;\n\nimport \"@openzeppelin/contracts/token/ERC20/ERC20.sol\";\nimport \"@openzeppelin/contracts/access/Ownable.sol\";\n\ncontract MyERC20Token is Ownable {\n\n  string public name = \"MyERC20 token\";\n  string public symbol = \"MYERC\";\n  uint256 public decimals = 18;\n  uint256 public totalSupply;\n\n  mapping(address => uint256) public balanceOf;\n  mapping(address => mapping(address => uint256)) public allowance;\n\n  event Approval(address from, address spender, uint256 value);\n  event Transfer(address from, address to, uint256 amount);\n  \n  modifier notOwner() {\n        require(owner() != _msgSender(), \"Caller is the owner\");\n        _;\n  }\n\n  function transfer(address to, uint256 value) public returns (bool) {\n    _transfer(msg.sender, to, value);\n    return true;\n  }\n\n  function _transfer(address from, address to, uint256 value) private {\n    require(balanceOf[from] >= value, \"Not enougth token\");\n\n    balanceOf[from] -= value;\n    balanceOf[to] += value;\n\n    emit Transfer(from, to, value);\n  }\n\n\n  function approve(address spender, uint256 value) public returns (bool) {\n    \n    _approve(msg.sender, spender,value);\n\n    return true;\n  }\n\n\n  function _approve(address from, address spender, uint256 value) private {\n    require(spender != address(0), \"Not approve owner smart contract\");\n    \n    allowance[from][spender] = value;\n\n    emit Approval(msg.sender, spender, value);\n  }\n\n  function transferFrom(address from, address to, uint256 value) public returns (bool) {\n      require(allowance[from][msg.sender] >= value, \"Not allowed\");\n\n      _transfer(from, to, value);\n\n      allowance[from][msg.sender] -= value;\n\n      return true;\n  }\n\n  function stack(address to, uint256 amount) internal {\n        totalSupply += amount;\n        balanceOf[to] += amount;\n        emit Transfer(address(0), to, amount);\n    }\n\n\n  function _sendReward(address account, uint256 amount) private notOwner {\n    require(amount > 0, \"Insifucient amount\");\n    totalSupply += amount;\n    balanceOf[account] += amount;\n\n    emit Transfer(address(0), account, amount);\n  }\n\n  function sendReward(address to, uint256 amount) public notOwner returns (bool) {\n    _sendReward(to, amount);\n    return true;\n  }\n}\n",
  "sourcePath": "C:\\Users\\mdmou\\source\\repos\\Developpeur-Ethereum-Template\\7. finance dcentralise\\defi\\contracts\\MyERC20Token.sol",
  "compiler": {
    "name": "solc",
    "version": "0.8.12+commit.f00d7308.Emscripten.clang"
  },
  "schemaVersion": "3.4.4",
  "updatedAt": "2022-03-27T20:10:51.427Z",
  "devdoc": {
    "kind": "dev",
    "methods": {
      "owner()": {
        "details": "Returns the address of the current owner."
      },
      "renounceOwnership()": {
        "details": "Leaves the contract without owner. It will not be possible to call `onlyOwner` functions anymore. Can only be called by the current owner. NOTE: Renouncing ownership will leave the contract without an owner, thereby removing any functionality that is only available to the owner."
      },
      "transferOwnership(address)": {
        "details": "Transfers ownership of the contract to a new account (`newOwner`). Can only be called by the current owner."
      }
    },
    "version": 1
  },
  "userdoc": {
    "kind": "user",
    "methods": {},
    "version": 1
  }
}