{
  "contractName": "Stacking",
  "abi": [
    {
      "inputs": [
        {
          "internalType": "address",
          "name": "_mmtTokenAddress",
          "type": "address"
        },
        {
          "internalType": "uint256",
          "name": "_percentageReward",
          "type": "uint256"
        },
        {
          "internalType": "uint256",
          "name": "_periodRewardInSeconds",
          "type": "uint256"
        }
      ],
      "stateMutability": "nonpayable",
      "type": "constructor"
    },
    {
      "anonymous": false,
      "inputs": [
        {
          "indexed": true,
          "internalType": "address",
          "name": "previousOwner",
          "type": "address"
        },
        {
          "indexed": true,
          "internalType": "address",
          "name": "newOwner",
          "type": "address"
        }
      ],
      "name": "OwnershipTransferred",
      "type": "event"
    },
    {
      "anonymous": false,
      "inputs": [
        {
          "indexed": false,
          "internalType": "address",
          "name": "erc20Token",
          "type": "address"
        },
        {
          "indexed": false,
          "internalType": "address",
          "name": "pairAddress",
          "type": "address"
        }
      ],
      "name": "onAddingPairs",
      "type": "event"
    },
    {
      "anonymous": false,
      "inputs": [
        {
          "indexed": false,
          "internalType": "address",
          "name": "erc20Token",
          "type": "address"
        },
        {
          "indexed": false,
          "internalType": "address",
          "name": "stakerAddress",
          "type": "address"
        },
        {
          "indexed": false,
          "internalType": "uint256",
          "name": "amountToStake",
          "type": "uint256"
        }
      ],
      "name": "onStaking",
      "type": "event"
    },
    {
      "anonymous": false,
      "inputs": [
        {
          "indexed": false,
          "internalType": "address",
          "name": "erc20Token",
          "type": "address"
        },
        {
          "indexed": false,
          "internalType": "address",
          "name": "stakerAddress",
          "type": "address"
        },
        {
          "indexed": false,
          "internalType": "uint256",
          "name": "amountToUnstake",
          "type": "uint256"
        }
      ],
      "name": "onUnstaking",
      "type": "event"
    },
    {
      "anonymous": false,
      "inputs": [
        {
          "indexed": false,
          "internalType": "address",
          "name": "erc20Token",
          "type": "address"
        },
        {
          "indexed": false,
          "internalType": "address",
          "name": "stakerAddress",
          "type": "address"
        },
        {
          "indexed": false,
          "internalType": "uint256",
          "name": "rewards",
          "type": "uint256"
        }
      ],
      "name": "onWithdrawingRewards",
      "type": "event"
    },
    {
      "inputs": [],
      "name": "owner",
      "outputs": [
        {
          "internalType": "address",
          "name": "",
          "type": "address"
        }
      ],
      "stateMutability": "view",
      "type": "function",
      "constant": true
    },
    {
      "inputs": [
        {
          "internalType": "address",
          "name": "",
          "type": "address"
        }
      ],
      "name": "pairs",
      "outputs": [
        {
          "internalType": "string",
          "name": "code",
          "type": "string"
        },
        {
          "internalType": "uint256",
          "name": "decimal",
          "type": "uint256"
        },
        {
          "internalType": "bool",
          "name": "isEnabled",
          "type": "bool"
        },
        {
          "internalType": "address",
          "name": "pairAddress",
          "type": "address"
        }
      ],
      "stateMutability": "view",
      "type": "function",
      "constant": true
    },
    {
      "inputs": [],
      "name": "renounceOwnership",
      "outputs": [],
      "stateMutability": "nonpayable",
      "type": "function"
    },
    {
      "inputs": [],
      "name": "rewardsTokenAddress",
      "outputs": [
        {
          "internalType": "address",
          "name": "",
          "type": "address"
        }
      ],
      "stateMutability": "view",
      "type": "function",
      "constant": true
    },
    {
      "inputs": [
        {
          "internalType": "address",
          "name": "newOwner",
          "type": "address"
        }
      ],
      "name": "transferOwnership",
      "outputs": [],
      "stateMutability": "nonpayable",
      "type": "function"
    },
    {
      "inputs": [
        {
          "internalType": "string",
          "name": "_code",
          "type": "string"
        },
        {
          "internalType": "address",
          "name": "_erc20Token",
          "type": "address"
        },
        {
          "internalType": "address",
          "name": "_pairAddress",
          "type": "address"
        },
        {
          "internalType": "uint256",
          "name": "_decimal",
          "type": "uint256"
        }
      ],
      "name": "addPair",
      "outputs": [],
      "stateMutability": "nonpayable",
      "type": "function"
    },
    {
      "inputs": [
        {
          "internalType": "address",
          "name": "_erc20Token",
          "type": "address"
        },
        {
          "internalType": "uint256",
          "name": "_amount",
          "type": "uint256"
        }
      ],
      "name": "stake",
      "outputs": [
        {
          "internalType": "bool",
          "name": "success",
          "type": "bool"
        }
      ],
      "stateMutability": "nonpayable",
      "type": "function"
    },
    {
      "inputs": [
        {
          "internalType": "address",
          "name": "_pairAddress",
          "type": "address"
        }
      ],
      "name": "getLatestPrice",
      "outputs": [
        {
          "internalType": "uint256",
          "name": "",
          "type": "uint256"
        }
      ],
      "stateMutability": "view",
      "type": "function",
      "constant": true
    },
    {
      "inputs": [
        {
          "internalType": "address",
          "name": "_erc20Token",
          "type": "address"
        },
        {
          "internalType": "uint256",
          "name": "_amount",
          "type": "uint256"
        }
      ],
      "name": "unstake",
      "outputs": [],
      "stateMutability": "nonpayable",
      "type": "function"
    },
    {
      "inputs": [
        {
          "internalType": "address",
          "name": "_erc20Token",
          "type": "address"
        }
      ],
      "name": "withdrawRewards",
      "outputs": [],
      "stateMutability": "nonpayable",
      "type": "function"
    },
    {
      "inputs": [
        {
          "internalType": "address",
          "name": "_erc20Token",
          "type": "address"
        }
      ],
      "name": "getStakedBalance",
      "outputs": [
        {
          "internalType": "uint256",
          "name": "",
          "type": "uint256"
        }
      ],
      "stateMutability": "view",
      "type": "function",
      "constant": true
    },
    {
      "inputs": [
        {
          "internalType": "address",
          "name": "_erc20Token",
          "type": "address"
        }
      ],
      "name": "getBalance",
      "outputs": [
        {
          "internalType": "uint256",
          "name": "",
          "type": "uint256"
        }
      ],
      "stateMutability": "view",
      "type": "function",
      "constant": true
    },
    {
      "inputs": [
        {
          "internalType": "address",
          "name": "_erc20Token",
          "type": "address"
        }
      ],
      "name": "getCurrentRewards",
      "outputs": [
        {
          "internalType": "uint256",
          "name": "",
          "type": "uint256"
        }
      ],
      "stateMutability": "view",
      "type": "function",
      "constant": true
    },
    {
      "inputs": [
        {
          "internalType": "address",
          "name": "_erc20Token",
          "type": "address"
        },
        {
          "internalType": "address",
          "name": "account",
          "type": "address"
        }
      ],
      "name": "calculateRewards",
      "outputs": [
        {
          "internalType": "uint256",
          "name": "",
          "type": "uint256"
        }
      ],
      "stateMutability": "view",
      "type": "function",
      "constant": true
    }
  ],
  "bytecode": "0x60806040523480156200001157600080fd5b506040516200275938038062002759833981810160405281019062000037919062000273565b620000696200005462000102640100000000026401000000009004565b6200010a640100000000026401000000009004565b82600660006101000a81548173ffffffffffffffffffffffffffffffffffffffff021916908373ffffffffffffffffffffffffffffffffffffffff160217905550816002819055508060038190555082600160006101000a81548173ffffffffffffffffffffffffffffffffffffffff021916908373ffffffffffffffffffffffffffffffffffffffff160217905550505050620002cf565b600033905090565b60008060009054906101000a900473ffffffffffffffffffffffffffffffffffffffff169050816000806101000a81548173ffffffffffffffffffffffffffffffffffffffff021916908373ffffffffffffffffffffffffffffffffffffffff1602179055508173ffffffffffffffffffffffffffffffffffffffff168173ffffffffffffffffffffffffffffffffffffffff167f8be0079c531659141344cd1fd0a4f28419497f9722a3daafe3b4186f6b6457e060405160405180910390a35050565b600080fd5b600073ffffffffffffffffffffffffffffffffffffffff82169050919050565b60006200020082620001d3565b9050919050565b6200021281620001f3565b81146200021e57600080fd5b50565b600081519050620002328162000207565b92915050565b6000819050919050565b6200024d8162000238565b81146200025957600080fd5b50565b6000815190506200026d8162000242565b92915050565b6000806000606084860312156200028f576200028e620001ce565b5b60006200029f8682870162000221565b9350506020620002b2868287016200025c565b9250506040620002c5868287016200025c565b9150509250925092565b61247a80620002df6000396000f3fe608060405234801561001057600080fd5b5060043610610106576000357c010000000000000000000000000000000000000000000000000000000090048063b2e14f8d116100a9578063e93793f611610083578063e93793f614610277578063f2fde38b14610295578063f8b2cb4f146102b1578063fe33b302146102e157610106565b8063b2e14f8d1461020f578063c2a672e01461023f578063d4e368161461025b57610106565b806342d86693116100e557806342d866931461019b578063715018a6146101b75780638da5cb5b146101c1578063adc9772e146101df57610106565b8062c9d5091461010b57806316345f181461013b5780633a02a42d1461016b575b600080fd5b6101256004803603810190610120919061188f565b610314565b60405161013291906118e8565b60405180910390f35b61015560048036038101906101509190611903565b610539565b60405161016291906118e8565b60405180910390f35b61018560048036038101906101809190611903565b6105f2565b60405161019291906118e8565b60405180910390f35b6101b560048036038101906101b09190611903565b610605565b005b6101bf610806565b005b6101c961088e565b6040516101d6919061193f565b60405180910390f35b6101f960048036038101906101f49190611986565b6108b7565b60405161020691906119e1565b60405180910390f35b61022960048036038101906102249190611903565b610cb0565b60405161023691906118e8565b60405180910390f35b61025960048036038101906102549190611986565b610cc3565b005b61027560048036038101906102709190611b42565b611006565b005b61027f61123b565b60405161028c919061193f565b60405180910390f35b6102af60048036038101906102aa9190611903565b611261565b005b6102cb60048036038101906102c69190611903565b611359565b6040516102d891906118e8565b60405180910390f35b6102fb60048036038101906102f69190611903565b611458565b60405161030b9493929190611c4d565b60405180910390f35b600080600460008473ffffffffffffffffffffffffffffffffffffffff1673ffffffffffffffffffffffffffffffffffffffff16815260200190815260200160002060008573ffffffffffffffffffffffffffffffffffffffff1673ffffffffffffffffffffffffffffffffffffffff1681526020019081526020016000206000015414156103a65760009050610533565b6000600190506000600460008573ffffffffffffffffffffffffffffffffffffffff1673ffffffffffffffffffffffffffffffffffffffff16815260200190815260200160002060008673ffffffffffffffffffffffffffffffffffffffff1673ffffffffffffffffffffffffffffffffffffffff16815260200190815260200160002060020154426104399190611cc8565b905060006104a8600560008873ffffffffffffffffffffffffffffffffffffffff1673ffffffffffffffffffffffffffffffffffffffff16815260200190815260200160002060020160019054906101000a900473ffffffffffffffffffffffffffffffffffffffff16610539565b905060008082116104b957836104bb565b815b905060006104db826104cd8a8a61153d565b6115c790919063ffffffff16565b905061052b606461051d60025461050f6003546105018a886115c790919063ffffffff16565b6115dd90919063ffffffff16565b6115c790919063ffffffff16565b6115dd90919063ffffffff16565b955050505050505b92915050565b60008082905060008173ffffffffffffffffffffffffffffffffffffffff1663feaf968c6040518163ffffffff167c010000000000000000000000000000000000000000000000000000000002815260040160a060405180830381865afa1580156105a8573d6000803e3d6000fd5b505050506040513d601f19601f820116820180604052508101906105cc9190611d89565b5050509150506105e96305f5e100826115dd90919063ffffffff16565b92505050919050565b60006105fe823361153d565b9050919050565b600061061182336115f3565b905042600460003373ffffffffffffffffffffffffffffffffffffffff1673ffffffffffffffffffffffffffffffffffffffff16815260200190815260200160002060008473ffffffffffffffffffffffffffffffffffffffff1673ffffffffffffffffffffffffffffffffffffffff168152602001908152602001600020600201819055506000600460003373ffffffffffffffffffffffffffffffffffffffff1673ffffffffffffffffffffffffffffffffffffffff16815260200190815260200160002060008473ffffffffffffffffffffffffffffffffffffffff1673ffffffffffffffffffffffffffffffffffffffff16815260200190815260200160002060010181905550600160009054906101000a900473ffffffffffffffffffffffffffffffffffffffff1673ffffffffffffffffffffffffffffffffffffffff166340c10f1933836040518363ffffffff167c0100000000000000000000000000000000000000000000000000000000028152600401610795929190611e04565b600060405180830381600087803b1580156107af57600080fd5b505af11580156107c3573d6000803e3d6000fd5b505050507f431d18cf14b98111ec133ea7045d9533d727088e4070da45a952d087158714298233836040516107fa93929190611e2d565b60405180910390a15050565b61080e611698565b73ffffffffffffffffffffffffffffffffffffffff1661082c61088e565b73ffffffffffffffffffffffffffffffffffffffff1614610882576040517f08c379a000000000000000000000000000000000000000000000000000000000815260040161087990611eb0565b60405180910390fd5b61088c60006116a0565b565b60008060009054906101000a900473ffffffffffffffffffffffffffffffffffffffff16905090565b60008082116108fb576040517f08c379a00000000000000000000000000000000000000000000000000000000081526004016108f290611f1c565b60405180910390fd5b600560008473ffffffffffffffffffffffffffffffffffffffff1673ffffffffffffffffffffffffffffffffffffffff16815260200190815260200160002060020160009054906101000a900460ff1661098a576040517f08c379a000000000000000000000000000000000000000000000000000000000815260040161098190611f88565b60405180910390fd5b60008373ffffffffffffffffffffffffffffffffffffffff1663dd62ed3e33306040518363ffffffff167c01000000000000000000000000000000000000000000000000000000000281526004016109e3929190611fa8565b602060405180830381865afa158015610a00573d6000803e3d6000fd5b505050506040513d601f19601f82011682018060405250810190610a249190611fd1565b9050610a3084336115f3565b600460003373ffffffffffffffffffffffffffffffffffffffff1673ffffffffffffffffffffffffffffffffffffffff16815260200190815260200160002060008673ffffffffffffffffffffffffffffffffffffffff1673ffffffffffffffffffffffffffffffffffffffff1681526020019081526020016000206001018190555042600460003373ffffffffffffffffffffffffffffffffffffffff1673ffffffffffffffffffffffffffffffffffffffff16815260200190815260200160002060008673ffffffffffffffffffffffffffffffffffffffff1673ffffffffffffffffffffffffffffffffffffffff1681526020019081526020016000206002018190555082600460003373ffffffffffffffffffffffffffffffffffffffff1673ffffffffffffffffffffffffffffffffffffffff16815260200190815260200160002060008673ffffffffffffffffffffffffffffffffffffffff1673ffffffffffffffffffffffffffffffffffffffff1681526020019081526020016000206000016000828254610bc69190611ffe565b925050819055508373ffffffffffffffffffffffffffffffffffffffff166323b872dd3330866040518463ffffffff167c0100000000000000000000000000000000000000000000000000000000028152600401610c2693929190611e2d565b6020604051808303816000875af1158015610c45573d6000803e3d6000fd5b505050506040513d601f19601f82011682018060405250810190610c699190612080565b507f25b95f5f2561c1b3c407a0c6f2a9490387c70d9cd6ef843b6b9bdbaa9e800ad8843385604051610c9d93929190611e2d565b60405180910390a1600191505092915050565b6000610cbc82336115f3565b9050919050565b600460003373ffffffffffffffffffffffffffffffffffffffff1673ffffffffffffffffffffffffffffffffffffffff16815260200190815260200160002060008373ffffffffffffffffffffffffffffffffffffffff1673ffffffffffffffffffffffffffffffffffffffff16815260200190815260200160002060000154811115610d85576040517f08c379a0000000000000000000000000000000000000000000000000000000008152600401610d7c906120f9565b60405180910390fd5b610d8f82336115f3565b600460003373ffffffffffffffffffffffffffffffffffffffff1673ffffffffffffffffffffffffffffffffffffffff16815260200190815260200160002060008473ffffffffffffffffffffffffffffffffffffffff1673ffffffffffffffffffffffffffffffffffffffff1681526020019081526020016000206001018190555080600460003373ffffffffffffffffffffffffffffffffffffffff1673ffffffffffffffffffffffffffffffffffffffff16815260200190815260200160002060008473ffffffffffffffffffffffffffffffffffffffff1673ffffffffffffffffffffffffffffffffffffffff1681526020019081526020016000206000016000828254610ea19190611cc8565b9250508190555042600460003373ffffffffffffffffffffffffffffffffffffffff1673ffffffffffffffffffffffffffffffffffffffff16815260200190815260200160002060008473ffffffffffffffffffffffffffffffffffffffff1673ffffffffffffffffffffffffffffffffffffffff168152602001908152602001600020600201819055508173ffffffffffffffffffffffffffffffffffffffff1663a9059cbb33836040518363ffffffff167c0100000000000000000000000000000000000000000000000000000000028152600401610f83929190611e04565b6020604051808303816000875af1158015610fa2573d6000803e3d6000fd5b505050506040513d601f19601f82011682018060405250810190610fc69190612080565b507f96fa08501b8c6ca7b150210f4d677db3f60a3d2f0c60f01baaa50feb214d6358823383604051610ffa93929190611e2d565b60405180910390a15050565b61100e611698565b73ffffffffffffffffffffffffffffffffffffffff1661102c61088e565b73ffffffffffffffffffffffffffffffffffffffff1614611082576040517f08c379a000000000000000000000000000000000000000000000000000000000815260040161107990611eb0565b60405180910390fd5b6001600560008573ffffffffffffffffffffffffffffffffffffffff1673ffffffffffffffffffffffffffffffffffffffff16815260200190815260200160002060020160006101000a81548160ff02191690831515021790555083600560008573ffffffffffffffffffffffffffffffffffffffff1673ffffffffffffffffffffffffffffffffffffffff168152602001908152602001600020600001908051906020019061113392919061177a565b5080600560008573ffffffffffffffffffffffffffffffffffffffff1673ffffffffffffffffffffffffffffffffffffffff1681526020019081526020016000206001018190555081600560008573ffffffffffffffffffffffffffffffffffffffff1673ffffffffffffffffffffffffffffffffffffffff16815260200190815260200160002060020160016101000a81548173ffffffffffffffffffffffffffffffffffffffff021916908373ffffffffffffffffffffffffffffffffffffffff1602179055507f3e97ab69200e6bd239b39743d5fd994be05cd1124e3f24803258262dc0214c01838360405161122d929190611fa8565b60405180910390a150505050565b600660009054906101000a900473ffffffffffffffffffffffffffffffffffffffff1681565b611269611698565b73ffffffffffffffffffffffffffffffffffffffff1661128761088e565b73ffffffffffffffffffffffffffffffffffffffff16146112dd576040517f08c379a00000000000000000000000000000000000000000000000000000000081526004016112d490611eb0565b60405180910390fd5b600073ffffffffffffffffffffffffffffffffffffffff168173ffffffffffffffffffffffffffffffffffffffff16141561134d576040517f08c379a00000000000000000000000000000000000000000000000000000000081526004016113449061218b565b60405180910390fd5b611356816116a0565b50565b6000611451600560008473ffffffffffffffffffffffffffffffffffffffff1673ffffffffffffffffffffffffffffffffffffffff16815260200190815260200160002060010154600a6113ad91906122de565b8373ffffffffffffffffffffffffffffffffffffffff166370a08231336040518263ffffffff167c0100000000000000000000000000000000000000000000000000000000028152600401611402919061193f565b602060405180830381865afa15801561141f573d6000803e3d6000fd5b505050506040513d601f19601f820116820180604052508101906114439190611fd1565b6115dd90919063ffffffff16565b9050919050565b600560205280600052604060002060009150905080600001805461147b90612358565b80601f01602080910402602001604051908101604052809291908181526020018280546114a790612358565b80156114f45780601f106114c9576101008083540402835291602001916114f4565b820191906000526020600020905b8154815290600101906020018083116114d757829003601f168201915b5050505050908060010154908060020160009054906101000a900460ff16908060020160019054906101000a900473ffffffffffffffffffffffffffffffffffffffff16905084565b6000600460008373ffffffffffffffffffffffffffffffffffffffff1673ffffffffffffffffffffffffffffffffffffffff16815260200190815260200160002060008473ffffffffffffffffffffffffffffffffffffffff1673ffffffffffffffffffffffffffffffffffffffff16815260200190815260200160002060000154905092915050565b600081836115d5919061238a565b905092915050565b600081836115eb9190612413565b905092915050565b60006116906116028484610314565b600460008573ffffffffffffffffffffffffffffffffffffffff1673ffffffffffffffffffffffffffffffffffffffff16815260200190815260200160002060008673ffffffffffffffffffffffffffffffffffffffff1673ffffffffffffffffffffffffffffffffffffffff1681526020019081526020016000206001015461176490919063ffffffff16565b905092915050565b600033905090565b60008060009054906101000a900473ffffffffffffffffffffffffffffffffffffffff169050816000806101000a81548173ffffffffffffffffffffffffffffffffffffffff021916908373ffffffffffffffffffffffffffffffffffffffff1602179055508173ffffffffffffffffffffffffffffffffffffffff168173ffffffffffffffffffffffffffffffffffffffff167f8be0079c531659141344cd1fd0a4f28419497f9722a3daafe3b4186f6b6457e060405160405180910390a35050565b600081836117729190611ffe565b905092915050565b82805461178690612358565b90600052602060002090601f0160209004810192826117a857600085556117ef565b82601f106117c157805160ff19168380011785556117ef565b828001600101855582156117ef579182015b828111156117ee5782518255916020019190600101906117d3565b5b5090506117fc9190611800565b5090565b5b80821115611819576000816000905550600101611801565b5090565b6000604051905090565b600080fd5b600080fd5b600073ffffffffffffffffffffffffffffffffffffffff82169050919050565b600061185c82611831565b9050919050565b61186c81611851565b811461187757600080fd5b50565b60008135905061188981611863565b92915050565b600080604083850312156118a6576118a5611827565b5b60006118b48582860161187a565b92505060206118c58582860161187a565b9150509250929050565b6000819050919050565b6118e2816118cf565b82525050565b60006020820190506118fd60008301846118d9565b92915050565b60006020828403121561191957611918611827565b5b60006119278482850161187a565b91505092915050565b61193981611851565b82525050565b60006020820190506119546000830184611930565b92915050565b611963816118cf565b811461196e57600080fd5b50565b6000813590506119808161195a565b92915050565b6000806040838503121561199d5761199c611827565b5b60006119ab8582860161187a565b92505060206119bc85828601611971565b9150509250929050565b60008115159050919050565b6119db816119c6565b82525050565b60006020820190506119f660008301846119d2565b92915050565b600080fd5b600080fd5b6000601f19601f8301169050919050565b7f4e487b7100000000000000000000000000000000000000000000000000000000600052604160045260246000fd5b611a4f82611a06565b810181811067ffffffffffffffff82111715611a6e57611a6d611a17565b5b80604052505050565b6000611a8161181d565b9050611a8d8282611a46565b919050565b600067ffffffffffffffff821115611aad57611aac611a17565b5b611ab682611a06565b9050602081019050919050565b82818337600083830152505050565b6000611ae5611ae084611a92565b611a77565b905082815260208101848484011115611b0157611b00611a01565b5b611b0c848285611ac3565b509392505050565b600082601f830112611b2957611b286119fc565b5b8135611b39848260208601611ad2565b91505092915050565b60008060008060808587031215611b5c57611b5b611827565b5b600085013567ffffffffffffffff811115611b7a57611b7961182c565b5b611b8687828801611b14565b9450506020611b978782880161187a565b9350506040611ba88782880161187a565b9250506060611bb987828801611971565b91505092959194509250565b600081519050919050565b600082825260208201905092915050565b60005b83811015611bff578082015181840152602081019050611be4565b83811115611c0e576000848401525b50505050565b6000611c1f82611bc5565b611c298185611bd0565b9350611c39818560208601611be1565b611c4281611a06565b840191505092915050565b60006080820190508181036000830152611c678187611c14565b9050611c7660208301866118d9565b611c8360408301856119d2565b611c906060830184611930565b95945050505050565b7f4e487b7100000000000000000000000000000000000000000000000000000000600052601160045260246000fd5b6000611cd3826118cf565b9150611cde836118cf565b925082821015611cf157611cf0611c99565b5b828203905092915050565b600069ffffffffffffffffffff82169050919050565b611d1b81611cfc565b8114611d2657600080fd5b50565b600081519050611d3881611d12565b92915050565b6000819050919050565b611d5181611d3e565b8114611d5c57600080fd5b50565b600081519050611d6e81611d48565b92915050565b600081519050611d838161195a565b92915050565b600080600080600060a08688031215611da557611da4611827565b5b6000611db388828901611d29565b9550506020611dc488828901611d5f565b9450506040611dd588828901611d74565b9350506060611de688828901611d74565b9250506080611df788828901611d29565b9150509295509295909350565b6000604082019050611e196000830185611930565b611e2660208301846118d9565b9392505050565b6000606082019050611e426000830186611930565b611e4f6020830185611930565b611e5c60408301846118d9565b949350505050565b7f4f776e61626c653a2063616c6c6572206973206e6f7420746865206f776e6572600082015250565b6000611e9a602083611bd0565b9150611ea582611e64565b602082019050919050565b60006020820190508181036000830152611ec981611e8d565b9050919050565b7f416d6f756e74206d7573742062652067726561746572207468616e2030000000600082015250565b6000611f06601d83611bd0565b9150611f1182611ed0565b602082019050919050565b60006020820190508181036000830152611f3581611ef9565b9050919050565b7f546f6b656e20746f207374616b65206e6f7420616c6c6f776564000000000000600082015250565b6000611f72601a83611bd0565b9150611f7d82611f3c565b602082019050919050565b60006020820190508181036000830152611fa181611f65565b9050919050565b6000604082019050611fbd6000830185611930565b611fca6020830184611930565b9392505050565b600060208284031215611fe757611fe6611827565b5b6000611ff584828501611d74565b91505092915050565b6000612009826118cf565b9150612014836118cf565b9250827fffffffffffffffffffffffffffffffffffffffffffffffffffffffffffffffff0382111561204957612048611c99565b5b828201905092915050565b61205d816119c6565b811461206857600080fd5b50565b60008151905061207a81612054565b92915050565b60006020828403121561209657612095611827565b5b60006120a48482850161206b565b91505092915050565b7f496e73756666696369656e7420737461636b65642062616c616e636500000000600082015250565b60006120e3601c83611bd0565b91506120ee826120ad565b602082019050919050565b60006020820190508181036000830152612112816120d6565b9050919050565b7f4f776e61626c653a206e6577206f776e657220697320746865207a65726f206160008201527f6464726573730000000000000000000000000000000000000000000000000000602082015250565b6000612175602683611bd0565b915061218082612119565b604082019050919050565b600060208201905081810360008301526121a481612168565b9050919050565b6000600282049050919050565b6000808291508390505b6001851115612202578086048111156121de576121dd611c99565b5b60018516156121ed5780820291505b80810290506121fb856121ab565b94506121c2565b94509492505050565b60008261221b57600190506122d7565b8161222957600090506122d7565b816001811461223f576002811461224957612278565b60019150506122d7565b60ff84111561225b5761225a611c99565b5b8360020a91508482111561227257612271611c99565b5b506122d7565b5060208310610133831016604e8410600b84101617156122ad5782820a9050838111156122a8576122a7611c99565b5b6122d7565b6122ba84848460016121b8565b925090508184048111156122d1576122d0611c99565b5b81810290505b9392505050565b60006122e9826118cf565b91506122f4836118cf565b92506123217fffffffffffffffffffffffffffffffffffffffffffffffffffffffffffffffff848461220b565b905092915050565b7f4e487b7100000000000000000000000000000000000000000000000000000000600052602260045260246000fd5b6000600282049050600182168061237057607f821691505b6020821081141561238457612383612329565b5b50919050565b6000612395826118cf565b91506123a0836118cf565b9250817fffffffffffffffffffffffffffffffffffffffffffffffffffffffffffffffff04831182151516156123d9576123d8611c99565b5b828202905092915050565b7f4e487b7100000000000000000000000000000000000000000000000000000000600052601260045260246000fd5b600061241e826118cf565b9150612429836118cf565b925082612439576124386123e4565b5b82820490509291505056fea26469706673582212209840f896be682d5470cd963ad871b3fec91da6e4d68f3c7948e545cecd30334464736f6c634300080c0033",
  "immutableReferences": {},
  "source": "// SPDX-License-Identifier: MIT\r\npragma solidity 0.8.12;\r\n\r\nimport \"@chainlink/contracts/src/v0.8/interfaces/AggregatorV3Interface.sol\";\r\nimport \"@openzeppelin/contracts/utils/math/SafeMath.sol\";\r\nimport \"@openzeppelin/contracts/token/ERC20/IERC20.sol\";\r\nimport \"@openzeppelin/contracts/access/Ownable.sol\";\r\nimport \"./MMT.sol\";\r\n\r\ncontract Stacking is Ownable {\r\n    using SafeMath for uint256;\r\n    MMT private rewardsToken;\r\n    uint256 private percentageReward;\r\n    uint256 private periodReward;\r\n\r\n    //userAddress > tokenAddress > staker\r\n    mapping(address => mapping(address => Staker)) stackers;\r\n    mapping(address => Pair) public pairs;\r\n    address public rewardsTokenAddress;\r\n\r\n    struct Staker {\r\n        uint256 balance;\r\n        uint256 rewards;\r\n        uint256 lastUpdate;\r\n    }\r\n\r\n    struct Pair {\r\n        string code;\r\n        uint decimal;\r\n        bool isEnabled;\r\n        address pairAddress;\r\n    }\r\n\r\n    event onStaking(address erc20Token, address stakerAddress, uint256 amountToStake);\r\n    event onUnstaking(address erc20Token, address stakerAddress, uint256 amountToUnstake);\r\n\tevent onWithdrawingRewards(address erc20Token, address stakerAddress, uint256 rewards);\r\n    event onAddingPairs(address erc20Token, address pairAddress);\r\n\r\n    //0x9326BFA02ADD2366b30bacB125260Af641031331 ETH/USD Kovan\r\n    constructor(address _mmtTokenAddress\r\n                , uint256 _percentageReward\r\n                , uint256 _periodRewardInSeconds) {\r\n        rewardsTokenAddress = _mmtTokenAddress;\r\n        percentageReward = _percentageReward; //1;\r\n        periodReward = _periodRewardInSeconds; //86400 s; //1 day\r\n        rewardsToken = MMT(_mmtTokenAddress);\r\n    }\r\n\r\n    function addPair(string memory _code, address _erc20Token, address _pairAddress, uint256 _decimal) external onlyOwner() {\r\n        pairs[_erc20Token].isEnabled = true;\r\n        pairs[_erc20Token].code = _code;\r\n        pairs[_erc20Token].decimal = _decimal;\r\n        pairs[_erc20Token].pairAddress = _pairAddress;\r\n        emit onAddingPairs(_erc20Token, _pairAddress);\r\n    }\r\n\r\n    function stake(address _erc20Token, uint256 _amount) external returns(bool success) {\r\n        require(_amount > 0, \"Amount must be greater than 0\");\r\n        require(pairs[_erc20Token].isEnabled, \"Token to stake not allowed\");\r\n\r\n        uint256 allowance = IERC20(_erc20Token).allowance(msg.sender, address(this));\r\n        //require(allowance >= _amount, \"Token allowance ko\");\r\n\r\n        stackers[msg.sender][_erc20Token].rewards = _getCurrentRewards(_erc20Token, msg.sender);\r\n        stackers[msg.sender][_erc20Token].lastUpdate = block.timestamp;\r\n        stackers[msg.sender][_erc20Token].balance += _amount;\r\n\r\n        //todo: revert if transfer fail\r\n\r\n        IERC20(_erc20Token).transferFrom(msg.sender, address(this), _amount);\r\n\r\n        emit onStaking(_erc20Token, msg.sender, _amount);\r\n        return true;\r\n    }\r\n\r\n    function getLatestPrice(address _pairAddress) public view returns (uint256) {\r\n        AggregatorV3Interface priceConsumer = AggregatorV3Interface(_pairAddress);\r\n        (\r\n            /*uint80 roundID*/,\r\n            int price,\r\n            /*uint startedAt*/,\r\n            /*uint timeStamp*/,\r\n            /*uint80 answeredInRound*/\r\n        ) = priceConsumer.latestRoundData();\r\n        return ((uint256)(price)).div(10**8);\r\n    }  \r\n\r\n    function unstake(address _erc20Token, uint256 _amount) external {\r\n        require(_amount <= stackers[msg.sender][_erc20Token].balance, \"Insufficient stacked balance\");\r\n        \r\n        stackers[msg.sender][_erc20Token].rewards = _getCurrentRewards(_erc20Token, msg.sender);\r\n        stackers[msg.sender][_erc20Token].balance -= _amount;\r\n        stackers[msg.sender][_erc20Token].lastUpdate = block.timestamp;\r\n\r\n        IERC20(_erc20Token).transfer(msg.sender,_amount);\r\n        emit onUnstaking(_erc20Token, msg.sender, _amount);\r\n    }\r\n\r\n    function withdrawRewards(address _erc20Token) external {\r\n        uint256 rewards = _getCurrentRewards(_erc20Token, msg.sender);\r\n        stackers[msg.sender][_erc20Token].lastUpdate = block.timestamp;\r\n        stackers[msg.sender][_erc20Token].rewards = 0;\r\n        rewardsToken.mint(msg.sender, rewards);\r\n        emit onWithdrawingRewards(_erc20Token, msg.sender, rewards);\r\n    }\r\n\r\n    function getStakedBalance(address _erc20Token) external view returns (uint256) {\r\n        return _getStakedBalance(_erc20Token, msg.sender);\r\n    }\r\n\r\n    function getBalance(address _erc20Token) external view returns (uint256) {\r\n        return IERC20(_erc20Token).balanceOf(msg.sender).div(10**pairs[_erc20Token].decimal);\r\n    }\r\n\r\n    function getCurrentRewards(address _erc20Token) external view returns (uint256) {\r\n        return _getCurrentRewards(_erc20Token, msg.sender);\r\n    }\r\n\r\n    function _getStakedBalance(address _erc20Token, address account) private view returns (uint256) {\r\n        return stackers[account][_erc20Token].balance;\r\n    }  \r\n\r\n    function _getCurrentRewards(address _erc20Token, address account) private view returns (uint256) {\r\n        return stackers[account][_erc20Token].rewards.add(calculateRewards(_erc20Token, account));\r\n    }\r\n\r\n    function calculateRewards(address _erc20Token, address account) public view returns (uint256) {\r\n        if(stackers[account][_erc20Token].balance == 0) return 0;\r\n\r\n        uint256 defaultLastPrice = 1;\r\n        uint256 deltaTimestamp = block.timestamp - stackers[account][_erc20Token].lastUpdate;\r\n        uint256 lastPrice = getLatestPrice(pairs[_erc20Token].pairAddress);\r\n        //uint256 calculatedLastPrice = ((uint256)(lastPrice > 0 ? lastPrice : defaultLastPrice)).div(10**pairs[_erc20Token].decimal);\r\n        uint256 calculatedLastPrice = (lastPrice > 0 ? lastPrice : defaultLastPrice);\r\n\r\n        uint256 rewardsAmount = _getStakedBalance(_erc20Token, account).mul(calculatedLastPrice);\r\n\r\n        return rewardsAmount.mul(deltaTimestamp).div(periodReward).mul(percentageReward).div(100);\r\n    } \r\n}",
  "sourcePath": "C:\\Users\\mdmou\\source\\repos\\Developpeur-Ethereum-Template\\7. Finance Dcentralise\\defi\\contracts\\Stacking.sol",
  "compiler": {
    "name": "solc",
    "version": "0.8.12+commit.f00d7308.Emscripten.clang"
  },
  "schemaVersion": "3.4.4",
  "updatedAt": "2022-04-19T05:48:29.220Z",
  "networkType": "ethereum",
  "devdoc": {
    "kind": "dev",
    "methods": {
      "owner()": {
        "details": "Returns the address of the current owner."
      },
      "renounceOwnership()": {
        "details": "Leaves the contract without owner. It will not be possible to call `onlyOwner` functions anymore. Can only be called by the current owner. NOTE: Renouncing ownership will leave the contract without an owner, thereby removing any functionality that is only available to the owner."
      },
      "transferOwnership(address)": {
        "details": "Transfers ownership of the contract to a new account (`newOwner`). Can only be called by the current owner."
      }
    },
    "version": 1
  },
  "userdoc": {
    "kind": "user",
    "methods": {},
    "version": 1
  }
}