{
  "contractName": "Stacking",
  "abi": [
    {
      "inputs": [
        {
          "internalType": "address",
          "name": "_mmtTokenAddress",
          "type": "address"
        },
        {
          "internalType": "uint256",
          "name": "_percentageReward",
          "type": "uint256"
        },
        {
          "internalType": "uint256",
          "name": "_periodRewardInSeconds",
          "type": "uint256"
        }
      ],
      "stateMutability": "nonpayable",
      "type": "constructor"
    },
    {
      "anonymous": false,
      "inputs": [
        {
          "indexed": true,
          "internalType": "address",
          "name": "previousOwner",
          "type": "address"
        },
        {
          "indexed": true,
          "internalType": "address",
          "name": "newOwner",
          "type": "address"
        }
      ],
      "name": "OwnershipTransferred",
      "type": "event"
    },
    {
      "anonymous": false,
      "inputs": [
        {
          "indexed": false,
          "internalType": "address",
          "name": "erc20Token",
          "type": "address"
        },
        {
          "indexed": false,
          "internalType": "address",
          "name": "pairAddress",
          "type": "address"
        }
      ],
      "name": "onAddingPairs",
      "type": "event"
    },
    {
      "anonymous": false,
      "inputs": [
        {
          "indexed": false,
          "internalType": "address",
          "name": "erc20Token",
          "type": "address"
        },
        {
          "indexed": false,
          "internalType": "address",
          "name": "stakerAddress",
          "type": "address"
        },
        {
          "indexed": false,
          "internalType": "uint256",
          "name": "amountToStake",
          "type": "uint256"
        }
      ],
      "name": "onStaking",
      "type": "event"
    },
    {
      "anonymous": false,
      "inputs": [
        {
          "indexed": false,
          "internalType": "address",
          "name": "erc20Token",
          "type": "address"
        },
        {
          "indexed": false,
          "internalType": "address",
          "name": "stakerAddress",
          "type": "address"
        },
        {
          "indexed": false,
          "internalType": "uint256",
          "name": "amountToUnstake",
          "type": "uint256"
        }
      ],
      "name": "onUnstaking",
      "type": "event"
    },
    {
      "anonymous": false,
      "inputs": [
        {
          "indexed": false,
          "internalType": "address",
          "name": "erc20Token",
          "type": "address"
        },
        {
          "indexed": false,
          "internalType": "address",
          "name": "stakerAddress",
          "type": "address"
        },
        {
          "indexed": false,
          "internalType": "uint256",
          "name": "rewards",
          "type": "uint256"
        }
      ],
      "name": "onWithdrawingRewards",
      "type": "event"
    },
    {
      "inputs": [],
      "name": "owner",
      "outputs": [
        {
          "internalType": "address",
          "name": "",
          "type": "address"
        }
      ],
      "stateMutability": "view",
      "type": "function",
      "constant": true
    },
    {
      "inputs": [
        {
          "internalType": "address",
          "name": "",
          "type": "address"
        }
      ],
      "name": "pairs",
      "outputs": [
        {
          "internalType": "string",
          "name": "code",
          "type": "string"
        },
        {
          "internalType": "uint256",
          "name": "decimal",
          "type": "uint256"
        },
        {
          "internalType": "bool",
          "name": "isEnabled",
          "type": "bool"
        },
        {
          "internalType": "address",
          "name": "pairAddress",
          "type": "address"
        }
      ],
      "stateMutability": "view",
      "type": "function",
      "constant": true
    },
    {
      "inputs": [],
      "name": "renounceOwnership",
      "outputs": [],
      "stateMutability": "nonpayable",
      "type": "function"
    },
    {
      "inputs": [
        {
          "internalType": "address",
          "name": "newOwner",
          "type": "address"
        }
      ],
      "name": "transferOwnership",
      "outputs": [],
      "stateMutability": "nonpayable",
      "type": "function"
    },
    {
      "inputs": [
        {
          "internalType": "string",
          "name": "_code",
          "type": "string"
        },
        {
          "internalType": "address",
          "name": "_erc20Token",
          "type": "address"
        },
        {
          "internalType": "address",
          "name": "_pairAddress",
          "type": "address"
        },
        {
          "internalType": "uint256",
          "name": "_decimal",
          "type": "uint256"
        }
      ],
      "name": "addPair",
      "outputs": [],
      "stateMutability": "nonpayable",
      "type": "function"
    },
    {
      "inputs": [
        {
          "internalType": "address",
          "name": "_erc20Token",
          "type": "address"
        },
        {
          "internalType": "uint256",
          "name": "_amount",
          "type": "uint256"
        }
      ],
      "name": "stake",
      "outputs": [
        {
          "internalType": "bool",
          "name": "success",
          "type": "bool"
        }
      ],
      "stateMutability": "nonpayable",
      "type": "function"
    },
    {
      "inputs": [
        {
          "internalType": "address",
          "name": "_pairAddress",
          "type": "address"
        }
      ],
      "name": "getLatestPrice",
      "outputs": [
        {
          "internalType": "int256",
          "name": "",
          "type": "int256"
        }
      ],
      "stateMutability": "view",
      "type": "function",
      "constant": true
    },
    {
      "inputs": [
        {
          "internalType": "address",
          "name": "_erc20Token",
          "type": "address"
        },
        {
          "internalType": "uint256",
          "name": "_amount",
          "type": "uint256"
        }
      ],
      "name": "unstake",
      "outputs": [],
      "stateMutability": "nonpayable",
      "type": "function"
    },
    {
      "inputs": [
        {
          "internalType": "address",
          "name": "_erc20Token",
          "type": "address"
        }
      ],
      "name": "withdrawRewards",
      "outputs": [],
      "stateMutability": "nonpayable",
      "type": "function"
    },
    {
      "inputs": [
        {
          "internalType": "address",
          "name": "_erc20Token",
          "type": "address"
        }
      ],
      "name": "getStakedBalance",
      "outputs": [
        {
          "internalType": "uint256",
          "name": "",
          "type": "uint256"
        }
      ],
      "stateMutability": "view",
      "type": "function",
      "constant": true
    },
    {
      "inputs": [
        {
          "internalType": "address",
          "name": "_erc20Token",
          "type": "address"
        }
      ],
      "name": "getCurrentRewards",
      "outputs": [
        {
          "internalType": "uint256",
          "name": "",
          "type": "uint256"
        }
      ],
      "stateMutability": "view",
      "type": "function",
      "constant": true
    }
  ],
  "bytecode": "0x60806040523480156200001157600080fd5b506040516200267938038062002679833981810160405281019062000037919062000232565b6200006962000054620000c1640100000000026401000000009004565b620000c9640100000000026401000000009004565b82600160006101000a81548173ffffffffffffffffffffffffffffffffffffffff021916908373ffffffffffffffffffffffffffffffffffffffff16021790555081600281905550806003819055505050506200028e565b600033905090565b60008060009054906101000a900473ffffffffffffffffffffffffffffffffffffffff169050816000806101000a81548173ffffffffffffffffffffffffffffffffffffffff021916908373ffffffffffffffffffffffffffffffffffffffff1602179055508173ffffffffffffffffffffffffffffffffffffffff168173ffffffffffffffffffffffffffffffffffffffff167f8be0079c531659141344cd1fd0a4f28419497f9722a3daafe3b4186f6b6457e060405160405180910390a35050565b600080fd5b600073ffffffffffffffffffffffffffffffffffffffff82169050919050565b6000620001bf8262000192565b9050919050565b620001d181620001b2565b8114620001dd57600080fd5b50565b600081519050620001f181620001c6565b92915050565b6000819050919050565b6200020c81620001f7565b81146200021857600080fd5b50565b6000815190506200022c8162000201565b92915050565b6000806000606084860312156200024e576200024d6200018d565b5b60006200025e86828701620001e0565b935050602062000271868287016200021b565b925050604062000284868287016200021b565b9150509250925092565b6123db806200029e6000396000f3fe608060405234801561001057600080fd5b50600436106100c6576000357c010000000000000000000000000000000000000000000000000000000090048063adc9772e1161008e578063adc9772e1461016f578063b2e14f8d1461019f578063c2a672e0146101cf578063d4e36816146101eb578063f2fde38b14610207578063fe33b30214610223576100c6565b806316345f18146100cb5780633a02a42d146100fb57806342d866931461012b578063715018a6146101475780638da5cb5b14610151575b600080fd5b6100e560048036038101906100e0919061179a565b610256565b6040516100f291906117e0565b60405180910390f35b6101156004803603810190610110919061179a565b6102f9565b6040516101229190611814565b60405180910390f35b6101456004803603810190610140919061179a565b61036c565b005b61014f61056d565b005b6101596105f5565b604051610166919061183e565b60405180910390f35b61018960048036038101906101849190611885565b61061e565b60405161019691906118e0565b60405180910390f35b6101b960048036038101906101b4919061179a565b610a5a565b6040516101c69190611814565b60405180910390f35b6101e960048036038101906101e49190611885565b610a6d565b005b61020560048036038101906102009190611a41565b610db0565b005b610221600480360381019061021c919061179a565b610fe5565b005b61023d6004803603810190610238919061179a565b6110dd565b60405161024d9493929190611b4c565b60405180910390f35b60008082905060008173ffffffffffffffffffffffffffffffffffffffff1663feaf968c6040518163ffffffff167c010000000000000000000000000000000000000000000000000000000002815260040160a060405180830381865afa1580156102c5573d6000803e3d6000fd5b505050506040513d601f19601f820116820180604052508101906102e99190611c1b565b5050509150508092505050919050565b6000610365600560008473ffffffffffffffffffffffffffffffffffffffff1673ffffffffffffffffffffffffffffffffffffffff16815260200190815260200160002060010154600a61034d9190611df8565b61035784336111c2565b61124c90919063ffffffff16565b9050919050565b60006103788233611262565b905042600460003373ffffffffffffffffffffffffffffffffffffffff1673ffffffffffffffffffffffffffffffffffffffff16815260200190815260200160002060008473ffffffffffffffffffffffffffffffffffffffff1673ffffffffffffffffffffffffffffffffffffffff168152602001908152602001600020600201819055506000600460003373ffffffffffffffffffffffffffffffffffffffff1673ffffffffffffffffffffffffffffffffffffffff16815260200190815260200160002060008473ffffffffffffffffffffffffffffffffffffffff1673ffffffffffffffffffffffffffffffffffffffff16815260200190815260200160002060010181905550600160009054906101000a900473ffffffffffffffffffffffffffffffffffffffff1673ffffffffffffffffffffffffffffffffffffffff166340c10f1933836040518363ffffffff167c01000000000000000000000000000000000000000000000000000000000281526004016104fc929190611e43565b600060405180830381600087803b15801561051657600080fd5b505af115801561052a573d6000803e3d6000fd5b505050507f431d18cf14b98111ec133ea7045d9533d727088e4070da45a952d0871587142982338360405161056193929190611e6c565b60405180910390a15050565b610575611307565b73ffffffffffffffffffffffffffffffffffffffff166105936105f5565b73ffffffffffffffffffffffffffffffffffffffff16146105e9576040517f08c379a00000000000000000000000000000000000000000000000000000000081526004016105e090611eef565b60405180910390fd5b6105f3600061130f565b565b60008060009054906101000a900473ffffffffffffffffffffffffffffffffffffffff16905090565b6000808211610662576040517f08c379a000000000000000000000000000000000000000000000000000000000815260040161065990611f5b565b60405180910390fd5b600560008473ffffffffffffffffffffffffffffffffffffffff1673ffffffffffffffffffffffffffffffffffffffff16815260200190815260200160002060020160009054906101000a900460ff166106f1576040517f08c379a00000000000000000000000000000000000000000000000000000000081526004016106e890611fc7565b60405180910390fd5b60008373ffffffffffffffffffffffffffffffffffffffff1663dd62ed3e33306040518363ffffffff167c010000000000000000000000000000000000000000000000000000000002815260040161074a929190611fe7565b602060405180830381865afa158015610767573d6000803e3d6000fd5b505050506040513d601f19601f8201168201806040525081019061078b9190612010565b9050828110156107d0576040517f08c379a00000000000000000000000000000000000000000000000000000000081526004016107c790612089565b60405180910390fd5b6107da8433611262565b600460003373ffffffffffffffffffffffffffffffffffffffff1673ffffffffffffffffffffffffffffffffffffffff16815260200190815260200160002060008673ffffffffffffffffffffffffffffffffffffffff1673ffffffffffffffffffffffffffffffffffffffff1681526020019081526020016000206001018190555042600460003373ffffffffffffffffffffffffffffffffffffffff1673ffffffffffffffffffffffffffffffffffffffff16815260200190815260200160002060008673ffffffffffffffffffffffffffffffffffffffff1673ffffffffffffffffffffffffffffffffffffffff1681526020019081526020016000206002018190555082600460003373ffffffffffffffffffffffffffffffffffffffff1673ffffffffffffffffffffffffffffffffffffffff16815260200190815260200160002060008673ffffffffffffffffffffffffffffffffffffffff1673ffffffffffffffffffffffffffffffffffffffff168152602001908152602001600020600001600082825461097091906120a9565b925050819055508373ffffffffffffffffffffffffffffffffffffffff166323b872dd3330866040518463ffffffff167c01000000000000000000000000000000000000000000000000000000000281526004016109d093929190611e6c565b6020604051808303816000875af11580156109ef573d6000803e3d6000fd5b505050506040513d601f19601f82011682018060405250810190610a13919061212b565b507f25b95f5f2561c1b3c407a0c6f2a9490387c70d9cd6ef843b6b9bdbaa9e800ad8843385604051610a4793929190611e6c565b60405180910390a1600191505092915050565b6000610a668233611262565b9050919050565b600460003373ffffffffffffffffffffffffffffffffffffffff1673ffffffffffffffffffffffffffffffffffffffff16815260200190815260200160002060008373ffffffffffffffffffffffffffffffffffffffff1673ffffffffffffffffffffffffffffffffffffffff16815260200190815260200160002060000154811115610b2f576040517f08c379a0000000000000000000000000000000000000000000000000000000008152600401610b26906121a4565b60405180910390fd5b610b398233611262565b600460003373ffffffffffffffffffffffffffffffffffffffff1673ffffffffffffffffffffffffffffffffffffffff16815260200190815260200160002060008473ffffffffffffffffffffffffffffffffffffffff1673ffffffffffffffffffffffffffffffffffffffff1681526020019081526020016000206001018190555080600460003373ffffffffffffffffffffffffffffffffffffffff1673ffffffffffffffffffffffffffffffffffffffff16815260200190815260200160002060008473ffffffffffffffffffffffffffffffffffffffff1673ffffffffffffffffffffffffffffffffffffffff1681526020019081526020016000206000016000828254610c4b91906121c4565b9250508190555042600460003373ffffffffffffffffffffffffffffffffffffffff1673ffffffffffffffffffffffffffffffffffffffff16815260200190815260200160002060008473ffffffffffffffffffffffffffffffffffffffff1673ffffffffffffffffffffffffffffffffffffffff168152602001908152602001600020600201819055508173ffffffffffffffffffffffffffffffffffffffff1663a9059cbb33836040518363ffffffff167c0100000000000000000000000000000000000000000000000000000000028152600401610d2d929190611e43565b6020604051808303816000875af1158015610d4c573d6000803e3d6000fd5b505050506040513d601f19601f82011682018060405250810190610d70919061212b565b507f96fa08501b8c6ca7b150210f4d677db3f60a3d2f0c60f01baaa50feb214d6358823383604051610da493929190611e6c565b60405180910390a15050565b610db8611307565b73ffffffffffffffffffffffffffffffffffffffff16610dd66105f5565b73ffffffffffffffffffffffffffffffffffffffff1614610e2c576040517f08c379a0000000000000000000000000000000000000000000000000000000008152600401610e2390611eef565b60405180910390fd5b6001600560008573ffffffffffffffffffffffffffffffffffffffff1673ffffffffffffffffffffffffffffffffffffffff16815260200190815260200160002060020160006101000a81548160ff02191690831515021790555083600560008573ffffffffffffffffffffffffffffffffffffffff1673ffffffffffffffffffffffffffffffffffffffff1681526020019081526020016000206000019080519060200190610edd929190611685565b5080600560008573ffffffffffffffffffffffffffffffffffffffff1673ffffffffffffffffffffffffffffffffffffffff1681526020019081526020016000206001018190555081600560008573ffffffffffffffffffffffffffffffffffffffff1673ffffffffffffffffffffffffffffffffffffffff16815260200190815260200160002060020160016101000a81548173ffffffffffffffffffffffffffffffffffffffff021916908373ffffffffffffffffffffffffffffffffffffffff1602179055507f3e97ab69200e6bd239b39743d5fd994be05cd1124e3f24803258262dc0214c018383604051610fd7929190611fe7565b60405180910390a150505050565b610fed611307565b73ffffffffffffffffffffffffffffffffffffffff1661100b6105f5565b73ffffffffffffffffffffffffffffffffffffffff1614611061576040517f08c379a000000000000000000000000000000000000000000000000000000000815260040161105890611eef565b60405180910390fd5b600073ffffffffffffffffffffffffffffffffffffffff168173ffffffffffffffffffffffffffffffffffffffff1614156110d1576040517f08c379a00000000000000000000000000000000000000000000000000000000081526004016110c89061226a565b60405180910390fd5b6110da8161130f565b50565b6005602052806000526040600020600091509050806000018054611100906122b9565b80601f016020809104026020016040519081016040528092919081815260200182805461112c906122b9565b80156111795780601f1061114e57610100808354040283529160200191611179565b820191906000526020600020905b81548152906001019060200180831161115c57829003601f168201915b5050505050908060010154908060020160009054906101000a900460ff16908060020160019054906101000a900473ffffffffffffffffffffffffffffffffffffffff16905084565b6000600460008373ffffffffffffffffffffffffffffffffffffffff1673ffffffffffffffffffffffffffffffffffffffff16815260200190815260200160002060008473ffffffffffffffffffffffffffffffffffffffff1673ffffffffffffffffffffffffffffffffffffffff16815260200190815260200160002060000154905092915050565b6000818361125a919061231a565b905092915050565b60006112ff61127184846113d3565b600460008573ffffffffffffffffffffffffffffffffffffffff1673ffffffffffffffffffffffffffffffffffffffff16815260200190815260200160002060008673ffffffffffffffffffffffffffffffffffffffff1673ffffffffffffffffffffffffffffffffffffffff1681526020019081526020016000206001015461165990919063ffffffff16565b905092915050565b600033905090565b60008060009054906101000a900473ffffffffffffffffffffffffffffffffffffffff169050816000806101000a81548173ffffffffffffffffffffffffffffffffffffffff021916908373ffffffffffffffffffffffffffffffffffffffff1602179055508173ffffffffffffffffffffffffffffffffffffffff168173ffffffffffffffffffffffffffffffffffffffff167f8be0079c531659141344cd1fd0a4f28419497f9722a3daafe3b4186f6b6457e060405160405180910390a35050565b600080600460008473ffffffffffffffffffffffffffffffffffffffff1673ffffffffffffffffffffffffffffffffffffffff16815260200190815260200160002060008573ffffffffffffffffffffffffffffffffffffffff1673ffffffffffffffffffffffffffffffffffffffff1681526020019081526020016000206000015414156114655760009050611653565b6000600190506000600460008573ffffffffffffffffffffffffffffffffffffffff1673ffffffffffffffffffffffffffffffffffffffff16815260200190815260200160002060008673ffffffffffffffffffffffffffffffffffffffff1673ffffffffffffffffffffffffffffffffffffffff16815260200190815260200160002060020154426114f891906121c4565b90506000611567600560008873ffffffffffffffffffffffffffffffffffffffff1673ffffffffffffffffffffffffffffffffffffffff16815260200190815260200160002060020160019054906101000a900473ffffffffffffffffffffffffffffffffffffffff16610256565b905060006115db600560008973ffffffffffffffffffffffffffffffffffffffff1673ffffffffffffffffffffffffffffffffffffffff16815260200190815260200160002060010154600a6115bd9190611df8565b600084136115cb57856115cd565b835b61124c90919063ffffffff16565b905060006115fb826115ed8a8a6111c2565b61166f90919063ffffffff16565b905061164b606461163d60025461162f6003546116218a8861166f90919063ffffffff16565b61124c90919063ffffffff16565b61166f90919063ffffffff16565b61124c90919063ffffffff16565b955050505050505b92915050565b6000818361166791906120a9565b905092915050565b6000818361167d919061234b565b905092915050565b828054611691906122b9565b90600052602060002090601f0160209004810192826116b357600085556116fa565b82601f106116cc57805160ff19168380011785556116fa565b828001600101855582156116fa579182015b828111156116f95782518255916020019190600101906116de565b5b509050611707919061170b565b5090565b5b8082111561172457600081600090555060010161170c565b5090565b6000604051905090565b600080fd5b600080fd5b600073ffffffffffffffffffffffffffffffffffffffff82169050919050565b60006117678261173c565b9050919050565b6117778161175c565b811461178257600080fd5b50565b6000813590506117948161176e565b92915050565b6000602082840312156117b0576117af611732565b5b60006117be84828501611785565b91505092915050565b6000819050919050565b6117da816117c7565b82525050565b60006020820190506117f560008301846117d1565b92915050565b6000819050919050565b61180e816117fb565b82525050565b60006020820190506118296000830184611805565b92915050565b6118388161175c565b82525050565b6000602082019050611853600083018461182f565b92915050565b611862816117fb565b811461186d57600080fd5b50565b60008135905061187f81611859565b92915050565b6000806040838503121561189c5761189b611732565b5b60006118aa85828601611785565b92505060206118bb85828601611870565b9150509250929050565b60008115159050919050565b6118da816118c5565b82525050565b60006020820190506118f560008301846118d1565b92915050565b600080fd5b600080fd5b6000601f19601f8301169050919050565b7f4e487b7100000000000000000000000000000000000000000000000000000000600052604160045260246000fd5b61194e82611905565b810181811067ffffffffffffffff8211171561196d5761196c611916565b5b80604052505050565b6000611980611728565b905061198c8282611945565b919050565b600067ffffffffffffffff8211156119ac576119ab611916565b5b6119b582611905565b9050602081019050919050565b82818337600083830152505050565b60006119e46119df84611991565b611976565b905082815260208101848484011115611a00576119ff611900565b5b611a0b8482856119c2565b509392505050565b600082601f830112611a2857611a276118fb565b5b8135611a388482602086016119d1565b91505092915050565b60008060008060808587031215611a5b57611a5a611732565b5b600085013567ffffffffffffffff811115611a7957611a78611737565b5b611a8587828801611a13565b9450506020611a9687828801611785565b9350506040611aa787828801611785565b9250506060611ab887828801611870565b91505092959194509250565b600081519050919050565b600082825260208201905092915050565b60005b83811015611afe578082015181840152602081019050611ae3565b83811115611b0d576000848401525b50505050565b6000611b1e82611ac4565b611b288185611acf565b9350611b38818560208601611ae0565b611b4181611905565b840191505092915050565b60006080820190508181036000830152611b668187611b13565b9050611b756020830186611805565b611b8260408301856118d1565b611b8f606083018461182f565b95945050505050565b600069ffffffffffffffffffff82169050919050565b611bb781611b98565b8114611bc257600080fd5b50565b600081519050611bd481611bae565b92915050565b611be3816117c7565b8114611bee57600080fd5b50565b600081519050611c0081611bda565b92915050565b600081519050611c1581611859565b92915050565b600080600080600060a08688031215611c3757611c36611732565b5b6000611c4588828901611bc5565b9550506020611c5688828901611bf1565b9450506040611c6788828901611c06565b9350506060611c7888828901611c06565b9250506080611c8988828901611bc5565b9150509295509295909350565b7f4e487b7100000000000000000000000000000000000000000000000000000000600052601160045260246000fd5b6000600282049050919050565b6000808291508390505b6001851115611d1c57808604811115611cf857611cf7611c96565b5b6001851615611d075780820291505b8081029050611d1585611cc5565b9450611cdc565b94509492505050565b600082611d355760019050611df1565b81611d435760009050611df1565b8160018114611d595760028114611d6357611d92565b6001915050611df1565b60ff841115611d7557611d74611c96565b5b8360020a915084821115611d8c57611d8b611c96565b5b50611df1565b5060208310610133831016604e8410600b8410161715611dc75782820a905083811115611dc257611dc1611c96565b5b611df1565b611dd48484846001611cd2565b92509050818404811115611deb57611dea611c96565b5b81810290505b9392505050565b6000611e03826117fb565b9150611e0e836117fb565b9250611e3b7fffffffffffffffffffffffffffffffffffffffffffffffffffffffffffffffff8484611d25565b905092915050565b6000604082019050611e58600083018561182f565b611e656020830184611805565b9392505050565b6000606082019050611e81600083018661182f565b611e8e602083018561182f565b611e9b6040830184611805565b949350505050565b7f4f776e61626c653a2063616c6c6572206973206e6f7420746865206f776e6572600082015250565b6000611ed9602083611acf565b9150611ee482611ea3565b602082019050919050565b60006020820190508181036000830152611f0881611ecc565b9050919050565b7f416d6f756e74206d7573742062652067726561746572207468616e2030000000600082015250565b6000611f45601d83611acf565b9150611f5082611f0f565b602082019050919050565b60006020820190508181036000830152611f7481611f38565b9050919050565b7f546f6b656e20746f207374616b65206e6f7420616c6c6f776564000000000000600082015250565b6000611fb1601a83611acf565b9150611fbc82611f7b565b602082019050919050565b60006020820190508181036000830152611fe081611fa4565b9050919050565b6000604082019050611ffc600083018561182f565b612009602083018461182f565b9392505050565b60006020828403121561202657612025611732565b5b600061203484828501611c06565b91505092915050565b7f546f6b656e20616c6c6f77616e6365206b6f0000000000000000000000000000600082015250565b6000612073601283611acf565b915061207e8261203d565b602082019050919050565b600060208201905081810360008301526120a281612066565b9050919050565b60006120b4826117fb565b91506120bf836117fb565b9250827fffffffffffffffffffffffffffffffffffffffffffffffffffffffffffffffff038211156120f4576120f3611c96565b5b828201905092915050565b612108816118c5565b811461211357600080fd5b50565b600081519050612125816120ff565b92915050565b60006020828403121561214157612140611732565b5b600061214f84828501612116565b91505092915050565b7f496e73756666696369656e7420737461636b65642062616c616e636500000000600082015250565b600061218e601c83611acf565b915061219982612158565b602082019050919050565b600060208201905081810360008301526121bd81612181565b9050919050565b60006121cf826117fb565b91506121da836117fb565b9250828210156121ed576121ec611c96565b5b828203905092915050565b7f4f776e61626c653a206e6577206f776e657220697320746865207a65726f206160008201527f6464726573730000000000000000000000000000000000000000000000000000602082015250565b6000612254602683611acf565b915061225f826121f8565b604082019050919050565b6000602082019050818103600083015261228381612247565b9050919050565b7f4e487b7100000000000000000000000000000000000000000000000000000000600052602260045260246000fd5b600060028204905060018216806122d157607f821691505b602082108114156122e5576122e461228a565b5b50919050565b7f4e487b7100000000000000000000000000000000000000000000000000000000600052601260045260246000fd5b6000612325826117fb565b9150612330836117fb565b9250826123405761233f6122eb565b5b828204905092915050565b6000612356826117fb565b9150612361836117fb565b9250817fffffffffffffffffffffffffffffffffffffffffffffffffffffffffffffffff048311821515161561239a57612399611c96565b5b82820290509291505056fea2646970667358221220c12a44dbef86e247ba11409a36fb7b12cb4f6d17ea09354b491d837b1b28483e64736f6c634300080c0033",
  "immutableReferences": {},
  "source": "// SPDX-License-Identifier: MIT\r\npragma solidity 0.8.12;\r\n\r\nimport \"@chainlink/contracts/src/v0.8/interfaces/AggregatorV3Interface.sol\";\r\nimport \"@openzeppelin/contracts/utils/math/SafeMath.sol\";\r\nimport \"@openzeppelin/contracts/token/ERC20/IERC20.sol\";\r\nimport \"@openzeppelin/contracts/access/Ownable.sol\";\r\nimport \"./MMT.sol\";\r\n\r\ncontract Stacking is Ownable {\r\n    using SafeMath for uint256;\r\n    //AggregatorV3Interface private priceConsumer;\r\n    MMT private rewardsToken;\r\n    uint256 private percentageReward;\r\n    uint256 private periodReward;\r\n\r\n    //userAddress > tokenAddress > staker\r\n    mapping(address => mapping(address => Staker)) stackers;\r\n    mapping(address => Pair) public pairs;\r\n\r\n    struct Staker {\r\n        uint256 balance;\r\n        uint256 rewards;\r\n        uint256 lastUpdate;\r\n    }\r\n\r\n    struct Pair {\r\n        string code;\r\n        uint decimal;\r\n        bool isEnabled;\r\n        address pairAddress;\r\n    }\r\n\r\n    event onStaking(address erc20Token, address stakerAddress, uint256 amountToStake);\r\n    event onUnstaking(address erc20Token, address stakerAddress, uint256 amountToUnstake);\r\n\tevent onWithdrawingRewards(address erc20Token, address stakerAddress, uint256 rewards);\r\n    event onAddingPairs(address erc20Token, address pairAddress);\r\n\r\n    //0x9326BFA02ADD2366b30bacB125260Af641031331 ETH/USD Kovan\r\n    constructor(address _mmtTokenAddress //address _aggregatorStackingAddress, \r\n                , uint256 _percentageReward, uint256 _periodRewardInSeconds) {\r\n        rewardsToken = MMT(_mmtTokenAddress);\r\n        percentageReward = _percentageReward; //1;\r\n        periodReward = _periodRewardInSeconds; //86400; //1 day\r\n    }\r\n\r\n    function addPair(string memory _code, address _erc20Token, address _pairAddress, uint256 _decimal) external onlyOwner() {\r\n        pairs[_erc20Token].isEnabled = true;\r\n        pairs[_erc20Token].code = _code;\r\n        pairs[_erc20Token].decimal = _decimal;\r\n        pairs[_erc20Token].pairAddress = _pairAddress;\r\n        emit onAddingPairs(_erc20Token, _pairAddress);\r\n    }\r\n\r\n    function stake(address _erc20Token, uint256 _amount) external returns(bool success) {\r\n        require(_amount > 0, \"Amount must be greater than 0\");\r\n        require(pairs[_erc20Token].isEnabled, \"Token to stake not allowed\");\r\n\r\n        uint256 allowance = IERC20(_erc20Token).allowance(msg.sender, address(this));\r\n        require(allowance >= _amount, \"Token allowance ko\");\r\n\r\n        stackers[msg.sender][_erc20Token].rewards = _getCurrentRewards(_erc20Token, msg.sender);\r\n        stackers[msg.sender][_erc20Token].lastUpdate = block.timestamp;\r\n        stackers[msg.sender][_erc20Token].balance += _amount;\r\n\r\n        //todo: revert if transfer fail\r\n\r\n        IERC20(_erc20Token).transferFrom(msg.sender, address(this), _amount);\r\n\r\n        emit onStaking(_erc20Token, msg.sender, _amount);\r\n        return true;\r\n    }\r\n\r\n    function getLatestPrice(address _pairAddress) public view returns (int256) {\r\n        AggregatorV3Interface priceConsumer = AggregatorV3Interface(_pairAddress);\r\n        (\r\n            /*uint80 roundID*/,\r\n            int price,\r\n            /*uint startedAt*/,\r\n            /*uint timeStamp*/,\r\n            /*uint80 answeredInRound*/\r\n        ) = priceConsumer.latestRoundData();\r\n        return price;\r\n        //return 1;\r\n    }  \r\n\r\n    function unstake(address _erc20Token, uint256 _amount) external {\r\n        require(_amount <= stackers[msg.sender][_erc20Token].balance, \"Insufficient stacked balance\");\r\n        \r\n        stackers[msg.sender][_erc20Token].rewards = _getCurrentRewards(_erc20Token, msg.sender);\r\n        stackers[msg.sender][_erc20Token].balance -= _amount;\r\n        stackers[msg.sender][_erc20Token].lastUpdate = block.timestamp;\r\n\r\n        IERC20(_erc20Token).transfer(msg.sender,_amount);\r\n        emit onUnstaking(_erc20Token, msg.sender, _amount);\r\n    }\r\n\r\n    function withdrawRewards(address _erc20Token) external {\r\n        uint256 rewards = _getCurrentRewards(_erc20Token, msg.sender);\r\n        stackers[msg.sender][_erc20Token].lastUpdate = block.timestamp;\r\n        stackers[msg.sender][_erc20Token].rewards = 0;\r\n        rewardsToken.mint(msg.sender, rewards);\r\n        emit onWithdrawingRewards(_erc20Token, msg.sender, rewards);\r\n    }\r\n\r\n    function getStakedBalance(address _erc20Token) external view returns (uint256) {\r\n        return _getStakedBalance(_erc20Token, msg.sender).div(10**pairs[_erc20Token].decimal);\r\n    }\r\n\r\n    function getCurrentRewards(address _erc20Token) external view returns (uint256) {\r\n        return _getCurrentRewards(_erc20Token, msg.sender);\r\n    }\r\n\r\n    function _getStakedBalance(address _erc20Token, address account) private view returns (uint256) {\r\n        return stackers[account][_erc20Token].balance;\r\n    }  \r\n\r\n    function _getCurrentRewards(address _erc20Token, address account) private view returns (uint256) {\r\n        return stackers[account][_erc20Token].rewards.add(calculateRewards(_erc20Token, account));\r\n    }\r\n\r\n    function calculateRewards(address _erc20Token, address account) private view returns (uint256) {\r\n        if(stackers[account][_erc20Token].balance == 0) return 0;\r\n\r\n        int256 defaultLastPrice = 1;\r\n        uint256 deltaTimestamp = block.timestamp - stackers[account][_erc20Token].lastUpdate;\r\n        int256 lastPrice = getLatestPrice(pairs[_erc20Token].pairAddress);\r\n        uint256 calculatedLastPrice = ((uint256)(lastPrice > 0 ? lastPrice : defaultLastPrice)).div(10**pairs[_erc20Token].decimal);\r\n        //uint256 calculatedLastPrice = (uint256)(lastPrice > 0 ? lastPrice : defaultLastPrice);\r\n\r\n        uint256 rewardsAmount = _getStakedBalance(_erc20Token, account).mul(calculatedLastPrice);\r\n\r\n        return rewardsAmount.mul(deltaTimestamp).div(periodReward).mul(percentageReward).div(100);\r\n    } \r\n}",
  "sourcePath": "C:\\Users\\mdmou\\source\\repos\\Developpeur-Ethereum-Template\\7. Finance Dcentralise\\defi\\contracts\\Stacking.sol",
  "compiler": {
    "name": "solc",
    "version": "0.8.12+commit.f00d7308.Emscripten.clang"
  },
  "schemaVersion": "3.4.4",
  "updatedAt": "2022-04-18T07:51:53.966Z",
  "networkType": "ethereum",
  "devdoc": {
    "kind": "dev",
    "methods": {
      "owner()": {
        "details": "Returns the address of the current owner."
      },
      "renounceOwnership()": {
        "details": "Leaves the contract without owner. It will not be possible to call `onlyOwner` functions anymore. Can only be called by the current owner. NOTE: Renouncing ownership will leave the contract without an owner, thereby removing any functionality that is only available to the owner."
      },
      "transferOwnership(address)": {
        "details": "Transfers ownership of the contract to a new account (`newOwner`). Can only be called by the current owner."
      }
    },
    "version": 1
  },
  "userdoc": {
    "kind": "user",
    "methods": {},
    "version": 1
  }
}