{
  "contractName": "Stacking",
  "abi": [
    {
      "inputs": [
        {
          "internalType": "address",
          "name": "_mmtTokenAddress",
          "type": "address"
        },
        {
          "internalType": "uint256",
          "name": "_percentageReward",
          "type": "uint256"
        },
        {
          "internalType": "uint256",
          "name": "_periodRewardInSeconds",
          "type": "uint256"
        }
      ],
      "stateMutability": "nonpayable",
      "type": "constructor"
    },
    {
      "anonymous": false,
      "inputs": [
        {
          "indexed": true,
          "internalType": "address",
          "name": "previousOwner",
          "type": "address"
        },
        {
          "indexed": true,
          "internalType": "address",
          "name": "newOwner",
          "type": "address"
        }
      ],
      "name": "OwnershipTransferred",
      "type": "event"
    },
    {
      "anonymous": false,
      "inputs": [
        {
          "indexed": false,
          "internalType": "address",
          "name": "erc20Token",
          "type": "address"
        },
        {
          "indexed": false,
          "internalType": "address",
          "name": "pairAddress",
          "type": "address"
        }
      ],
      "name": "onAddingPairs",
      "type": "event"
    },
    {
      "anonymous": false,
      "inputs": [
        {
          "indexed": false,
          "internalType": "address",
          "name": "erc20Token",
          "type": "address"
        },
        {
          "indexed": false,
          "internalType": "address",
          "name": "stakerAddress",
          "type": "address"
        },
        {
          "indexed": false,
          "internalType": "uint256",
          "name": "amountToStake",
          "type": "uint256"
        }
      ],
      "name": "onStaking",
      "type": "event"
    },
    {
      "anonymous": false,
      "inputs": [
        {
          "indexed": false,
          "internalType": "address",
          "name": "erc20Token",
          "type": "address"
        },
        {
          "indexed": false,
          "internalType": "address",
          "name": "stakerAddress",
          "type": "address"
        },
        {
          "indexed": false,
          "internalType": "uint256",
          "name": "amountToUnstake",
          "type": "uint256"
        }
      ],
      "name": "onUnstaking",
      "type": "event"
    },
    {
      "anonymous": false,
      "inputs": [
        {
          "indexed": false,
          "internalType": "address",
          "name": "erc20Token",
          "type": "address"
        },
        {
          "indexed": false,
          "internalType": "address",
          "name": "stakerAddress",
          "type": "address"
        },
        {
          "indexed": false,
          "internalType": "uint256",
          "name": "rewards",
          "type": "uint256"
        }
      ],
      "name": "onWithdrawingRewards",
      "type": "event"
    },
    {
      "inputs": [],
      "name": "owner",
      "outputs": [
        {
          "internalType": "address",
          "name": "",
          "type": "address"
        }
      ],
      "stateMutability": "view",
      "type": "function",
      "constant": true
    },
    {
      "inputs": [
        {
          "internalType": "address",
          "name": "",
          "type": "address"
        }
      ],
      "name": "pairs",
      "outputs": [
        {
          "internalType": "string",
          "name": "code",
          "type": "string"
        },
        {
          "internalType": "uint256",
          "name": "decimal",
          "type": "uint256"
        },
        {
          "internalType": "bool",
          "name": "isEnabled",
          "type": "bool"
        },
        {
          "internalType": "address",
          "name": "pairAddress",
          "type": "address"
        }
      ],
      "stateMutability": "view",
      "type": "function",
      "constant": true
    },
    {
      "inputs": [],
      "name": "renounceOwnership",
      "outputs": [],
      "stateMutability": "nonpayable",
      "type": "function"
    },
    {
      "inputs": [
        {
          "internalType": "address",
          "name": "newOwner",
          "type": "address"
        }
      ],
      "name": "transferOwnership",
      "outputs": [],
      "stateMutability": "nonpayable",
      "type": "function"
    },
    {
      "inputs": [
        {
          "internalType": "string",
          "name": "_code",
          "type": "string"
        },
        {
          "internalType": "address",
          "name": "_erc20Token",
          "type": "address"
        },
        {
          "internalType": "address",
          "name": "_pairAddress",
          "type": "address"
        },
        {
          "internalType": "uint256",
          "name": "_decimal",
          "type": "uint256"
        }
      ],
      "name": "addPair",
      "outputs": [],
      "stateMutability": "nonpayable",
      "type": "function"
    },
    {
      "inputs": [
        {
          "internalType": "address",
          "name": "_erc20Token",
          "type": "address"
        },
        {
          "internalType": "uint256",
          "name": "_amount",
          "type": "uint256"
        }
      ],
      "name": "stake",
      "outputs": [
        {
          "internalType": "bool",
          "name": "success",
          "type": "bool"
        }
      ],
      "stateMutability": "nonpayable",
      "type": "function"
    },
    {
      "inputs": [
        {
          "internalType": "address",
          "name": "_pairAddress",
          "type": "address"
        }
      ],
      "name": "getLatestPrice",
      "outputs": [
        {
          "internalType": "int256",
          "name": "",
          "type": "int256"
        }
      ],
      "stateMutability": "view",
      "type": "function",
      "constant": true
    },
    {
      "inputs": [
        {
          "internalType": "address",
          "name": "_erc20Token",
          "type": "address"
        },
        {
          "internalType": "uint256",
          "name": "_amount",
          "type": "uint256"
        }
      ],
      "name": "unstake",
      "outputs": [],
      "stateMutability": "nonpayable",
      "type": "function"
    },
    {
      "inputs": [
        {
          "internalType": "address",
          "name": "_erc20Token",
          "type": "address"
        }
      ],
      "name": "withdrawRewards",
      "outputs": [],
      "stateMutability": "nonpayable",
      "type": "function"
    },
    {
      "inputs": [
        {
          "internalType": "address",
          "name": "_erc20Token",
          "type": "address"
        }
      ],
      "name": "getStakedBalance",
      "outputs": [
        {
          "internalType": "uint256",
          "name": "",
          "type": "uint256"
        }
      ],
      "stateMutability": "view",
      "type": "function",
      "constant": true
    },
    {
      "inputs": [
        {
          "internalType": "address",
          "name": "_erc20Token",
          "type": "address"
        }
      ],
      "name": "getCurrentRewards",
      "outputs": [
        {
          "internalType": "uint256",
          "name": "",
          "type": "uint256"
        }
      ],
      "stateMutability": "view",
      "type": "function",
      "constant": true
    }
  ],
  "bytecode": "0x60806040523480156200001157600080fd5b506040516200243a3803806200243a833981810160405281019062000037919062000232565b6200006962000054620000c1640100000000026401000000009004565b620000c9640100000000026401000000009004565b82600160006101000a81548173ffffffffffffffffffffffffffffffffffffffff021916908373ffffffffffffffffffffffffffffffffffffffff16021790555081600281905550806003819055505050506200028e565b600033905090565b60008060009054906101000a900473ffffffffffffffffffffffffffffffffffffffff169050816000806101000a81548173ffffffffffffffffffffffffffffffffffffffff021916908373ffffffffffffffffffffffffffffffffffffffff1602179055508173ffffffffffffffffffffffffffffffffffffffff168173ffffffffffffffffffffffffffffffffffffffff167f8be0079c531659141344cd1fd0a4f28419497f9722a3daafe3b4186f6b6457e060405160405180910390a35050565b600080fd5b600073ffffffffffffffffffffffffffffffffffffffff82169050919050565b6000620001bf8262000192565b9050919050565b620001d181620001b2565b8114620001dd57600080fd5b50565b600081519050620001f181620001c6565b92915050565b6000819050919050565b6200020c81620001f7565b81146200021857600080fd5b50565b6000815190506200022c8162000201565b92915050565b6000806000606084860312156200024e576200024d6200018d565b5b60006200025e86828701620001e0565b935050602062000271868287016200021b565b925050604062000284868287016200021b565b9150509250925092565b61219c806200029e6000396000f3fe608060405234801561001057600080fd5b50600436106100c6576000357c010000000000000000000000000000000000000000000000000000000090048063adc9772e1161008e578063adc9772e1461016f578063b2e14f8d1461019f578063c2a672e0146101cf578063d4e36816146101eb578063f2fde38b14610207578063fe33b30214610223576100c6565b806316345f18146100cb5780633a02a42d146100fb57806342d866931461012b578063715018a6146101475780638da5cb5b14610151575b600080fd5b6100e560048036038101906100e091906116d9565b610256565b6040516100f2919061171f565b60405180910390f35b610115600480360381019061011091906116d9565b6102f9565b6040516101229190611753565b60405180910390f35b610145600480360381019061014091906116d9565b61030c565b005b61014f61050d565b005b610159610595565b604051610166919061177d565b60405180910390f35b610189600480360381019061018491906117c4565b6105be565b604051610196919061181f565b60405180910390f35b6101b960048036038101906101b491906116d9565b6109fa565b6040516101c69190611753565b60405180910390f35b6101e960048036038101906101e491906117c4565b610a0d565b005b61020560048036038101906102009190611980565b610d50565b005b610221600480360381019061021c91906116d9565b610f85565b005b61023d600480360381019061023891906116d9565b61107d565b60405161024d9493929190611a8b565b60405180910390f35b60008082905060008173ffffffffffffffffffffffffffffffffffffffff1663feaf968c6040518163ffffffff167c010000000000000000000000000000000000000000000000000000000002815260040160a060405180830381865afa1580156102c5573d6000803e3d6000fd5b505050506040513d601f19601f820116820180604052508101906102e99190611b5a565b5050509150508092505050919050565b60006103058233611162565b9050919050565b600061031882336111ec565b905042600460003373ffffffffffffffffffffffffffffffffffffffff1673ffffffffffffffffffffffffffffffffffffffff16815260200190815260200160002060008473ffffffffffffffffffffffffffffffffffffffff1673ffffffffffffffffffffffffffffffffffffffff168152602001908152602001600020600201819055506000600460003373ffffffffffffffffffffffffffffffffffffffff1673ffffffffffffffffffffffffffffffffffffffff16815260200190815260200160002060008473ffffffffffffffffffffffffffffffffffffffff1673ffffffffffffffffffffffffffffffffffffffff16815260200190815260200160002060010181905550600160009054906101000a900473ffffffffffffffffffffffffffffffffffffffff1673ffffffffffffffffffffffffffffffffffffffff166340c10f1933836040518363ffffffff167c010000000000000000000000000000000000000000000000000000000002815260040161049c929190611bd5565b600060405180830381600087803b1580156104b657600080fd5b505af11580156104ca573d6000803e3d6000fd5b505050507f431d18cf14b98111ec133ea7045d9533d727088e4070da45a952d0871587142982338360405161050193929190611bfe565b60405180910390a15050565b610515611291565b73ffffffffffffffffffffffffffffffffffffffff16610533610595565b73ffffffffffffffffffffffffffffffffffffffff1614610589576040517f08c379a000000000000000000000000000000000000000000000000000000000815260040161058090611c81565b60405180910390fd5b6105936000611299565b565b60008060009054906101000a900473ffffffffffffffffffffffffffffffffffffffff16905090565b6000808211610602576040517f08c379a00000000000000000000000000000000000000000000000000000000081526004016105f990611ced565b60405180910390fd5b600560008473ffffffffffffffffffffffffffffffffffffffff1673ffffffffffffffffffffffffffffffffffffffff16815260200190815260200160002060020160009054906101000a900460ff16610691576040517f08c379a000000000000000000000000000000000000000000000000000000000815260040161068890611d59565b60405180910390fd5b60008373ffffffffffffffffffffffffffffffffffffffff1663dd62ed3e33306040518363ffffffff167c01000000000000000000000000000000000000000000000000000000000281526004016106ea929190611d79565b602060405180830381865afa158015610707573d6000803e3d6000fd5b505050506040513d601f19601f8201168201806040525081019061072b9190611da2565b905082811015610770576040517f08c379a000000000000000000000000000000000000000000000000000000000815260040161076790611e1b565b60405180910390fd5b61077a84336111ec565b600460003373ffffffffffffffffffffffffffffffffffffffff1673ffffffffffffffffffffffffffffffffffffffff16815260200190815260200160002060008673ffffffffffffffffffffffffffffffffffffffff1673ffffffffffffffffffffffffffffffffffffffff1681526020019081526020016000206001018190555042600460003373ffffffffffffffffffffffffffffffffffffffff1673ffffffffffffffffffffffffffffffffffffffff16815260200190815260200160002060008673ffffffffffffffffffffffffffffffffffffffff1673ffffffffffffffffffffffffffffffffffffffff1681526020019081526020016000206002018190555082600460003373ffffffffffffffffffffffffffffffffffffffff1673ffffffffffffffffffffffffffffffffffffffff16815260200190815260200160002060008673ffffffffffffffffffffffffffffffffffffffff1673ffffffffffffffffffffffffffffffffffffffff16815260200190815260200160002060000160008282546109109190611e6a565b925050819055508373ffffffffffffffffffffffffffffffffffffffff166323b872dd3330866040518463ffffffff167c010000000000000000000000000000000000000000000000000000000002815260040161097093929190611bfe565b6020604051808303816000875af115801561098f573d6000803e3d6000fd5b505050506040513d601f19601f820116820180604052508101906109b39190611eec565b507f25b95f5f2561c1b3c407a0c6f2a9490387c70d9cd6ef843b6b9bdbaa9e800ad88433856040516109e793929190611bfe565b60405180910390a1600191505092915050565b6000610a0682336111ec565b9050919050565b600460003373ffffffffffffffffffffffffffffffffffffffff1673ffffffffffffffffffffffffffffffffffffffff16815260200190815260200160002060008373ffffffffffffffffffffffffffffffffffffffff1673ffffffffffffffffffffffffffffffffffffffff16815260200190815260200160002060000154811115610acf576040517f08c379a0000000000000000000000000000000000000000000000000000000008152600401610ac690611f65565b60405180910390fd5b610ad982336111ec565b600460003373ffffffffffffffffffffffffffffffffffffffff1673ffffffffffffffffffffffffffffffffffffffff16815260200190815260200160002060008473ffffffffffffffffffffffffffffffffffffffff1673ffffffffffffffffffffffffffffffffffffffff1681526020019081526020016000206001018190555080600460003373ffffffffffffffffffffffffffffffffffffffff1673ffffffffffffffffffffffffffffffffffffffff16815260200190815260200160002060008473ffffffffffffffffffffffffffffffffffffffff1673ffffffffffffffffffffffffffffffffffffffff1681526020019081526020016000206000016000828254610beb9190611f85565b9250508190555042600460003373ffffffffffffffffffffffffffffffffffffffff1673ffffffffffffffffffffffffffffffffffffffff16815260200190815260200160002060008473ffffffffffffffffffffffffffffffffffffffff1673ffffffffffffffffffffffffffffffffffffffff168152602001908152602001600020600201819055508173ffffffffffffffffffffffffffffffffffffffff1663a9059cbb33836040518363ffffffff167c0100000000000000000000000000000000000000000000000000000000028152600401610ccd929190611bd5565b6020604051808303816000875af1158015610cec573d6000803e3d6000fd5b505050506040513d601f19601f82011682018060405250810190610d109190611eec565b507f96fa08501b8c6ca7b150210f4d677db3f60a3d2f0c60f01baaa50feb214d6358823383604051610d4493929190611bfe565b60405180910390a15050565b610d58611291565b73ffffffffffffffffffffffffffffffffffffffff16610d76610595565b73ffffffffffffffffffffffffffffffffffffffff1614610dcc576040517f08c379a0000000000000000000000000000000000000000000000000000000008152600401610dc390611c81565b60405180910390fd5b6001600560008573ffffffffffffffffffffffffffffffffffffffff1673ffffffffffffffffffffffffffffffffffffffff16815260200190815260200160002060020160006101000a81548160ff02191690831515021790555083600560008573ffffffffffffffffffffffffffffffffffffffff1673ffffffffffffffffffffffffffffffffffffffff1681526020019081526020016000206000019080519060200190610e7d9291906115c4565b5080600560008573ffffffffffffffffffffffffffffffffffffffff1673ffffffffffffffffffffffffffffffffffffffff1681526020019081526020016000206001018190555081600560008573ffffffffffffffffffffffffffffffffffffffff1673ffffffffffffffffffffffffffffffffffffffff16815260200190815260200160002060020160016101000a81548173ffffffffffffffffffffffffffffffffffffffff021916908373ffffffffffffffffffffffffffffffffffffffff1602179055507f3e97ab69200e6bd239b39743d5fd994be05cd1124e3f24803258262dc0214c018383604051610f77929190611d79565b60405180910390a150505050565b610f8d611291565b73ffffffffffffffffffffffffffffffffffffffff16610fab610595565b73ffffffffffffffffffffffffffffffffffffffff1614611001576040517f08c379a0000000000000000000000000000000000000000000000000000000008152600401610ff890611c81565b60405180910390fd5b600073ffffffffffffffffffffffffffffffffffffffff168173ffffffffffffffffffffffffffffffffffffffff161415611071576040517f08c379a00000000000000000000000000000000000000000000000000000000081526004016110689061202b565b60405180910390fd5b61107a81611299565b50565b60056020528060005260406000206000915090508060000180546110a09061207a565b80601f01602080910402602001604051908101604052809291908181526020018280546110cc9061207a565b80156111195780601f106110ee57610100808354040283529160200191611119565b820191906000526020600020905b8154815290600101906020018083116110fc57829003601f168201915b5050505050908060010154908060020160009054906101000a900460ff16908060020160019054906101000a900473ffffffffffffffffffffffffffffffffffffffff16905084565b6000600460008373ffffffffffffffffffffffffffffffffffffffff1673ffffffffffffffffffffffffffffffffffffffff16815260200190815260200160002060008473ffffffffffffffffffffffffffffffffffffffff1673ffffffffffffffffffffffffffffffffffffffff16815260200190815260200160002060000154905092915050565b60006112896111fb848461135d565b600460008573ffffffffffffffffffffffffffffffffffffffff1673ffffffffffffffffffffffffffffffffffffffff16815260200190815260200160002060008673ffffffffffffffffffffffffffffffffffffffff1673ffffffffffffffffffffffffffffffffffffffff1681526020019081526020016000206001015461158290919063ffffffff16565b905092915050565b600033905090565b60008060009054906101000a900473ffffffffffffffffffffffffffffffffffffffff169050816000806101000a81548173ffffffffffffffffffffffffffffffffffffffff021916908373ffffffffffffffffffffffffffffffffffffffff1602179055508173ffffffffffffffffffffffffffffffffffffffff168173ffffffffffffffffffffffffffffffffffffffff167f8be0079c531659141344cd1fd0a4f28419497f9722a3daafe3b4186f6b6457e060405160405180910390a35050565b600080600460008473ffffffffffffffffffffffffffffffffffffffff1673ffffffffffffffffffffffffffffffffffffffff16815260200190815260200160002060008573ffffffffffffffffffffffffffffffffffffffff1673ffffffffffffffffffffffffffffffffffffffff1681526020019081526020016000206000015414156113ef576000905061157c565b6000600190506000600460008573ffffffffffffffffffffffffffffffffffffffff1673ffffffffffffffffffffffffffffffffffffffff16815260200190815260200160002060008673ffffffffffffffffffffffffffffffffffffffff1673ffffffffffffffffffffffffffffffffffffffff16815260200190815260200160002060020154426114829190611f85565b905060006114f1600560008873ffffffffffffffffffffffffffffffffffffffff1673ffffffffffffffffffffffffffffffffffffffff16815260200190815260200160002060020160019054906101000a900473ffffffffffffffffffffffffffffffffffffffff16610256565b905060008082136115025783611504565b815b90506000611524826115168a8a611162565b61159890919063ffffffff16565b9050611574606461156660025461155860035461154a8a8861159890919063ffffffff16565b6115ae90919063ffffffff16565b61159890919063ffffffff16565b6115ae90919063ffffffff16565b955050505050505b92915050565b600081836115909190611e6a565b905092915050565b600081836115a691906120ac565b905092915050565b600081836115bc9190612135565b905092915050565b8280546115d09061207a565b90600052602060002090601f0160209004810192826115f25760008555611639565b82601f1061160b57805160ff1916838001178555611639565b82800160010185558215611639579182015b8281111561163857825182559160200191906001019061161d565b5b509050611646919061164a565b5090565b5b8082111561166357600081600090555060010161164b565b5090565b6000604051905090565b600080fd5b600080fd5b600073ffffffffffffffffffffffffffffffffffffffff82169050919050565b60006116a68261167b565b9050919050565b6116b68161169b565b81146116c157600080fd5b50565b6000813590506116d3816116ad565b92915050565b6000602082840312156116ef576116ee611671565b5b60006116fd848285016116c4565b91505092915050565b6000819050919050565b61171981611706565b82525050565b60006020820190506117346000830184611710565b92915050565b6000819050919050565b61174d8161173a565b82525050565b60006020820190506117686000830184611744565b92915050565b6117778161169b565b82525050565b6000602082019050611792600083018461176e565b92915050565b6117a18161173a565b81146117ac57600080fd5b50565b6000813590506117be81611798565b92915050565b600080604083850312156117db576117da611671565b5b60006117e9858286016116c4565b92505060206117fa858286016117af565b9150509250929050565b60008115159050919050565b61181981611804565b82525050565b60006020820190506118346000830184611810565b92915050565b600080fd5b600080fd5b6000601f19601f8301169050919050565b7f4e487b7100000000000000000000000000000000000000000000000000000000600052604160045260246000fd5b61188d82611844565b810181811067ffffffffffffffff821117156118ac576118ab611855565b5b80604052505050565b60006118bf611667565b90506118cb8282611884565b919050565b600067ffffffffffffffff8211156118eb576118ea611855565b5b6118f482611844565b9050602081019050919050565b82818337600083830152505050565b600061192361191e846118d0565b6118b5565b90508281526020810184848401111561193f5761193e61183f565b5b61194a848285611901565b509392505050565b600082601f8301126119675761196661183a565b5b8135611977848260208601611910565b91505092915050565b6000806000806080858703121561199a57611999611671565b5b600085013567ffffffffffffffff8111156119b8576119b7611676565b5b6119c487828801611952565b94505060206119d5878288016116c4565b93505060406119e6878288016116c4565b92505060606119f7878288016117af565b91505092959194509250565b600081519050919050565b600082825260208201905092915050565b60005b83811015611a3d578082015181840152602081019050611a22565b83811115611a4c576000848401525b50505050565b6000611a5d82611a03565b611a678185611a0e565b9350611a77818560208601611a1f565b611a8081611844565b840191505092915050565b60006080820190508181036000830152611aa58187611a52565b9050611ab46020830186611744565b611ac16040830185611810565b611ace606083018461176e565b95945050505050565b600069ffffffffffffffffffff82169050919050565b611af681611ad7565b8114611b0157600080fd5b50565b600081519050611b1381611aed565b92915050565b611b2281611706565b8114611b2d57600080fd5b50565b600081519050611b3f81611b19565b92915050565b600081519050611b5481611798565b92915050565b600080600080600060a08688031215611b7657611b75611671565b5b6000611b8488828901611b04565b9550506020611b9588828901611b30565b9450506040611ba688828901611b45565b9350506060611bb788828901611b45565b9250506080611bc888828901611b04565b9150509295509295909350565b6000604082019050611bea600083018561176e565b611bf76020830184611744565b9392505050565b6000606082019050611c13600083018661176e565b611c20602083018561176e565b611c2d6040830184611744565b949350505050565b7f4f776e61626c653a2063616c6c6572206973206e6f7420746865206f776e6572600082015250565b6000611c6b602083611a0e565b9150611c7682611c35565b602082019050919050565b60006020820190508181036000830152611c9a81611c5e565b9050919050565b7f416d6f756e74206d7573742062652067726561746572207468616e2030000000600082015250565b6000611cd7601d83611a0e565b9150611ce282611ca1565b602082019050919050565b60006020820190508181036000830152611d0681611cca565b9050919050565b7f546f6b656e20746f207374616b65206e6f7420616c6c6f776564000000000000600082015250565b6000611d43601a83611a0e565b9150611d4e82611d0d565b602082019050919050565b60006020820190508181036000830152611d7281611d36565b9050919050565b6000604082019050611d8e600083018561176e565b611d9b602083018461176e565b9392505050565b600060208284031215611db857611db7611671565b5b6000611dc684828501611b45565b91505092915050565b7f546f6b656e20616c6c6f77616e6365206b6f0000000000000000000000000000600082015250565b6000611e05601283611a0e565b9150611e1082611dcf565b602082019050919050565b60006020820190508181036000830152611e3481611df8565b9050919050565b7f4e487b7100000000000000000000000000000000000000000000000000000000600052601160045260246000fd5b6000611e758261173a565b9150611e808361173a565b9250827fffffffffffffffffffffffffffffffffffffffffffffffffffffffffffffffff03821115611eb557611eb4611e3b565b5b828201905092915050565b611ec981611804565b8114611ed457600080fd5b50565b600081519050611ee681611ec0565b92915050565b600060208284031215611f0257611f01611671565b5b6000611f1084828501611ed7565b91505092915050565b7f496e73756666696369656e7420737461636b65642062616c616e636500000000600082015250565b6000611f4f601c83611a0e565b9150611f5a82611f19565b602082019050919050565b60006020820190508181036000830152611f7e81611f42565b9050919050565b6000611f908261173a565b9150611f9b8361173a565b925082821015611fae57611fad611e3b565b5b828203905092915050565b7f4f776e61626c653a206e6577206f776e657220697320746865207a65726f206160008201527f6464726573730000000000000000000000000000000000000000000000000000602082015250565b6000612015602683611a0e565b915061202082611fb9565b604082019050919050565b6000602082019050818103600083015261204481612008565b9050919050565b7f4e487b7100000000000000000000000000000000000000000000000000000000600052602260045260246000fd5b6000600282049050600182168061209257607f821691505b602082108114156120a6576120a561204b565b5b50919050565b60006120b78261173a565b91506120c28361173a565b9250817fffffffffffffffffffffffffffffffffffffffffffffffffffffffffffffffff04831182151516156120fb576120fa611e3b565b5b828202905092915050565b7f4e487b7100000000000000000000000000000000000000000000000000000000600052601260045260246000fd5b60006121408261173a565b915061214b8361173a565b92508261215b5761215a612106565b5b82820490509291505056fea2646970667358221220b3c825aab50e509258b2df08f2752105cde6dcf41aa63ca1d19cf59d27eb0e6964736f6c634300080c0033",
  "immutableReferences": {},
  "source": "// SPDX-License-Identifier: MIT\r\npragma solidity 0.8.12;\r\n\r\nimport \"@chainlink/contracts/src/v0.8/interfaces/AggregatorV3Interface.sol\";\r\nimport \"@openzeppelin/contracts/utils/math/SafeMath.sol\";\r\nimport \"@openzeppelin/contracts/token/ERC20/IERC20.sol\";\r\nimport \"@openzeppelin/contracts/access/Ownable.sol\";\r\nimport \"./MMT.sol\";\r\n\r\ncontract Stacking is Ownable {\r\n    using SafeMath for uint256;\r\n    //AggregatorV3Interface private priceConsumer;\r\n    MMT private rewardsToken;\r\n    uint256 private percentageReward;\r\n    uint256 private periodReward;\r\n\r\n    //userAddress > tokenAddress > staker\r\n    mapping(address => mapping(address => Staker)) stackers;\r\n    mapping(address => Pair) public pairs;\r\n\r\n    struct Staker {\r\n        uint256 balance;\r\n        uint256 rewards;\r\n        uint256 lastUpdate;\r\n    }\r\n\r\n    struct Pair {\r\n        string code;\r\n        uint decimal;\r\n        bool isEnabled;\r\n        address pairAddress;\r\n    }\r\n\r\n    event onStaking(address erc20Token, address stakerAddress, uint256 amountToStake);\r\n    event onUnstaking(address erc20Token, address stakerAddress, uint256 amountToUnstake);\r\n\tevent onWithdrawingRewards(address erc20Token, address stakerAddress, uint256 rewards);\r\n    event onAddingPairs(address erc20Token, address pairAddress);\r\n\r\n    //0x9326BFA02ADD2366b30bacB125260Af641031331 ETH/USD Kovan\r\n    constructor(address _mmtTokenAddress //address _aggregatorStackingAddress, \r\n                , uint256 _percentageReward, uint256 _periodRewardInSeconds) {\r\n        rewardsToken = MMT(_mmtTokenAddress);\r\n        percentageReward = _percentageReward; //1;\r\n        periodReward = _periodRewardInSeconds; //86400; //1 day\r\n    }\r\n\r\n    function addPair(string memory _code, address _erc20Token, address _pairAddress, uint256 _decimal) external onlyOwner() {\r\n        pairs[_erc20Token].isEnabled = true;\r\n        pairs[_erc20Token].code = _code;\r\n        pairs[_erc20Token].decimal = _decimal;\r\n        pairs[_erc20Token].pairAddress = _pairAddress;\r\n        emit onAddingPairs(_erc20Token, _pairAddress);\r\n    }\r\n\r\n    function stake(address _erc20Token, uint256 _amount) external returns(bool success) {\r\n        require(_amount > 0, \"Amount must be greater than 0\");\r\n        require(pairs[_erc20Token].isEnabled, \"Token to stake not allowed\");\r\n\r\n        uint256 allowance = IERC20(_erc20Token).allowance(msg.sender, address(this));\r\n        require(allowance >= _amount, \"Token allowance ko\");\r\n\r\n        stackers[msg.sender][_erc20Token].rewards = _getCurrentRewards(_erc20Token, msg.sender);\r\n        stackers[msg.sender][_erc20Token].lastUpdate = block.timestamp;\r\n        stackers[msg.sender][_erc20Token].balance += _amount;\r\n\r\n        //todo: revert if transfer fail\r\n\r\n        IERC20(_erc20Token).transferFrom(msg.sender, address(this), _amount);\r\n\r\n        emit onStaking(_erc20Token, msg.sender, _amount);\r\n        return true;\r\n    }\r\n\r\n    function getLatestPrice(address _pairAddress) public view returns (int256) {\r\n        AggregatorV3Interface priceConsumer = AggregatorV3Interface(_pairAddress);\r\n        (\r\n            /*uint80 roundID*/,\r\n            int price,\r\n            /*uint startedAt*/,\r\n            /*uint timeStamp*/,\r\n            /*uint80 answeredInRound*/\r\n        ) = priceConsumer.latestRoundData();\r\n        return price;\r\n        //return 1;\r\n    }  \r\n\r\n    function unstake(address _erc20Token, uint256 _amount) external {\r\n        require(_amount <= stackers[msg.sender][_erc20Token].balance, \"Insufficient stacked balance\");\r\n        \r\n        stackers[msg.sender][_erc20Token].rewards = _getCurrentRewards(_erc20Token, msg.sender);\r\n        stackers[msg.sender][_erc20Token].balance -= _amount;\r\n        stackers[msg.sender][_erc20Token].lastUpdate = block.timestamp;\r\n\r\n        IERC20(_erc20Token).transfer(msg.sender,_amount);\r\n        emit onUnstaking(_erc20Token, msg.sender, _amount);\r\n    }\r\n\r\n    function withdrawRewards(address _erc20Token) external {\r\n        uint256 rewards = _getCurrentRewards(_erc20Token, msg.sender);\r\n        stackers[msg.sender][_erc20Token].lastUpdate = block.timestamp;\r\n        stackers[msg.sender][_erc20Token].rewards = 0;\r\n        rewardsToken.mint(msg.sender, rewards);\r\n        emit onWithdrawingRewards(_erc20Token, msg.sender, rewards);\r\n    }\r\n\r\n    function getStakedBalance(address _erc20Token) external view returns (uint256) {\r\n        return _getStakedBalance(_erc20Token, msg.sender);\r\n    }\r\n\r\n    function getCurrentRewards(address _erc20Token) external view returns (uint256) {\r\n        return _getCurrentRewards(_erc20Token, msg.sender);\r\n    }\r\n\r\n    function _getStakedBalance(address _erc20Token, address account) private view returns (uint256) {\r\n        return stackers[account][_erc20Token].balance;\r\n    }  \r\n\r\n    function _getCurrentRewards(address _erc20Token, address account) private view returns (uint256) {\r\n        return stackers[account][_erc20Token].rewards.add(calculateRewards(_erc20Token, account));\r\n    }\r\n\r\n    function calculateRewards(address _erc20Token, address account) private view returns (uint256) {\r\n        if(stackers[account][_erc20Token].balance == 0) return 0;\r\n\r\n        int256 defaultLastPrice = 1;\r\n        uint256 deltaTimestamp = block.timestamp - stackers[account][_erc20Token].lastUpdate;\r\n        int256 lastPrice = getLatestPrice(pairs[_erc20Token].pairAddress);\r\n        // uint256 calculatedLastPrice = ((uint256)(lastPrice > 0 ? lastPrice : defaultLastPrice)).div(10**pairs[_erc20Token].decimal);\r\n        uint256 calculatedLastPrice = (uint256)(lastPrice > 0 ? lastPrice : defaultLastPrice);\r\n\r\n        uint256 rewardsAmount = _getStakedBalance(_erc20Token, account).mul(calculatedLastPrice);\r\n\r\n        return rewardsAmount.mul(deltaTimestamp).div(periodReward).mul(percentageReward).div(100);\r\n    } \r\n}",
  "sourcePath": "C:\\Users\\mdmou\\source\\repos\\Developpeur-Ethereum-Template\\7. Finance Dcentralise\\defi\\contracts\\Stacking.sol",
  "compiler": {
    "name": "solc",
    "version": "0.8.12+commit.f00d7308.Emscripten.clang"
  },
  "schemaVersion": "3.4.4",
  "updatedAt": "2022-04-18T06:02:35.271Z",
  "networkType": "ethereum",
  "devdoc": {
    "kind": "dev",
    "methods": {
      "owner()": {
        "details": "Returns the address of the current owner."
      },
      "renounceOwnership()": {
        "details": "Leaves the contract without owner. It will not be possible to call `onlyOwner` functions anymore. Can only be called by the current owner. NOTE: Renouncing ownership will leave the contract without an owner, thereby removing any functionality that is only available to the owner."
      },
      "transferOwnership(address)": {
        "details": "Transfers ownership of the contract to a new account (`newOwner`). Can only be called by the current owner."
      }
    },
    "version": 1
  },
  "userdoc": {
    "kind": "user",
    "methods": {},
    "version": 1
  }
}