{
  "contractName": "Stacking",
  "abi": [
    {
      "inputs": [
        {
          "internalType": "address",
          "name": "_mmtTokenAddress",
          "type": "address"
        },
        {
          "internalType": "uint256",
          "name": "_percentageReward",
          "type": "uint256"
        },
        {
          "internalType": "uint256",
          "name": "_periodRewardInSeconds",
          "type": "uint256"
        }
      ],
      "stateMutability": "nonpayable",
      "type": "constructor"
    },
    {
      "anonymous": false,
      "inputs": [
        {
          "indexed": true,
          "internalType": "address",
          "name": "previousOwner",
          "type": "address"
        },
        {
          "indexed": true,
          "internalType": "address",
          "name": "newOwner",
          "type": "address"
        }
      ],
      "name": "OwnershipTransferred",
      "type": "event"
    },
    {
      "anonymous": false,
      "inputs": [
        {
          "indexed": false,
          "internalType": "address",
          "name": "erc20Token",
          "type": "address"
        },
        {
          "indexed": false,
          "internalType": "address",
          "name": "pairAddress",
          "type": "address"
        }
      ],
      "name": "onAddingPairs",
      "type": "event"
    },
    {
      "anonymous": false,
      "inputs": [
        {
          "indexed": false,
          "internalType": "address",
          "name": "erc20Token",
          "type": "address"
        },
        {
          "indexed": false,
          "internalType": "address",
          "name": "stakerAddress",
          "type": "address"
        },
        {
          "indexed": false,
          "internalType": "uint256",
          "name": "amountToStake",
          "type": "uint256"
        }
      ],
      "name": "onStaking",
      "type": "event"
    },
    {
      "anonymous": false,
      "inputs": [
        {
          "indexed": false,
          "internalType": "address",
          "name": "erc20Token",
          "type": "address"
        },
        {
          "indexed": false,
          "internalType": "address",
          "name": "stakerAddress",
          "type": "address"
        },
        {
          "indexed": false,
          "internalType": "uint256",
          "name": "amountToUnstake",
          "type": "uint256"
        }
      ],
      "name": "onUnstaking",
      "type": "event"
    },
    {
      "anonymous": false,
      "inputs": [
        {
          "indexed": false,
          "internalType": "address",
          "name": "erc20Token",
          "type": "address"
        },
        {
          "indexed": false,
          "internalType": "address",
          "name": "stakerAddress",
          "type": "address"
        },
        {
          "indexed": false,
          "internalType": "uint256",
          "name": "rewards",
          "type": "uint256"
        }
      ],
      "name": "onWithdrawingRewards",
      "type": "event"
    },
    {
      "inputs": [],
      "name": "owner",
      "outputs": [
        {
          "internalType": "address",
          "name": "",
          "type": "address"
        }
      ],
      "stateMutability": "view",
      "type": "function",
      "constant": true
    },
    {
      "inputs": [
        {
          "internalType": "address",
          "name": "",
          "type": "address"
        }
      ],
      "name": "pairs",
      "outputs": [
        {
          "internalType": "string",
          "name": "code",
          "type": "string"
        },
        {
          "internalType": "uint256",
          "name": "decimal",
          "type": "uint256"
        },
        {
          "internalType": "bool",
          "name": "isEnabled",
          "type": "bool"
        },
        {
          "internalType": "address",
          "name": "pairAddress",
          "type": "address"
        }
      ],
      "stateMutability": "view",
      "type": "function",
      "constant": true
    },
    {
      "inputs": [],
      "name": "renounceOwnership",
      "outputs": [],
      "stateMutability": "nonpayable",
      "type": "function"
    },
    {
      "inputs": [],
      "name": "rewardsTokenAddress",
      "outputs": [
        {
          "internalType": "address",
          "name": "",
          "type": "address"
        }
      ],
      "stateMutability": "view",
      "type": "function",
      "constant": true
    },
    {
      "inputs": [
        {
          "internalType": "address",
          "name": "",
          "type": "address"
        },
        {
          "internalType": "address",
          "name": "",
          "type": "address"
        }
      ],
      "name": "stackers",
      "outputs": [
        {
          "internalType": "uint256",
          "name": "balance",
          "type": "uint256"
        },
        {
          "internalType": "uint256",
          "name": "rewards",
          "type": "uint256"
        },
        {
          "internalType": "uint256",
          "name": "lastUpdate",
          "type": "uint256"
        }
      ],
      "stateMutability": "view",
      "type": "function",
      "constant": true
    },
    {
      "inputs": [
        {
          "internalType": "address",
          "name": "newOwner",
          "type": "address"
        }
      ],
      "name": "transferOwnership",
      "outputs": [],
      "stateMutability": "nonpayable",
      "type": "function"
    },
    {
      "inputs": [
        {
          "internalType": "string",
          "name": "_code",
          "type": "string"
        },
        {
          "internalType": "address",
          "name": "_erc20Token",
          "type": "address"
        },
        {
          "internalType": "address",
          "name": "_pairAddress",
          "type": "address"
        },
        {
          "internalType": "uint256",
          "name": "_decimal",
          "type": "uint256"
        }
      ],
      "name": "addPair",
      "outputs": [],
      "stateMutability": "nonpayable",
      "type": "function"
    },
    {
      "inputs": [
        {
          "internalType": "address",
          "name": "_erc20Token",
          "type": "address"
        },
        {
          "internalType": "uint256",
          "name": "_amount",
          "type": "uint256"
        }
      ],
      "name": "stake",
      "outputs": [
        {
          "internalType": "bool",
          "name": "success",
          "type": "bool"
        }
      ],
      "stateMutability": "nonpayable",
      "type": "function"
    },
    {
      "inputs": [
        {
          "internalType": "address",
          "name": "_pairAddress",
          "type": "address"
        }
      ],
      "name": "getLatestPrice",
      "outputs": [
        {
          "internalType": "uint256",
          "name": "",
          "type": "uint256"
        }
      ],
      "stateMutability": "view",
      "type": "function",
      "constant": true
    },
    {
      "inputs": [
        {
          "internalType": "address",
          "name": "_erc20Token",
          "type": "address"
        },
        {
          "internalType": "uint256",
          "name": "_amount",
          "type": "uint256"
        }
      ],
      "name": "unstake",
      "outputs": [],
      "stateMutability": "nonpayable",
      "type": "function"
    },
    {
      "inputs": [
        {
          "internalType": "address",
          "name": "_erc20Token",
          "type": "address"
        }
      ],
      "name": "withdrawRewards",
      "outputs": [],
      "stateMutability": "nonpayable",
      "type": "function"
    },
    {
      "inputs": [
        {
          "internalType": "address",
          "name": "_erc20Token",
          "type": "address"
        }
      ],
      "name": "getStakedBalance",
      "outputs": [
        {
          "internalType": "uint256",
          "name": "",
          "type": "uint256"
        }
      ],
      "stateMutability": "view",
      "type": "function",
      "constant": true
    },
    {
      "inputs": [
        {
          "internalType": "address",
          "name": "_erc20Token",
          "type": "address"
        }
      ],
      "name": "getBalance",
      "outputs": [
        {
          "internalType": "uint256",
          "name": "",
          "type": "uint256"
        }
      ],
      "stateMutability": "view",
      "type": "function",
      "constant": true
    },
    {
      "inputs": [
        {
          "internalType": "address",
          "name": "_erc20Token",
          "type": "address"
        }
      ],
      "name": "getCurrentRewards",
      "outputs": [
        {
          "internalType": "uint256",
          "name": "",
          "type": "uint256"
        }
      ],
      "stateMutability": "view",
      "type": "function",
      "constant": true
    },
    {
      "inputs": [
        {
          "internalType": "address",
          "name": "_erc20Token",
          "type": "address"
        },
        {
          "internalType": "address",
          "name": "account",
          "type": "address"
        }
      ],
      "name": "calculateRewards",
      "outputs": [
        {
          "internalType": "uint256",
          "name": "",
          "type": "uint256"
        }
      ],
      "stateMutability": "view",
      "type": "function",
      "constant": true
    }
  ],
  "bytecode": "0x60806040523480156200001157600080fd5b50604051620027c3380380620027c3833981810160405281019062000037919062000232565b6200006962000054620000c1640100000000026401000000009004565b620000c9640100000000026401000000009004565b82600160006101000a81548173ffffffffffffffffffffffffffffffffffffffff021916908373ffffffffffffffffffffffffffffffffffffffff16021790555081600281905550806003819055505050506200028e565b600033905090565b60008060009054906101000a900473ffffffffffffffffffffffffffffffffffffffff169050816000806101000a81548173ffffffffffffffffffffffffffffffffffffffff021916908373ffffffffffffffffffffffffffffffffffffffff1602179055508173ffffffffffffffffffffffffffffffffffffffff168173ffffffffffffffffffffffffffffffffffffffff167f8be0079c531659141344cd1fd0a4f28419497f9722a3daafe3b4186f6b6457e060405160405180910390a35050565b600080fd5b600073ffffffffffffffffffffffffffffffffffffffff82169050919050565b6000620001bf8262000192565b9050919050565b620001d181620001b2565b8114620001dd57600080fd5b50565b600081519050620001f181620001c6565b92915050565b6000819050919050565b6200020c81620001f7565b81146200021857600080fd5b50565b6000815190506200022c8162000201565b92915050565b6000806000606084860312156200024e576200024d6200018d565b5b60006200025e86828701620001e0565b935050602062000271868287016200021b565b925050604062000284868287016200021b565b9150509250925092565b612525806200029e6000396000f3fe608060405234801561001057600080fd5b5060043610610111576000357c010000000000000000000000000000000000000000000000000000000090048063adc9772e116100b4578063e93793f611610083578063e93793f6146102b4578063f2fde38b146102d2578063f8b2cb4f146102ee578063fe33b3021461031e57610111565b8063adc9772e1461021c578063b2e14f8d1461024c578063c2a672e01461027c578063d4e368161461029857610111565b806342d86693116100f057806342d86693146101a6578063715018a6146101c257806383243289146101cc5780638da5cb5b146101fe57610111565b8062c9d5091461011657806316345f18146101465780633a02a42d14610176575b600080fd5b610130600480360381019061012b9190611903565b610351565b60405161013d919061195c565b60405180910390f35b610160600480360381019061015b9190611977565b610576565b60405161016d919061195c565b60405180910390f35b610190600480360381019061018b9190611977565b61062f565b60405161019d919061195c565b60405180910390f35b6101c060048036038101906101bb9190611977565b610642565b005b6101ca610843565b005b6101e660048036038101906101e19190611903565b6108cb565b6040516101f5939291906119a4565b60405180910390f35b610206610902565b60405161021391906119ea565b60405180910390f35b61023660048036038101906102319190611a31565b61092b565b6040516102439190611a8c565b60405180910390f35b61026660048036038101906102619190611977565b610d24565b604051610273919061195c565b60405180910390f35b61029660048036038101906102919190611a31565b610d37565b005b6102b260048036038101906102ad9190611bed565b61107a565b005b6102bc6112af565b6040516102c991906119ea565b60405180910390f35b6102ec60048036038101906102e79190611977565b6112d5565b005b61030860048036038101906103039190611977565b6113cd565b604051610315919061195c565b60405180910390f35b61033860048036038101906103339190611977565b6114cc565b6040516103489493929190611cf8565b60405180910390f35b600080600460008473ffffffffffffffffffffffffffffffffffffffff1673ffffffffffffffffffffffffffffffffffffffff16815260200190815260200160002060008573ffffffffffffffffffffffffffffffffffffffff1673ffffffffffffffffffffffffffffffffffffffff1681526020019081526020016000206000015414156103e35760009050610570565b6000600190506000600460008573ffffffffffffffffffffffffffffffffffffffff1673ffffffffffffffffffffffffffffffffffffffff16815260200190815260200160002060008673ffffffffffffffffffffffffffffffffffffffff1673ffffffffffffffffffffffffffffffffffffffff16815260200190815260200160002060020154426104769190611d73565b905060006104e5600560008873ffffffffffffffffffffffffffffffffffffffff1673ffffffffffffffffffffffffffffffffffffffff16815260200190815260200160002060020160019054906101000a900473ffffffffffffffffffffffffffffffffffffffff16610576565b905060008082116104f657836104f8565b815b905060006105188261050a8a8a6115b1565b61163b90919063ffffffff16565b9050610568606461055a60025461054c60035461053e8a8861163b90919063ffffffff16565b61165190919063ffffffff16565b61163b90919063ffffffff16565b61165190919063ffffffff16565b955050505050505b92915050565b60008082905060008173ffffffffffffffffffffffffffffffffffffffff1663feaf968c6040518163ffffffff167c010000000000000000000000000000000000000000000000000000000002815260040160a060405180830381865afa1580156105e5573d6000803e3d6000fd5b505050506040513d601f19601f820116820180604052508101906106099190611e34565b5050509150506106266305f5e1008261165190919063ffffffff16565b92505050919050565b600061063b82336115b1565b9050919050565b600061064e8233611667565b905042600460003373ffffffffffffffffffffffffffffffffffffffff1673ffffffffffffffffffffffffffffffffffffffff16815260200190815260200160002060008473ffffffffffffffffffffffffffffffffffffffff1673ffffffffffffffffffffffffffffffffffffffff168152602001908152602001600020600201819055506000600460003373ffffffffffffffffffffffffffffffffffffffff1673ffffffffffffffffffffffffffffffffffffffff16815260200190815260200160002060008473ffffffffffffffffffffffffffffffffffffffff1673ffffffffffffffffffffffffffffffffffffffff16815260200190815260200160002060010181905550600160009054906101000a900473ffffffffffffffffffffffffffffffffffffffff1673ffffffffffffffffffffffffffffffffffffffff166340c10f1933836040518363ffffffff167c01000000000000000000000000000000000000000000000000000000000281526004016107d2929190611eaf565b600060405180830381600087803b1580156107ec57600080fd5b505af1158015610800573d6000803e3d6000fd5b505050507f431d18cf14b98111ec133ea7045d9533d727088e4070da45a952d0871587142982338360405161083793929190611ed8565b60405180910390a15050565b61084b61170c565b73ffffffffffffffffffffffffffffffffffffffff16610869610902565b73ffffffffffffffffffffffffffffffffffffffff16146108bf576040517f08c379a00000000000000000000000000000000000000000000000000000000081526004016108b690611f5b565b60405180910390fd5b6108c96000611714565b565b6004602052816000526040600020602052806000526040600020600091509150508060000154908060010154908060020154905083565b60008060009054906101000a900473ffffffffffffffffffffffffffffffffffffffff16905090565b600080821161096f576040517f08c379a000000000000000000000000000000000000000000000000000000000815260040161096690611fc7565b60405180910390fd5b600560008473ffffffffffffffffffffffffffffffffffffffff1673ffffffffffffffffffffffffffffffffffffffff16815260200190815260200160002060020160009054906101000a900460ff166109fe576040517f08c379a00000000000000000000000000000000000000000000000000000000081526004016109f590612033565b60405180910390fd5b60008373ffffffffffffffffffffffffffffffffffffffff1663dd62ed3e33306040518363ffffffff167c0100000000000000000000000000000000000000000000000000000000028152600401610a57929190612053565b602060405180830381865afa158015610a74573d6000803e3d6000fd5b505050506040513d601f19601f82011682018060405250810190610a98919061207c565b9050610aa48433611667565b600460003373ffffffffffffffffffffffffffffffffffffffff1673ffffffffffffffffffffffffffffffffffffffff16815260200190815260200160002060008673ffffffffffffffffffffffffffffffffffffffff1673ffffffffffffffffffffffffffffffffffffffff1681526020019081526020016000206001018190555042600460003373ffffffffffffffffffffffffffffffffffffffff1673ffffffffffffffffffffffffffffffffffffffff16815260200190815260200160002060008673ffffffffffffffffffffffffffffffffffffffff1673ffffffffffffffffffffffffffffffffffffffff1681526020019081526020016000206002018190555082600460003373ffffffffffffffffffffffffffffffffffffffff1673ffffffffffffffffffffffffffffffffffffffff16815260200190815260200160002060008673ffffffffffffffffffffffffffffffffffffffff1673ffffffffffffffffffffffffffffffffffffffff1681526020019081526020016000206000016000828254610c3a91906120a9565b925050819055508373ffffffffffffffffffffffffffffffffffffffff166323b872dd3330866040518463ffffffff167c0100000000000000000000000000000000000000000000000000000000028152600401610c9a93929190611ed8565b6020604051808303816000875af1158015610cb9573d6000803e3d6000fd5b505050506040513d601f19601f82011682018060405250810190610cdd919061212b565b507f25b95f5f2561c1b3c407a0c6f2a9490387c70d9cd6ef843b6b9bdbaa9e800ad8843385604051610d1193929190611ed8565b60405180910390a1600191505092915050565b6000610d308233611667565b9050919050565b600460003373ffffffffffffffffffffffffffffffffffffffff1673ffffffffffffffffffffffffffffffffffffffff16815260200190815260200160002060008373ffffffffffffffffffffffffffffffffffffffff1673ffffffffffffffffffffffffffffffffffffffff16815260200190815260200160002060000154811115610df9576040517f08c379a0000000000000000000000000000000000000000000000000000000008152600401610df0906121a4565b60405180910390fd5b610e038233611667565b600460003373ffffffffffffffffffffffffffffffffffffffff1673ffffffffffffffffffffffffffffffffffffffff16815260200190815260200160002060008473ffffffffffffffffffffffffffffffffffffffff1673ffffffffffffffffffffffffffffffffffffffff1681526020019081526020016000206001018190555080600460003373ffffffffffffffffffffffffffffffffffffffff1673ffffffffffffffffffffffffffffffffffffffff16815260200190815260200160002060008473ffffffffffffffffffffffffffffffffffffffff1673ffffffffffffffffffffffffffffffffffffffff1681526020019081526020016000206000016000828254610f159190611d73565b9250508190555042600460003373ffffffffffffffffffffffffffffffffffffffff1673ffffffffffffffffffffffffffffffffffffffff16815260200190815260200160002060008473ffffffffffffffffffffffffffffffffffffffff1673ffffffffffffffffffffffffffffffffffffffff168152602001908152602001600020600201819055508173ffffffffffffffffffffffffffffffffffffffff1663a9059cbb33836040518363ffffffff167c0100000000000000000000000000000000000000000000000000000000028152600401610ff7929190611eaf565b6020604051808303816000875af1158015611016573d6000803e3d6000fd5b505050506040513d601f19601f8201168201806040525081019061103a919061212b565b507f96fa08501b8c6ca7b150210f4d677db3f60a3d2f0c60f01baaa50feb214d635882338360405161106e93929190611ed8565b60405180910390a15050565b61108261170c565b73ffffffffffffffffffffffffffffffffffffffff166110a0610902565b73ffffffffffffffffffffffffffffffffffffffff16146110f6576040517f08c379a00000000000000000000000000000000000000000000000000000000081526004016110ed90611f5b565b60405180910390fd5b6001600560008573ffffffffffffffffffffffffffffffffffffffff1673ffffffffffffffffffffffffffffffffffffffff16815260200190815260200160002060020160006101000a81548160ff02191690831515021790555083600560008573ffffffffffffffffffffffffffffffffffffffff1673ffffffffffffffffffffffffffffffffffffffff16815260200190815260200160002060000190805190602001906111a79291906117ee565b5080600560008573ffffffffffffffffffffffffffffffffffffffff1673ffffffffffffffffffffffffffffffffffffffff1681526020019081526020016000206001018190555081600560008573ffffffffffffffffffffffffffffffffffffffff1673ffffffffffffffffffffffffffffffffffffffff16815260200190815260200160002060020160016101000a81548173ffffffffffffffffffffffffffffffffffffffff021916908373ffffffffffffffffffffffffffffffffffffffff1602179055507f3e97ab69200e6bd239b39743d5fd994be05cd1124e3f24803258262dc0214c0183836040516112a1929190612053565b60405180910390a150505050565b600660009054906101000a900473ffffffffffffffffffffffffffffffffffffffff1681565b6112dd61170c565b73ffffffffffffffffffffffffffffffffffffffff166112fb610902565b73ffffffffffffffffffffffffffffffffffffffff1614611351576040517f08c379a000000000000000000000000000000000000000000000000000000000815260040161134890611f5b565b60405180910390fd5b600073ffffffffffffffffffffffffffffffffffffffff168173ffffffffffffffffffffffffffffffffffffffff1614156113c1576040517f08c379a00000000000000000000000000000000000000000000000000000000081526004016113b890612236565b60405180910390fd5b6113ca81611714565b50565b60006114c5600560008473ffffffffffffffffffffffffffffffffffffffff1673ffffffffffffffffffffffffffffffffffffffff16815260200190815260200160002060010154600a6114219190612389565b8373ffffffffffffffffffffffffffffffffffffffff166370a08231336040518263ffffffff167c010000000000000000000000000000000000000000000000000000000002815260040161147691906119ea565b602060405180830381865afa158015611493573d6000803e3d6000fd5b505050506040513d601f19601f820116820180604052508101906114b7919061207c565b61165190919063ffffffff16565b9050919050565b60056020528060005260406000206000915090508060000180546114ef90612403565b80601f016020809104026020016040519081016040528092919081815260200182805461151b90612403565b80156115685780601f1061153d57610100808354040283529160200191611568565b820191906000526020600020905b81548152906001019060200180831161154b57829003601f168201915b5050505050908060010154908060020160009054906101000a900460ff16908060020160019054906101000a900473ffffffffffffffffffffffffffffffffffffffff16905084565b6000600460008373ffffffffffffffffffffffffffffffffffffffff1673ffffffffffffffffffffffffffffffffffffffff16815260200190815260200160002060008473ffffffffffffffffffffffffffffffffffffffff1673ffffffffffffffffffffffffffffffffffffffff16815260200190815260200160002060000154905092915050565b600081836116499190612435565b905092915050565b6000818361165f91906124be565b905092915050565b60006117046116768484610351565b600460008573ffffffffffffffffffffffffffffffffffffffff1673ffffffffffffffffffffffffffffffffffffffff16815260200190815260200160002060008673ffffffffffffffffffffffffffffffffffffffff1673ffffffffffffffffffffffffffffffffffffffff168152602001908152602001600020600101546117d890919063ffffffff16565b905092915050565b600033905090565b60008060009054906101000a900473ffffffffffffffffffffffffffffffffffffffff169050816000806101000a81548173ffffffffffffffffffffffffffffffffffffffff021916908373ffffffffffffffffffffffffffffffffffffffff1602179055508173ffffffffffffffffffffffffffffffffffffffff168173ffffffffffffffffffffffffffffffffffffffff167f8be0079c531659141344cd1fd0a4f28419497f9722a3daafe3b4186f6b6457e060405160405180910390a35050565b600081836117e691906120a9565b905092915050565b8280546117fa90612403565b90600052602060002090601f01602090048101928261181c5760008555611863565b82601f1061183557805160ff1916838001178555611863565b82800160010185558215611863579182015b82811115611862578251825591602001919060010190611847565b5b5090506118709190611874565b5090565b5b8082111561188d576000816000905550600101611875565b5090565b6000604051905090565b600080fd5b600080fd5b600073ffffffffffffffffffffffffffffffffffffffff82169050919050565b60006118d0826118a5565b9050919050565b6118e0816118c5565b81146118eb57600080fd5b50565b6000813590506118fd816118d7565b92915050565b6000806040838503121561191a5761191961189b565b5b6000611928858286016118ee565b9250506020611939858286016118ee565b9150509250929050565b6000819050919050565b61195681611943565b82525050565b6000602082019050611971600083018461194d565b92915050565b60006020828403121561198d5761198c61189b565b5b600061199b848285016118ee565b91505092915050565b60006060820190506119b9600083018661194d565b6119c6602083018561194d565b6119d3604083018461194d565b949350505050565b6119e4816118c5565b82525050565b60006020820190506119ff60008301846119db565b92915050565b611a0e81611943565b8114611a1957600080fd5b50565b600081359050611a2b81611a05565b92915050565b60008060408385031215611a4857611a4761189b565b5b6000611a56858286016118ee565b9250506020611a6785828601611a1c565b9150509250929050565b60008115159050919050565b611a8681611a71565b82525050565b6000602082019050611aa16000830184611a7d565b92915050565b600080fd5b600080fd5b6000601f19601f8301169050919050565b7f4e487b7100000000000000000000000000000000000000000000000000000000600052604160045260246000fd5b611afa82611ab1565b810181811067ffffffffffffffff82111715611b1957611b18611ac2565b5b80604052505050565b6000611b2c611891565b9050611b388282611af1565b919050565b600067ffffffffffffffff821115611b5857611b57611ac2565b5b611b6182611ab1565b9050602081019050919050565b82818337600083830152505050565b6000611b90611b8b84611b3d565b611b22565b905082815260208101848484011115611bac57611bab611aac565b5b611bb7848285611b6e565b509392505050565b600082601f830112611bd457611bd3611aa7565b5b8135611be4848260208601611b7d565b91505092915050565b60008060008060808587031215611c0757611c0661189b565b5b600085013567ffffffffffffffff811115611c2557611c246118a0565b5b611c3187828801611bbf565b9450506020611c42878288016118ee565b9350506040611c53878288016118ee565b9250506060611c6487828801611a1c565b91505092959194509250565b600081519050919050565b600082825260208201905092915050565b60005b83811015611caa578082015181840152602081019050611c8f565b83811115611cb9576000848401525b50505050565b6000611cca82611c70565b611cd48185611c7b565b9350611ce4818560208601611c8c565b611ced81611ab1565b840191505092915050565b60006080820190508181036000830152611d128187611cbf565b9050611d21602083018661194d565b611d2e6040830185611a7d565b611d3b60608301846119db565b95945050505050565b7f4e487b7100000000000000000000000000000000000000000000000000000000600052601160045260246000fd5b6000611d7e82611943565b9150611d8983611943565b925082821015611d9c57611d9b611d44565b5b828203905092915050565b600069ffffffffffffffffffff82169050919050565b611dc681611da7565b8114611dd157600080fd5b50565b600081519050611de381611dbd565b92915050565b6000819050919050565b611dfc81611de9565b8114611e0757600080fd5b50565b600081519050611e1981611df3565b92915050565b600081519050611e2e81611a05565b92915050565b600080600080600060a08688031215611e5057611e4f61189b565b5b6000611e5e88828901611dd4565b9550506020611e6f88828901611e0a565b9450506040611e8088828901611e1f565b9350506060611e9188828901611e1f565b9250506080611ea288828901611dd4565b9150509295509295909350565b6000604082019050611ec460008301856119db565b611ed1602083018461194d565b9392505050565b6000606082019050611eed60008301866119db565b611efa60208301856119db565b611f07604083018461194d565b949350505050565b7f4f776e61626c653a2063616c6c6572206973206e6f7420746865206f776e6572600082015250565b6000611f45602083611c7b565b9150611f5082611f0f565b602082019050919050565b60006020820190508181036000830152611f7481611f38565b9050919050565b7f416d6f756e74206d7573742062652067726561746572207468616e2030000000600082015250565b6000611fb1601d83611c7b565b9150611fbc82611f7b565b602082019050919050565b60006020820190508181036000830152611fe081611fa4565b9050919050565b7f546f6b656e20746f207374616b65206e6f7420616c6c6f776564000000000000600082015250565b600061201d601a83611c7b565b915061202882611fe7565b602082019050919050565b6000602082019050818103600083015261204c81612010565b9050919050565b600060408201905061206860008301856119db565b61207560208301846119db565b9392505050565b6000602082840312156120925761209161189b565b5b60006120a084828501611e1f565b91505092915050565b60006120b482611943565b91506120bf83611943565b9250827fffffffffffffffffffffffffffffffffffffffffffffffffffffffffffffffff038211156120f4576120f3611d44565b5b828201905092915050565b61210881611a71565b811461211357600080fd5b50565b600081519050612125816120ff565b92915050565b6000602082840312156121415761214061189b565b5b600061214f84828501612116565b91505092915050565b7f496e73756666696369656e7420737461636b65642062616c616e636500000000600082015250565b600061218e601c83611c7b565b915061219982612158565b602082019050919050565b600060208201905081810360008301526121bd81612181565b9050919050565b7f4f776e61626c653a206e6577206f776e657220697320746865207a65726f206160008201527f6464726573730000000000000000000000000000000000000000000000000000602082015250565b6000612220602683611c7b565b915061222b826121c4565b604082019050919050565b6000602082019050818103600083015261224f81612213565b9050919050565b6000600282049050919050565b6000808291508390505b60018511156122ad5780860481111561228957612288611d44565b5b60018516156122985780820291505b80810290506122a685612256565b945061226d565b94509492505050565b6000826122c65760019050612382565b816122d45760009050612382565b81600181146122ea57600281146122f457612323565b6001915050612382565b60ff84111561230657612305611d44565b5b8360020a91508482111561231d5761231c611d44565b5b50612382565b5060208310610133831016604e8410600b84101617156123585782820a90508381111561235357612352611d44565b5b612382565b6123658484846001612263565b9250905081840481111561237c5761237b611d44565b5b81810290505b9392505050565b600061239482611943565b915061239f83611943565b92506123cc7fffffffffffffffffffffffffffffffffffffffffffffffffffffffffffffffff84846122b6565b905092915050565b7f4e487b7100000000000000000000000000000000000000000000000000000000600052602260045260246000fd5b6000600282049050600182168061241b57607f821691505b6020821081141561242f5761242e6123d4565b5b50919050565b600061244082611943565b915061244b83611943565b9250817fffffffffffffffffffffffffffffffffffffffffffffffffffffffffffffffff048311821515161561248457612483611d44565b5b828202905092915050565b7f4e487b7100000000000000000000000000000000000000000000000000000000600052601260045260246000fd5b60006124c982611943565b91506124d483611943565b9250826124e4576124e361248f565b5b82820490509291505056fea26469706673582212208176e1939356be87dcbbba6da1bb38a71663d9135b152a84bb9525b14e56059b64736f6c634300080c0033",
  "immutableReferences": {},
  "source": "// SPDX-License-Identifier: MIT\r\npragma solidity 0.8.12;\r\n\r\nimport \"@chainlink/contracts/src/v0.8/interfaces/AggregatorV3Interface.sol\";\r\nimport \"@openzeppelin/contracts/utils/math/SafeMath.sol\";\r\nimport \"@openzeppelin/contracts/token/ERC20/IERC20.sol\";\r\nimport \"@openzeppelin/contracts/access/Ownable.sol\";\r\nimport \"./MMT.sol\";\r\n\r\ncontract Stacking is Ownable {\r\n    using SafeMath for uint256;\r\n    //AggregatorV3Interface private priceConsumer;\r\n    MMT private rewardsToken;\r\n    uint256 private percentageReward;\r\n    uint256 private periodReward;\r\n\r\n    //userAddress > tokenAddress > staker\r\n    mapping(address => mapping(address => Staker)) public stackers;\r\n    mapping(address => Pair) public pairs;\r\n    address public rewardsTokenAddress;\r\n\r\n    struct Staker {\r\n        uint256 balance;\r\n        uint256 rewards;\r\n        uint256 lastUpdate;\r\n    }\r\n\r\n    struct Pair {\r\n        string code;\r\n        uint decimal;\r\n        bool isEnabled;\r\n        address pairAddress;\r\n    }\r\n\r\n    event onStaking(address erc20Token, address stakerAddress, uint256 amountToStake);\r\n    event onUnstaking(address erc20Token, address stakerAddress, uint256 amountToUnstake);\r\n\tevent onWithdrawingRewards(address erc20Token, address stakerAddress, uint256 rewards);\r\n    event onAddingPairs(address erc20Token, address pairAddress);\r\n\r\n    //0x9326BFA02ADD2366b30bacB125260Af641031331 ETH/USD Kovan\r\n    constructor(address _mmtTokenAddress //address _aggregatorStackingAddress, \r\n                , uint256 _percentageReward, uint256 _periodRewardInSeconds) {\r\n        rewardsToken = MMT(_mmtTokenAddress);\r\n        percentageReward = _percentageReward; //1;\r\n        periodReward = _periodRewardInSeconds; //86400; //1 day\r\n    }\r\n\r\n    function addPair(string memory _code, address _erc20Token, address _pairAddress, uint256 _decimal) external onlyOwner() {\r\n        pairs[_erc20Token].isEnabled = true;\r\n        pairs[_erc20Token].code = _code;\r\n        pairs[_erc20Token].decimal = _decimal;\r\n        pairs[_erc20Token].pairAddress = _pairAddress;\r\n        emit onAddingPairs(_erc20Token, _pairAddress);\r\n    }\r\n\r\n    function stake(address _erc20Token, uint256 _amount) external returns(bool success) {\r\n        require(_amount > 0, \"Amount must be greater than 0\");\r\n        require(pairs[_erc20Token].isEnabled, \"Token to stake not allowed\");\r\n\r\n        uint256 allowance = IERC20(_erc20Token).allowance(msg.sender, address(this));\r\n        //require(allowance >= _amount, \"Token allowance ko\");\r\n\r\n        stackers[msg.sender][_erc20Token].rewards = _getCurrentRewards(_erc20Token, msg.sender);\r\n        stackers[msg.sender][_erc20Token].lastUpdate = block.timestamp;\r\n        stackers[msg.sender][_erc20Token].balance += _amount;\r\n\r\n        //todo: revert if transfer fail\r\n\r\n        IERC20(_erc20Token).transferFrom(msg.sender, address(this), _amount);\r\n\r\n        emit onStaking(_erc20Token, msg.sender, _amount);\r\n        return true;\r\n    }\r\n\r\n    function getLatestPrice(address _pairAddress) public view returns (uint256) {\r\n        AggregatorV3Interface priceConsumer = AggregatorV3Interface(_pairAddress);\r\n        (\r\n            /*uint80 roundID*/,\r\n            int price,\r\n            /*uint startedAt*/,\r\n            /*uint timeStamp*/,\r\n            /*uint80 answeredInRound*/\r\n        ) = priceConsumer.latestRoundData();\r\n        return ((uint256)(price)).div(10**8);\r\n    }  \r\n\r\n    function unstake(address _erc20Token, uint256 _amount) external {\r\n        require(_amount <= stackers[msg.sender][_erc20Token].balance, \"Insufficient stacked balance\");\r\n        \r\n        stackers[msg.sender][_erc20Token].rewards = _getCurrentRewards(_erc20Token, msg.sender);\r\n        stackers[msg.sender][_erc20Token].balance -= _amount;\r\n        stackers[msg.sender][_erc20Token].lastUpdate = block.timestamp;\r\n\r\n        IERC20(_erc20Token).transfer(msg.sender,_amount);\r\n        emit onUnstaking(_erc20Token, msg.sender, _amount);\r\n    }\r\n\r\n    function withdrawRewards(address _erc20Token) external {\r\n        uint256 rewards = _getCurrentRewards(_erc20Token, msg.sender);\r\n        stackers[msg.sender][_erc20Token].lastUpdate = block.timestamp;\r\n        stackers[msg.sender][_erc20Token].rewards = 0;\r\n        rewardsToken.mint(msg.sender, rewards);\r\n        emit onWithdrawingRewards(_erc20Token, msg.sender, rewards);\r\n    }\r\n\r\n    function getStakedBalance(address _erc20Token) external view returns (uint256) {\r\n        return _getStakedBalance(_erc20Token, msg.sender);\r\n    }\r\n\r\n    function getBalance(address _erc20Token) external view returns (uint256) {\r\n        return IERC20(_erc20Token).balanceOf(msg.sender).div(10**pairs[_erc20Token].decimal);\r\n    }\r\n\r\n    function getCurrentRewards(address _erc20Token) external view returns (uint256) {\r\n        return _getCurrentRewards(_erc20Token, msg.sender);\r\n    }\r\n\r\n    function _getStakedBalance(address _erc20Token, address account) private view returns (uint256) {\r\n        return stackers[account][_erc20Token].balance;\r\n    }  \r\n\r\n    function _getCurrentRewards(address _erc20Token, address account) private view returns (uint256) {\r\n        return stackers[account][_erc20Token].rewards.add(calculateRewards(_erc20Token, account));\r\n    }\r\n\r\n    function calculateRewards(address _erc20Token, address account) public view returns (uint256) {\r\n        if(stackers[account][_erc20Token].balance == 0) return 0;\r\n\r\n        uint256 defaultLastPrice = 1;\r\n        uint256 deltaTimestamp = block.timestamp - stackers[account][_erc20Token].lastUpdate;\r\n        uint256 lastPrice = getLatestPrice(pairs[_erc20Token].pairAddress);\r\n        //uint256 calculatedLastPrice = ((uint256)(lastPrice > 0 ? lastPrice : defaultLastPrice)).div(10**pairs[_erc20Token].decimal);\r\n        uint256 calculatedLastPrice = (lastPrice > 0 ? lastPrice : defaultLastPrice);\r\n\r\n        uint256 rewardsAmount = _getStakedBalance(_erc20Token, account).mul(calculatedLastPrice);\r\n\r\n        return rewardsAmount.mul(deltaTimestamp).div(periodReward).mul(percentageReward).div(100);\r\n    } \r\n}",
  "sourcePath": "C:\\Users\\mdmou\\source\\repos\\Developpeur-Ethereum-Template\\7. Finance Dcentralise\\defi\\contracts\\Stacking.sol",
  "compiler": {
    "name": "solc",
    "version": "0.8.12+commit.f00d7308.Emscripten.clang"
  },
  "schemaVersion": "3.4.4",
  "updatedAt": "2022-04-18T22:16:37.467Z",
  "networkType": "ethereum",
  "devdoc": {
    "kind": "dev",
    "methods": {
      "owner()": {
        "details": "Returns the address of the current owner."
      },
      "renounceOwnership()": {
        "details": "Leaves the contract without owner. It will not be possible to call `onlyOwner` functions anymore. Can only be called by the current owner. NOTE: Renouncing ownership will leave the contract without an owner, thereby removing any functionality that is only available to the owner."
      },
      "transferOwnership(address)": {
        "details": "Transfers ownership of the contract to a new account (`newOwner`). Can only be called by the current owner."
      }
    },
    "version": 1
  },
  "userdoc": {
    "kind": "user",
    "methods": {},
    "version": 1
  }
}