{
  "contractName": "Staking",
  "abi": [
    {
      "inputs": [
        {
          "internalType": "address",
          "name": "aggregatorStackingAddress",
          "type": "address"
        },
        {
          "internalType": "contract MMT",
          "name": "mmtToken",
          "type": "address"
        }
      ],
      "stateMutability": "nonpayable",
      "type": "constructor"
    },
    {
      "anonymous": false,
      "inputs": [
        {
          "indexed": false,
          "internalType": "address",
          "name": "stakerAddress",
          "type": "address"
        },
        {
          "indexed": false,
          "internalType": "uint256",
          "name": "amountToStake",
          "type": "uint256"
        }
      ],
      "name": "onStaking",
      "type": "event"
    },
    {
      "anonymous": false,
      "inputs": [
        {
          "indexed": false,
          "internalType": "address",
          "name": "stakerAddress",
          "type": "address"
        },
        {
          "indexed": false,
          "internalType": "uint256",
          "name": "amountToUnstake",
          "type": "uint256"
        }
      ],
      "name": "onUnstaking",
      "type": "event"
    },
    {
      "anonymous": false,
      "inputs": [
        {
          "indexed": false,
          "internalType": "address",
          "name": "stakerAddress",
          "type": "address"
        },
        {
          "indexed": false,
          "internalType": "uint256",
          "name": "rewards",
          "type": "uint256"
        }
      ],
      "name": "onWithdrawingRewards",
      "type": "event"
    },
    {
      "inputs": [],
      "name": "getLatestPrice",
      "outputs": [
        {
          "internalType": "int256",
          "name": "",
          "type": "int256"
        }
      ],
      "stateMutability": "view",
      "type": "function",
      "constant": true
    },
    {
      "inputs": [],
      "name": "stake",
      "outputs": [],
      "stateMutability": "payable",
      "type": "function",
      "payable": true
    },
    {
      "inputs": [
        {
          "internalType": "uint256",
          "name": "_amount",
          "type": "uint256"
        }
      ],
      "name": "unstake",
      "outputs": [],
      "stateMutability": "nonpayable",
      "type": "function"
    },
    {
      "inputs": [],
      "name": "withdrawRewards",
      "outputs": [],
      "stateMutability": "nonpayable",
      "type": "function"
    },
    {
      "inputs": [],
      "name": "getStakedBalance",
      "outputs": [
        {
          "internalType": "uint256",
          "name": "",
          "type": "uint256"
        }
      ],
      "stateMutability": "view",
      "type": "function",
      "constant": true
    },
    {
      "inputs": [],
      "name": "getCurrentRewards",
      "outputs": [
        {
          "internalType": "uint256",
          "name": "",
          "type": "uint256"
        }
      ],
      "stateMutability": "view",
      "type": "function",
      "constant": true
    }
  ],
  "bytecode": "0x60806040523480156200001157600080fd5b5060405162000f0838038062000f08833981810160405281019062000037919062000181565b816000806101000a81548173ffffffffffffffffffffffffffffffffffffffff021916908373ffffffffffffffffffffffffffffffffffffffff16021790555080600160006101000a81548173ffffffffffffffffffffffffffffffffffffffff021916908373ffffffffffffffffffffffffffffffffffffffff1602179055506001600281905550620151806003819055505050620001c8565b600080fd5b600073ffffffffffffffffffffffffffffffffffffffff82169050919050565b60006200010482620000d7565b9050919050565b6200011681620000f7565b81146200012257600080fd5b50565b60008151905062000136816200010b565b92915050565b60006200014982620000f7565b9050919050565b6200015b816200013c565b81146200016757600080fd5b50565b6000815190506200017b8162000150565b92915050565b600080604083850312156200019b576200019a620000d2565b5b6000620001ab8582860162000125565b9250506020620001be858286016200016a565b9150509250929050565b610d3080620001d86000396000f3fe608060405260043610610072576000357c0100000000000000000000000000000000000000000000000000000000900480632e17de78146100775780633a4b66f1146100a05780633efe1ff9146100aa57806376965867146100d55780638e15f47314610100578063c7b8981c1461012b575b600080fd5b34801561008357600080fd5b5061009e600480360381019061009991906108ab565b610142565b005b6100a86102a3565b005b3480156100b657600080fd5b506100bf610410565b6040516100cc91906108e7565b60405180910390f35b3480156100e157600080fd5b506100ea610420565b6040516100f791906108e7565b60405180910390f35b34801561010c57600080fd5b50610115610430565b604051610122919061091b565b60405180910390f35b34801561013757600080fd5b506101406104eb565b005b600460003373ffffffffffffffffffffffffffffffffffffffff1673ffffffffffffffffffffffffffffffffffffffff168152602001908152602001600020600001548111156101c7576040517f08c379a00000000000000000000000000000000000000000000000000000000081526004016101be90610993565b60405180910390fd5b80600460003373ffffffffffffffffffffffffffffffffffffffff1673ffffffffffffffffffffffffffffffffffffffff168152602001908152602001600020600001600082825461021991906109e2565b925050819055503373ffffffffffffffffffffffffffffffffffffffff166108fc829081150290604051600060405180830381858888f19350505050158015610266573d6000803e3d6000fd5b507fda2a9ec0f89abe9b811681c1b44c7da4470e8eabbcd76a6165854300ae3f6eef3382604051610298929190610a57565b60405180910390a150565b600034116102e6576040517f08c379a00000000000000000000000000000000000000000000000000000000081526004016102dd90610acc565b60405180910390fd5b6102ef3361066e565b600460003373ffffffffffffffffffffffffffffffffffffffff1673ffffffffffffffffffffffffffffffffffffffff1681526020019081526020016000206001018190555042600460003373ffffffffffffffffffffffffffffffffffffffff1673ffffffffffffffffffffffffffffffffffffffff1681526020019081526020016000206002018190555034600460003373ffffffffffffffffffffffffffffffffffffffff1673ffffffffffffffffffffffffffffffffffffffff16815260200190815260200160002060000160008282546103ce9190610aec565b925050819055507ffa416ac51f6e5a4f478b56de7aa6a27b5537f400b0b6e12e2947fb9989af56663334604051610406929190610a57565b60405180910390a1565b600061041b33610799565b905090565b600061042b336107f8565b905090565b60008060008054906101000a900473ffffffffffffffffffffffffffffffffffffffff1673ffffffffffffffffffffffffffffffffffffffff1663feaf968c6040518163ffffffff167c010000000000000000000000000000000000000000000000000000000002815260040160a060405180830381865afa1580156104ba573d6000803e3d6000fd5b505050506040513d601f19601f820116820180604052508101906104de9190610bc5565b5050509150508091505090565b60006104f633610799565b905042600460003373ffffffffffffffffffffffffffffffffffffffff1673ffffffffffffffffffffffffffffffffffffffff168152602001908152602001600020600201819055506000600460003373ffffffffffffffffffffffffffffffffffffffff1673ffffffffffffffffffffffffffffffffffffffff16815260200190815260200160002060010181905550600160009054906101000a900473ffffffffffffffffffffffffffffffffffffffff1673ffffffffffffffffffffffffffffffffffffffff166340c10f1933836040518363ffffffff167c0100000000000000000000000000000000000000000000000000000000028152600401610600929190610a57565b600060405180830381600087803b15801561061a57600080fd5b505af115801561062e573d6000803e3d6000fd5b505050507fd6df7f499f403117ac50600b66b1f52ef3da0c144fded8fbb34432db3f019ae63382604051610663929190610a57565b60405180910390a150565b600080600460008473ffffffffffffffffffffffffffffffffffffffff1673ffffffffffffffffffffffffffffffffffffffff1681526020019081526020016000206000015414156106c35760009050610794565b6000600460008473ffffffffffffffffffffffffffffffffffffffff1673ffffffffffffffffffffffffffffffffffffffff168152602001908152602001600020600201544261071391906109e2565b9050600061071f610430565b9050600061073e82610730876107f8565b61084490919063ffffffff16565b905061078e6064610780600254610772600354610764898861084490919063ffffffff16565b61085a90919063ffffffff16565b61084490919063ffffffff16565b61085a90919063ffffffff16565b93505050505b919050565b60006107a48261066e565b600460008473ffffffffffffffffffffffffffffffffffffffff1673ffffffffffffffffffffffffffffffffffffffff168152602001908152602001600020600101546107f19190610aec565b9050919050565b6000600460008373ffffffffffffffffffffffffffffffffffffffff1673ffffffffffffffffffffffffffffffffffffffff168152602001908152602001600020600001549050919050565b600081836108529190610c40565b905092915050565b600081836108689190610cc9565b905092915050565b600080fd5b6000819050919050565b61088881610875565b811461089357600080fd5b50565b6000813590506108a58161087f565b92915050565b6000602082840312156108c1576108c0610870565b5b60006108cf84828501610896565b91505092915050565b6108e181610875565b82525050565b60006020820190506108fc60008301846108d8565b92915050565b6000819050919050565b61091581610902565b82525050565b6000602082019050610930600083018461090c565b92915050565b600082825260208201905092915050565b7f496e73756666696369656e7420737461636b65642062616c616e636500000000600082015250565b600061097d601c83610936565b915061098882610947565b602082019050919050565b600060208201905081810360008301526109ac81610970565b9050919050565b7f4e487b7100000000000000000000000000000000000000000000000000000000600052601160045260246000fd5b60006109ed82610875565b91506109f883610875565b925082821015610a0b57610a0a6109b3565b5b828203905092915050565b600073ffffffffffffffffffffffffffffffffffffffff82169050919050565b6000610a4182610a16565b9050919050565b610a5181610a36565b82525050565b6000604082019050610a6c6000830185610a48565b610a7960208301846108d8565b9392505050565b7f43616e6e6f74207374616b652030000000000000000000000000000000000000600082015250565b6000610ab6600e83610936565b9150610ac182610a80565b602082019050919050565b60006020820190508181036000830152610ae581610aa9565b9050919050565b6000610af782610875565b9150610b0283610875565b9250827fffffffffffffffffffffffffffffffffffffffffffffffffffffffffffffffff03821115610b3757610b366109b3565b5b828201905092915050565b600069ffffffffffffffffffff82169050919050565b610b6181610b42565b8114610b6c57600080fd5b50565b600081519050610b7e81610b58565b92915050565b610b8d81610902565b8114610b9857600080fd5b50565b600081519050610baa81610b84565b92915050565b600081519050610bbf8161087f565b92915050565b600080600080600060a08688031215610be157610be0610870565b5b6000610bef88828901610b6f565b9550506020610c0088828901610b9b565b9450506040610c1188828901610bb0565b9350506060610c2288828901610bb0565b9250506080610c3388828901610b6f565b9150509295509295909350565b6000610c4b82610875565b9150610c5683610875565b9250817fffffffffffffffffffffffffffffffffffffffffffffffffffffffffffffffff0483118215151615610c8f57610c8e6109b3565b5b828202905092915050565b7f4e487b7100000000000000000000000000000000000000000000000000000000600052601260045260246000fd5b6000610cd482610875565b9150610cdf83610875565b925082610cef57610cee610c9a565b5b82820490509291505056fea264697066735822122056c90ece555534fa3e5699f8486c143f7bbe0776a25c23c9dd2701e98e51968664736f6c634300080c0033",
  "immutableReferences": {},
  "source": "// SPDX-License-Identifier: MIT\r\npragma solidity 0.8.12;\r\n\r\nimport \"@chainlink/contracts/src/v0.8/interfaces/AggregatorV3Interface.sol\";\r\nimport \"@openzeppelin/contracts/utils/math/SafeMath.sol\";\r\nimport \"@openzeppelin/contracts/token/ERC20/IERC20.sol\";\r\nimport \"./MMT.sol\";\r\n\r\ncontract Staking  {\r\n    using SafeMath for uint256;\r\n\r\n    AggregatorV3Interface private priceConsumer;\r\n    MMT private rewardsToken;\r\n    uint256 private percentageReward;\r\n    uint256 private periodReward;\r\n\r\n    mapping(address => Stacker) private stackers;\r\n\r\n    struct Stacker {\r\n        uint256 balance;\r\n        uint256 rewards;\r\n        uint256 lastUpdate;\r\n    }\r\n\r\n    event onStaking(address stakerAddress, uint256 amountToStake);\r\n    event onUnstaking(address stakerAddress, uint256 amountToUnstake);\r\n\tevent onWithdrawingRewards(address stakerAddress, uint256 rewards);\r\n\r\n    //0x9326BFA02ADD2366b30bacB125260Af641031331 ETH/USD Kovan\r\n    constructor(address aggregatorStackingAddress, MMT mmtToken) {\r\n        priceConsumer = AggregatorV3Interface(aggregatorStackingAddress);\r\n        rewardsToken = mmtToken;\r\n        percentageReward = 1;\r\n        periodReward = 86400; //1 day\r\n    }\r\n\r\n    function getLatestPrice() public view returns (int256) {\r\n        (\r\n            /*uint80 roundID*/,\r\n            int price,\r\n            /*uint startedAt*/,\r\n            /*uint timeStamp*/,\r\n            /*uint80 answeredInRound*/\r\n        ) = priceConsumer.latestRoundData();\r\n        return price;\r\n    }  \r\n\r\n    function stake() external payable {\r\n        require(msg.value > 0, \"Cannot stake 0\");\r\n        stackers[msg.sender].rewards = getRewards(msg.sender);\r\n        stackers[msg.sender].lastUpdate = block.timestamp;\r\n        stackers[msg.sender].balance += msg.value;\r\n        emit onStaking(msg.sender, msg.value);\r\n    }\r\n\r\n    function unstake(uint256 _amount) external {\r\n        require(_amount <= stackers[msg.sender].balance, \"Insufficient stacked balance\");\r\n        stackers[msg.sender].balance -= _amount;\r\n        payable(msg.sender).transfer(_amount);\r\n        emit onUnstaking(msg.sender, _amount);\r\n    }\r\n\r\n    function withdrawRewards() external {\r\n        uint256 rewards = _getCurrentRewards(msg.sender);\r\n        stackers[msg.sender].lastUpdate = block.timestamp;\r\n        stackers[msg.sender].rewards = 0;\r\n        rewardsToken.mint(msg.sender, rewards);\r\n        emit onWithdrawingRewards(msg.sender, rewards);\r\n    }\r\n\r\n    function getStakedBalance() public view returns (uint256) {\r\n        return _getStakedBalance(msg.sender);\r\n    }\r\n\r\n    function getCurrentRewards() public view returns (uint256) {\r\n        return _getCurrentRewards(msg.sender);\r\n    }\r\n\r\n    function _getStakedBalance(address account) private view returns (uint256) {\r\n        return stackers[account].balance;\r\n    }  \r\n\r\n    function _getCurrentRewards(address account) private view returns (uint256) {\r\n        return stackers[account].rewards + getRewards(account);\r\n    }\r\n\r\n    function getRewards(address account) private view returns (uint256) {\r\n        if(stackers[account].balance == 0) return 0;\r\n\r\n        uint256 deltaTimestamp = block.timestamp - stackers[account].lastUpdate;\r\n        int256 lastPrice = getLatestPrice();\r\n\r\n        uint256 rewardsAmount = _getStakedBalance(account).mul(uint256(lastPrice));\r\n\r\n        return rewardsAmount.mul(deltaTimestamp).div(periodReward).mul(percentageReward).div(100);\r\n    } \r\n}",
  "sourcePath": "C:\\Users\\mdmou\\source\\repos\\Developpeur-Ethereum-Template\\7. finance dcentralise\\defi\\contracts\\Stacking.sol",
  "compiler": {
    "name": "solc",
    "version": "0.8.12+commit.f00d7308.Emscripten.clang"
  },
  "schemaVersion": "3.4.4",
  "updatedAt": "2022-03-28T21:34:26.264Z",
  "networkType": "ethereum",
  "devdoc": {
    "kind": "dev",
    "methods": {},
    "version": 1
  },
  "userdoc": {
    "kind": "user",
    "methods": {},
    "version": 1
  }
}