{
  "contractName": "Voting",
  "abi": [
    {
      "anonymous": false,
      "inputs": [
        {
          "indexed": true,
          "internalType": "address",
          "name": "previousOwner",
          "type": "address"
        },
        {
          "indexed": true,
          "internalType": "address",
          "name": "newOwner",
          "type": "address"
        }
      ],
      "name": "OwnershipTransferred",
      "type": "event"
    },
    {
      "anonymous": false,
      "inputs": [
        {
          "indexed": false,
          "internalType": "uint256",
          "name": "proposalId",
          "type": "uint256"
        }
      ],
      "name": "ProposalRegistered",
      "type": "event"
    },
    {
      "anonymous": false,
      "inputs": [
        {
          "indexed": false,
          "internalType": "address",
          "name": "voter",
          "type": "address"
        },
        {
          "indexed": false,
          "internalType": "uint256",
          "name": "proposalId",
          "type": "uint256"
        }
      ],
      "name": "Voted",
      "type": "event"
    },
    {
      "anonymous": false,
      "inputs": [
        {
          "indexed": false,
          "internalType": "address",
          "name": "voterAddress",
          "type": "address"
        }
      ],
      "name": "VoterRegistered",
      "type": "event"
    },
    {
      "anonymous": false,
      "inputs": [
        {
          "indexed": false,
          "internalType": "enum Voting.WorkflowStatus",
          "name": "previousStatus",
          "type": "uint8"
        },
        {
          "indexed": false,
          "internalType": "enum Voting.WorkflowStatus",
          "name": "newStatus",
          "type": "uint8"
        }
      ],
      "name": "WorkflowStatusChanged",
      "type": "event"
    },
    {
      "inputs": [],
      "name": "owner",
      "outputs": [
        {
          "internalType": "address",
          "name": "",
          "type": "address"
        }
      ],
      "stateMutability": "view",
      "type": "function",
      "constant": true
    },
    {
      "inputs": [
        {
          "internalType": "uint256",
          "name": "",
          "type": "uint256"
        }
      ],
      "name": "proposals",
      "outputs": [
        {
          "internalType": "string",
          "name": "description",
          "type": "string"
        },
        {
          "internalType": "uint256",
          "name": "voteCount",
          "type": "uint256"
        }
      ],
      "stateMutability": "view",
      "type": "function",
      "constant": true
    },
    {
      "inputs": [],
      "name": "renounceOwnership",
      "outputs": [],
      "stateMutability": "nonpayable",
      "type": "function"
    },
    {
      "inputs": [
        {
          "internalType": "address",
          "name": "newOwner",
          "type": "address"
        }
      ],
      "name": "transferOwnership",
      "outputs": [],
      "stateMutability": "nonpayable",
      "type": "function"
    },
    {
      "inputs": [
        {
          "internalType": "address",
          "name": "",
          "type": "address"
        }
      ],
      "name": "voters",
      "outputs": [
        {
          "internalType": "bool",
          "name": "isRegistered",
          "type": "bool"
        },
        {
          "internalType": "bool",
          "name": "hasVoted",
          "type": "bool"
        },
        {
          "internalType": "uint256",
          "name": "votedProposalId",
          "type": "uint256"
        }
      ],
      "stateMutability": "view",
      "type": "function",
      "constant": true
    },
    {
      "inputs": [],
      "name": "getWinner",
      "outputs": [
        {
          "internalType": "uint256",
          "name": "winnerProposalId",
          "type": "uint256"
        },
        {
          "internalType": "string",
          "name": "winnerProposalDescription",
          "type": "string"
        },
        {
          "internalType": "uint256",
          "name": "winnerVoteCount",
          "type": "uint256"
        }
      ],
      "stateMutability": "view",
      "type": "function",
      "constant": true
    },
    {
      "inputs": [
        {
          "internalType": "address",
          "name": "addressToRegister",
          "type": "address"
        }
      ],
      "name": "registerVoter",
      "outputs": [],
      "stateMutability": "nonpayable",
      "type": "function"
    },
    {
      "inputs": [
        {
          "internalType": "address[]",
          "name": "addressesToRegister",
          "type": "address[]"
        }
      ],
      "name": "registerVoters",
      "outputs": [],
      "stateMutability": "nonpayable",
      "type": "function"
    },
    {
      "inputs": [],
      "name": "startProposalsRegistration",
      "outputs": [],
      "stateMutability": "nonpayable",
      "type": "function"
    },
    {
      "inputs": [
        {
          "internalType": "string",
          "name": "proposalDescription",
          "type": "string"
        }
      ],
      "name": "registerProposal",
      "outputs": [],
      "stateMutability": "nonpayable",
      "type": "function"
    },
    {
      "inputs": [],
      "name": "endProposalsRegistration",
      "outputs": [],
      "stateMutability": "nonpayable",
      "type": "function"
    },
    {
      "inputs": [],
      "name": "startVotingSession",
      "outputs": [],
      "stateMutability": "nonpayable",
      "type": "function"
    },
    {
      "inputs": [
        {
          "internalType": "uint256",
          "name": "proposalId",
          "type": "uint256"
        }
      ],
      "name": "vote",
      "outputs": [],
      "stateMutability": "nonpayable",
      "type": "function"
    },
    {
      "inputs": [],
      "name": "endVotingSession",
      "outputs": [],
      "stateMutability": "nonpayable",
      "type": "function"
    },
    {
      "inputs": [],
      "name": "tallyVotes",
      "outputs": [],
      "stateMutability": "nonpayable",
      "type": "function"
    },
    {
      "inputs": [],
      "name": "getCurrentVotingStatus",
      "outputs": [
        {
          "internalType": "uint8",
          "name": "",
          "type": "uint8"
        }
      ],
      "stateMutability": "view",
      "type": "function",
      "constant": true
    },
    {
      "inputs": [],
      "name": "getCurrentVotingStatusKey",
      "outputs": [
        {
          "internalType": "string",
          "name": "",
          "type": "string"
        }
      ],
      "stateMutability": "view",
      "type": "function",
      "constant": true
    }
  ],
  "bytecode": "0x608060405260006001556000600260006101000a81548160ff0219169083151502179055506000600260016101000a81548160ff021916908360058111156200004d576200004c62000164565b5b02179055503480156200005f57600080fd5b50620000926200007d62000098640100000000026401000000009004565b620000a0640100000000026401000000009004565b62000193565b600033905090565b60008060009054906101000a900473ffffffffffffffffffffffffffffffffffffffff169050816000806101000a81548173ffffffffffffffffffffffffffffffffffffffff021916908373ffffffffffffffffffffffffffffffffffffffff1602179055508173ffffffffffffffffffffffffffffffffffffffff168173ffffffffffffffffffffffffffffffffffffffff167f8be0079c531659141344cd1fd0a4f28419497f9722a3daafe3b4186f6b6457e060405160405180910390a35050565b7f4e487b7100000000000000000000000000000000000000000000000000000000600052602160045260246000fd5b6128be80620001a36000396000f3fe608060405234801561001057600080fd5b5060043610610127576000357c0100000000000000000000000000000000000000000000000000000000900480638da5cb5b116100bf578063b36942041161008e578063b369420414610267578063d55ec9c114610285578063e09b8c79146102a1578063ee74c678146102ab578063f2fde38b146102b557610127565b80638da5cb5b146101ed5780638e7ea5b21461020b578063a3ec138d1461022b578063a7bfab161461025d57610127565b8063378a2178116100fb578063378a2178146101b357806338db6dd3146101bd5780636c297445146101d9578063715018a6146101e357610127565b80620f987f1461012c5780630121b93f1461014a578063013cf08b146101665780632f95355b14610197575b600080fd5b6101346102d1565b6040516101419190611c92565b60405180910390f35b610164600480360381019061015f9190611cf7565b6102fa565b005b610180600480360381019061017b9190611cf7565b6106be565b60405161018e929190611dcc565b60405180910390f35b6101b160048036038101906101ac9190611f31565b61076a565b005b6101bb610938565b005b6101d760048036038101906101d29190611fd8565b610a38565b005b6101e1610bc8565b005b6101eb610cc8565b005b6101f5610d50565b6040516102029190612014565b60405180910390f35b610213610d79565b6040516102229392919061202f565b60405180910390f35b61024560048036038101906102409190611fd8565b610f58565b60405161025493929190612088565b60405180910390f35b610265610f9c565b005b61026f61109c565b60405161027c91906120bf565b60405180910390f35b61029f600480360381019061029a91906121a9565b6110bb565b005b6102a9611264565b005b6102b3611364565b005b6102cf60048036038101906102ca9190611fd8565b611464565b005b6000600260019054906101000a900460ff1660058111156102f5576102f46121f2565b5b905090565b600380600581111561030f5761030e6121f2565b5b600260019054906101000a900460ff166005811115610331576103306121f2565b5b14610371576040517f08c379a000000000000000000000000000000000000000000000000000000000815260040161036890612293565b60405180910390fd5b60011515600460003373ffffffffffffffffffffffffffffffffffffffff1673ffffffffffffffffffffffffffffffffffffffff16815260200190815260200160002060000160009054906101000a900460ff16151514610407576040517f08c379a00000000000000000000000000000000000000000000000000000000081526004016103fe906122ff565b60405180910390fd5b60001515600460003373ffffffffffffffffffffffffffffffffffffffff1673ffffffffffffffffffffffffffffffffffffffff16815260200190815260200160002060000160019054906101000a900460ff1615151461049d576040517f08c379a00000000000000000000000000000000000000000000000000000000081526004016104949061236b565b60405180910390fd5b60006005600084815260200190815260200160002060000180546104c0906123ba565b90501415610503576040517f08c379a00000000000000000000000000000000000000000000000000000000081526004016104fa90612438565b60405180910390fd5b60056000838152602001908152602001600020600101600081548092919061052a90612487565b91905055506001600460003373ffffffffffffffffffffffffffffffffffffffff1673ffffffffffffffffffffffffffffffffffffffff16815260200190815260200160002060000160016101000a81548160ff02191690831515021790555081600460003373ffffffffffffffffffffffffffffffffffffffff1673ffffffffffffffffffffffffffffffffffffffff168152602001908152602001600020600101819055507f4d99b957a2bc29a30ebd96a7be8e68fe50a3c701db28a91436490b7d53870ca433836040516106029291906124d0565b60405180910390a16005600060015481526020019081526020016000206001015460056000848152602001908152602001600020600101541415610660576001600260006101000a81548160ff0219169083151502179055506106ba565b60056000600154815260200190815260200160002060010154600560008481526020019081526020016000206001015411156106b957816001819055506000600260006101000a81548160ff0219169083151502179055505b5b5050565b60056020528060005260406000206000915090508060000180546106e1906123ba565b80601f016020809104026020016040519081016040528092919081815260200182805461070d906123ba565b801561075a5780601f1061072f5761010080835404028352916020019161075a565b820191906000526020600020905b81548152906001019060200180831161073d57829003601f168201915b5050505050908060010154905082565b600180600581111561077f5761077e6121f2565b5b600260019054906101000a900460ff1660058111156107a1576107a06121f2565b5b146107e1576040517f08c379a00000000000000000000000000000000000000000000000000000000081526004016107d890612293565b60405180910390fd5b60011515600460003373ffffffffffffffffffffffffffffffffffffffff1673ffffffffffffffffffffffffffffffffffffffff16815260200190815260200160002060000160009054906101000a900460ff16151514610877576040517f08c379a000000000000000000000000000000000000000000000000000000000815260040161086e906122ff565b60405180910390fd5b6000825114156108bc576040517f08c379a00000000000000000000000000000000000000000000000000000000081526004016108b39061256b565b60405180910390fd5b81600560006003600081546108d090612487565b919050819055815260200190815260200160002060000190805190602001906108fa929190611bd3565b507f92e393e9b54e2f801d3ea4beb0c5e71a21cc34a5d34b77d0fb8a3aa1650dc18f60035460405161092c919061258b565b60405180910390a15050565b600480600581111561094d5761094c6121f2565b5b600260019054906101000a900460ff16600581111561096f5761096e6121f2565b5b146109af576040517f08c379a00000000000000000000000000000000000000000000000000000000081526004016109a690612293565b60405180910390fd5b6109b761155c565b73ffffffffffffffffffffffffffffffffffffffff166109d5610d50565b73ffffffffffffffffffffffffffffffffffffffff1614610a2b576040517f08c379a0000000000000000000000000000000000000000000000000000000008152600401610a22906125f2565b60405180910390fd5b610a356005611564565b50565b6000806005811115610a4d57610a4c6121f2565b5b600260019054906101000a900460ff166005811115610a6f57610a6e6121f2565b5b14610aaf576040517f08c379a0000000000000000000000000000000000000000000000000000000008152600401610aa690612293565b60405180910390fd5b610ab761155c565b73ffffffffffffffffffffffffffffffffffffffff16610ad5610d50565b73ffffffffffffffffffffffffffffffffffffffff1614610b2b576040517f08c379a0000000000000000000000000000000000000000000000000000000008152600401610b22906125f2565b60405180910390fd5b600460008373ffffffffffffffffffffffffffffffffffffffff1673ffffffffffffffffffffffffffffffffffffffff16815260200190815260200160002060000160009054906101000a900460ff1615610bbb576040517f08c379a0000000000000000000000000000000000000000000000000000000008152600401610bb29061265e565b60405180910390fd5b610bc4826116cb565b5050565b6001806005811115610bdd57610bdc6121f2565b5b600260019054906101000a900460ff166005811115610bff57610bfe6121f2565b5b14610c3f576040517f08c379a0000000000000000000000000000000000000000000000000000000008152600401610c3690612293565b60405180910390fd5b610c4761155c565b73ffffffffffffffffffffffffffffffffffffffff16610c65610d50565b73ffffffffffffffffffffffffffffffffffffffff1614610cbb576040517f08c379a0000000000000000000000000000000000000000000000000000000008152600401610cb2906125f2565b60405180910390fd5b610cc56002611564565b50565b610cd061155c565b73ffffffffffffffffffffffffffffffffffffffff16610cee610d50565b73ffffffffffffffffffffffffffffffffffffffff1614610d44576040517f08c379a0000000000000000000000000000000000000000000000000000000008152600401610d3b906125f2565b60405180910390fd5b610d4e6000611854565b565b60008060009054906101000a900473ffffffffffffffffffffffffffffffffffffffff16905090565b60006060600060056040518060400160405280601581526020017f566f746573206e6f742074616c6c696564207965740000000000000000000000815250816005811115610dca57610dc96121f2565b5b600260019054906101000a900460ff166005811115610dec57610deb6121f2565b5b148190610e2f576040517f08c379a0000000000000000000000000000000000000000000000000000000008152600401610e2691906120bf565b60405180910390fd5b506000600154118015610e4f5750600260009054906101000a900460ff16155b610e8e576040517f08c379a0000000000000000000000000000000000000000000000000000000008152600401610e85906126ca565b60405180910390fd5b60015494506005600060015481526020019081526020016000206000018054610eb6906123ba565b80601f0160208091040260200160405190810160405280929190818152602001828054610ee2906123ba565b8015610f2f5780601f10610f0457610100808354040283529160200191610f2f565b820191906000526020600020905b815481529060010190602001808311610f1257829003601f168201915b505050505093506005600060015481526020019081526020016000206001015492505050909192565b60046020528060005260406000206000915090508060000160009054906101000a900460ff16908060000160019054906101000a900460ff16908060010154905083565b6003806005811115610fb157610fb06121f2565b5b600260019054906101000a900460ff166005811115610fd357610fd26121f2565b5b14611013576040517f08c379a000000000000000000000000000000000000000000000000000000000815260040161100a90612293565b60405180910390fd5b61101b61155c565b73ffffffffffffffffffffffffffffffffffffffff16611039610d50565b73ffffffffffffffffffffffffffffffffffffffff161461108f576040517f08c379a0000000000000000000000000000000000000000000000000000000008152600401611086906125f2565b60405180910390fd5b6110996004611564565b50565b60606110b6600260019054906101000a900460ff16611918565b905090565b60008060058111156110d0576110cf6121f2565b5b600260019054906101000a900460ff1660058111156110f2576110f16121f2565b5b14611132576040517f08c379a000000000000000000000000000000000000000000000000000000000815260040161112990612293565b60405180910390fd5b61113a61155c565b73ffffffffffffffffffffffffffffffffffffffff16611158610d50565b73ffffffffffffffffffffffffffffffffffffffff16146111ae576040517f08c379a00000000000000000000000000000000000000000000000000000000081526004016111a5906125f2565b60405180910390fd5b60005b825181101561125f57600460008483815181106111d1576111d06126ea565b5b602002602001015173ffffffffffffffffffffffffffffffffffffffff1673ffffffffffffffffffffffffffffffffffffffff16815260200190815260200160002060000160009054906101000a900460ff1661124c5761124b83828151811061123e5761123d6126ea565b5b60200260200101516116cb565b5b808061125790612487565b9150506111b1565b505050565b6000806005811115611279576112786121f2565b5b600260019054906101000a900460ff16600581111561129b5761129a6121f2565b5b146112db576040517f08c379a00000000000000000000000000000000000000000000000000000000081526004016112d290612293565b60405180910390fd5b6112e361155c565b73ffffffffffffffffffffffffffffffffffffffff16611301610d50565b73ffffffffffffffffffffffffffffffffffffffff1614611357576040517f08c379a000000000000000000000000000000000000000000000000000000000815260040161134e906125f2565b60405180910390fd5b6113616001611564565b50565b6002806005811115611379576113786121f2565b5b600260019054906101000a900460ff16600581111561139b5761139a6121f2565b5b146113db576040517f08c379a00000000000000000000000000000000000000000000000000000000081526004016113d290612293565b60405180910390fd5b6113e361155c565b73ffffffffffffffffffffffffffffffffffffffff16611401610d50565b73ffffffffffffffffffffffffffffffffffffffff1614611457576040517f08c379a000000000000000000000000000000000000000000000000000000000815260040161144e906125f2565b60405180910390fd5b6114616003611564565b50565b61146c61155c565b73ffffffffffffffffffffffffffffffffffffffff1661148a610d50565b73ffffffffffffffffffffffffffffffffffffffff16146114e0576040517f08c379a00000000000000000000000000000000000000000000000000000000081526004016114d7906125f2565b60405180910390fd5b600073ffffffffffffffffffffffffffffffffffffffff168173ffffffffffffffffffffffffffffffffffffffff161415611550576040517f08c379a00000000000000000000000000000000000000000000000000000000081526004016115479061278b565b60405180910390fd5b61155981611854565b50565b600033905090565b61156c61155c565b73ffffffffffffffffffffffffffffffffffffffff1661158a610d50565b73ffffffffffffffffffffffffffffffffffffffff16146115e0576040517f08c379a00000000000000000000000000000000000000000000000000000000081526004016115d7906125f2565b60405180910390fd5b6005808111156115f3576115f26121f2565b5b600260019054906101000a900460ff166005811115611615576116146121f2565b5b1415611656576040517f08c379a000000000000000000000000000000000000000000000000000000000815260040161164d906127f7565b60405180910390fd5b7f880498af3c6b66c92ab2120d6b0aca7539f4b40c5f3d8366dc8f8706bf60e992600260019054906101000a900460ff168260405161169692919061285f565b60405180910390a180600260016101000a81548160ff021916908360058111156116c3576116c26121f2565b5b021790555050565b60008060058111156116e0576116df6121f2565b5b600260019054906101000a900460ff166005811115611702576117016121f2565b5b14611742576040517f08c379a000000000000000000000000000000000000000000000000000000000815260040161173990612293565b60405180910390fd5b61174a61155c565b73ffffffffffffffffffffffffffffffffffffffff16611768610d50565b73ffffffffffffffffffffffffffffffffffffffff16146117be576040517f08c379a00000000000000000000000000000000000000000000000000000000081526004016117b5906125f2565b60405180910390fd5b6001600460008473ffffffffffffffffffffffffffffffffffffffff1673ffffffffffffffffffffffffffffffffffffffff16815260200190815260200160002060000160006101000a81548160ff0219169083151502179055507fb6be2187d059cc2a55fe29e0e503b566e1e0f8c8780096e185429350acffd3dd826040516118489190612014565b60405180910390a15050565b60008060009054906101000a900473ffffffffffffffffffffffffffffffffffffffff169050816000806101000a81548173ffffffffffffffffffffffffffffffffffffffff021916908373ffffffffffffffffffffffffffffffffffffffff1602179055508173ffffffffffffffffffffffffffffffffffffffff168173ffffffffffffffffffffffffffffffffffffffff167f8be0079c531659141344cd1fd0a4f28419497f9722a3daafe3b4186f6b6457e060405160405180910390a35050565b60606000600581111561192e5761192d6121f2565b5b826005811115611941576119406121f2565b5b1415611984576040518060400160405280601181526020017f5265676973746572696e67566f746572730000000000000000000000000000008152509050611bce565b60016005811115611998576119976121f2565b5b8260058111156119ab576119aa6121f2565b5b14156119ee576040518060400160405280601c81526020017f50726f706f73616c73526567697374726174696f6e53746172746564000000008152509050611bce565b60026005811115611a0257611a016121f2565b5b826005811115611a1557611a146121f2565b5b1415611a58576040518060400160405280601a81526020017f50726f706f73616c73526567697374726174696f6e456e6465640000000000008152509050611bce565b60036005811115611a6c57611a6b6121f2565b5b826005811115611a7f57611a7e6121f2565b5b1415611ac2576040518060400160405280601481526020017f566f74696e6753657373696f6e537461727465640000000000000000000000008152509050611bce565b60046005811115611ad657611ad56121f2565b5b826005811115611ae957611ae86121f2565b5b1415611b2c576040518060400160405280601281526020017f566f74696e6753657373696f6e456e64656400000000000000000000000000008152509050611bce565b600580811115611b3f57611b3e6121f2565b5b826005811115611b5257611b516121f2565b5b1415611b95576040518060400160405280600c81526020017f566f74657354616c6c69656400000000000000000000000000000000000000008152509050611bce565b6040518060400160405280600981526020017f756e646566696e6564000000000000000000000000000000000000000000000081525090505b919050565b828054611bdf906123ba565b90600052602060002090601f016020900481019282611c015760008555611c48565b82601f10611c1a57805160ff1916838001178555611c48565b82800160010185558215611c48579182015b82811115611c47578251825591602001919060010190611c2c565b5b509050611c559190611c59565b5090565b5b80821115611c72576000816000905550600101611c5a565b5090565b600060ff82169050919050565b611c8c81611c76565b82525050565b6000602082019050611ca76000830184611c83565b92915050565b6000604051905090565b600080fd5b600080fd5b6000819050919050565b611cd481611cc1565b8114611cdf57600080fd5b50565b600081359050611cf181611ccb565b92915050565b600060208284031215611d0d57611d0c611cb7565b5b6000611d1b84828501611ce2565b91505092915050565b600081519050919050565b600082825260208201905092915050565b60005b83811015611d5e578082015181840152602081019050611d43565b83811115611d6d576000848401525b50505050565b6000601f19601f8301169050919050565b6000611d8f82611d24565b611d998185611d2f565b9350611da9818560208601611d40565b611db281611d73565b840191505092915050565b611dc681611cc1565b82525050565b60006040820190508181036000830152611de68185611d84565b9050611df56020830184611dbd565b9392505050565b600080fd5b600080fd5b7f4e487b7100000000000000000000000000000000000000000000000000000000600052604160045260246000fd5b611e3e82611d73565b810181811067ffffffffffffffff82111715611e5d57611e5c611e06565b5b80604052505050565b6000611e70611cad565b9050611e7c8282611e35565b919050565b600067ffffffffffffffff821115611e9c57611e9b611e06565b5b611ea582611d73565b9050602081019050919050565b82818337600083830152505050565b6000611ed4611ecf84611e81565b611e66565b905082815260208101848484011115611ef057611eef611e01565b5b611efb848285611eb2565b509392505050565b600082601f830112611f1857611f17611dfc565b5b8135611f28848260208601611ec1565b91505092915050565b600060208284031215611f4757611f46611cb7565b5b600082013567ffffffffffffffff811115611f6557611f64611cbc565b5b611f7184828501611f03565b91505092915050565b600073ffffffffffffffffffffffffffffffffffffffff82169050919050565b6000611fa582611f7a565b9050919050565b611fb581611f9a565b8114611fc057600080fd5b50565b600081359050611fd281611fac565b92915050565b600060208284031215611fee57611fed611cb7565b5b6000611ffc84828501611fc3565b91505092915050565b61200e81611f9a565b82525050565b60006020820190506120296000830184612005565b92915050565b60006060820190506120446000830186611dbd565b81810360208301526120568185611d84565b90506120656040830184611dbd565b949350505050565b60008115159050919050565b6120828161206d565b82525050565b600060608201905061209d6000830186612079565b6120aa6020830185612079565b6120b76040830184611dbd565b949350505050565b600060208201905081810360008301526120d98184611d84565b905092915050565b600067ffffffffffffffff8211156120fc576120fb611e06565b5b602082029050602081019050919050565b600080fd5b6000612125612120846120e1565b611e66565b905080838252602082019050602084028301858111156121485761214761210d565b5b835b81811015612171578061215d8882611fc3565b84526020840193505060208101905061214a565b5050509392505050565b600082601f8301126121905761218f611dfc565b5b81356121a0848260208601612112565b91505092915050565b6000602082840312156121bf576121be611cb7565b5b600082013567ffffffffffffffff8111156121dd576121dc611cbc565b5b6121e98482850161217b565b91505092915050565b7f4e487b7100000000000000000000000000000000000000000000000000000000600052602160045260246000fd5b7f43616c6c206973206e6f7420617070726f726961746520647572696e6720746860008201527f652063757272656e7420766f74696e6720737461747573000000000000000000602082015250565b600061227d603783611d2f565b915061228882612221565b604082019050919050565b600060208201905081810360008301526122ac81612270565b9050919050565b7f61646472657373206e6f74207265676973746572656420617320766f74657200600082015250565b60006122e9601f83611d2f565b91506122f4826122b3565b602082019050919050565b60006020820190508181036000830152612318816122dc565b9050919050565b7f566f7465722068617320616c726561647920766f746564000000000000000000600082015250565b6000612355601783611d2f565b91506123608261231f565b602082019050919050565b6000602082019050818103600083015261238481612348565b9050919050565b7f4e487b7100000000000000000000000000000000000000000000000000000000600052602260045260246000fd5b600060028204905060018216806123d257607f821691505b602082108114156123e6576123e561238b565b5b50919050565b7f70726f706f73616c20496420646f6e2774206578697374730000000000000000600082015250565b6000612422601883611d2f565b915061242d826123ec565b602082019050919050565b6000602082019050818103600083015261245181612415565b9050919050565b7f4e487b7100000000000000000000000000000000000000000000000000000000600052601160045260246000fd5b600061249282611cc1565b91507fffffffffffffffffffffffffffffffffffffffffffffffffffffffffffffffff8214156124c5576124c4612458565b5b600182019050919050565b60006040820190506124e56000830185612005565b6124f26020830184611dbd565b9392505050565b7f52656769737465722070726f706f73616c2063616e206e6f7420626520656d7060008201527f7479000000000000000000000000000000000000000000000000000000000000602082015250565b6000612555602283611d2f565b9150612560826124f9565b604082019050919050565b6000602082019050818103600083015261258481612548565b9050919050565b60006020820190506125a06000830184611dbd565b92915050565b7f4f776e61626c653a2063616c6c6572206973206e6f7420746865206f776e6572600082015250565b60006125dc602083611d2f565b91506125e7826125a6565b602082019050919050565b6000602082019050818103600083015261260b816125cf565b9050919050565b7f566f74657220616c726561647920726567697374726564000000000000000000600082015250565b6000612648601783611d2f565b915061265382612612565b602082019050919050565b600060208201905081810360008301526126778161263b565b9050919050565b7f4e6f2077696e6e65722064657465726d696e6564000000000000000000000000600082015250565b60006126b4601483611d2f565b91506126bf8261267e565b602082019050919050565b600060208201905081810360008301526126e3816126a7565b9050919050565b7f4e487b7100000000000000000000000000000000000000000000000000000000600052603260045260246000fd5b7f4f776e61626c653a206e6577206f776e657220697320746865207a65726f206160008201527f6464726573730000000000000000000000000000000000000000000000000000602082015250565b6000612775602683611d2f565b915061278082612719565b604082019050919050565b600060208201905081810360008301526127a481612768565b9050919050565b7f566f74696e67206973206f766572000000000000000000000000000000000000600082015250565b60006127e1600e83611d2f565b91506127ec826127ab565b602082019050919050565b60006020820190508181036000830152612810816127d4565b9050919050565b60068110612828576128276121f2565b5b50565b600081905061283982612817565b919050565b60006128498261282b565b9050919050565b6128598161283e565b82525050565b60006040820190506128746000830185612850565b6128816020830184612850565b939250505056fea2646970667358221220da7f7d46a8b1f8f52d055f6709a14ec5b1fd103305ed7bc63bfc19be8a3e7ad464736f6c634300080c0033",
  "immutableReferences": {},
  "source": "// SPDX-License-Identifier: MIT\r\npragma solidity 0.8.12;\r\n\r\nimport \"@openzeppelin/contracts/access/Ownable.sol\";\r\n\r\n/**\r\n * @title voting\r\n * @author Mourad M.\r\n * @notice Implementation of Voting system. Exercice for Alyra\r\n           Voting is not secret\r\n           Each voter can see other people's votes\r\n           The winner is determined by simple majority\r\n           The proposal which obtains the most votes wins.\r\n           The voting process:\r\n           The voting administrator records a whitelist of voters identified by their Ethereum address.\r\n           The voting administrator begins the recording session for the proposal.\r\n           Registered voters are allowed to register their proposals while the registration session is active.\r\n           The voting administrator ends the proposal recording session.\r\n           The voting administrator begins the voting session.\r\n           Registered voters vote for their favorite proposals.\r\n           The voting administrator ends the voting session.\r\n           The vote administrator counts the votes.\r\n           Anyone can check the final details of the winning proposal.\r\n */\r\n\r\ncontract Voting is Ownable {\r\n\r\n    /**\r\n     * @notice represents the identifier of the winner proposal.\r\n     * @dev equals 0 before vote tailling.\r\n     */\r\n    uint private _winnerVotedProposalId = 0;\r\n\r\n    /**\r\n     * @notice determines if there is an equality winners.\r\n     * @dev equals false before vote tailling.\r\n     */\r\n    bool private _equalityWinners = false;\r\n\r\n    /**\r\n     * @notice represents the current voting status.\r\n     * @dev initialized to RegisteringVoters status.\r\n     */\r\n    WorkflowStatus private _currentVotingStatus =  WorkflowStatus.RegisteringVoters;\r\n\r\n    /**\r\n     * @notice used to increment proposals identifiers.\r\n     * @dev initialized to 0.\r\n     */\r\n    uint private _proposalIdIncrement;\r\n\r\n     /** @notice struct for a voter\r\n        @param isRegistered define if voter is registred for voting\r\n        @param hasVoted define if voter has voted\r\n        @param votedProposalId represents the identifier of the voted proposal by voter\r\n    */ \r\n    struct Voter {\r\n        bool isRegistered;\r\n        bool hasVoted;\r\n        uint votedProposalId;\r\n    }\r\n\r\n    /** @notice struct for a proposal\r\n        @param description represents the description of proposal\r\n        @param voteCount represents the voting count of proposal by voters\r\n    */ \r\n    struct Proposal {\r\n        string description;\r\n        uint voteCount;\r\n    }\r\n\r\n    /** @notice enum for workflow voting status\r\n        @param RegisteringVoters voting status wich allows registring voter by admin\r\n        @param ProposalsRegistrationStarted voting status wich allows registring proposals by voters\r\n        @param ProposalsRegistrationEnded voting status wich locks registring proposals by voters\r\n        @param VotingSessionStarted voting status wich allows voting proposals by voters\r\n        @param VotingSessionEnded voting status wich locks voting proposals by voters\r\n        @param VotesTallied voting status wich tally votes and determinate the potential winner\r\n    */ \r\n    enum WorkflowStatus {\r\n        RegisteringVoters,\r\n        ProposalsRegistrationStarted,\r\n        ProposalsRegistrationEnded,\r\n        VotingSessionStarted,\r\n        VotingSessionEnded,\r\n        VotesTallied\r\n    }\r\n\r\n    /**\r\n     * @notice represents the voters identified by their addresses.\r\n     */\r\n    mapping(address => Voter) public voters;\r\n\r\n    /**\r\n     * @notice represents voters proposals.\r\n     */\r\n    mapping(uint => Proposal) public proposals;\r\n\r\n    event VoterRegistered(address voterAddress); \r\n    event WorkflowStatusChanged(WorkflowStatus previousStatus, WorkflowStatus newStatus);\r\n    event ProposalRegistered(uint proposalId);\r\n    event Voted (address voter, uint proposalId);\r\n\r\n    /**\r\n     * @dev Throws if called by any address account not registred.\r\n     */\r\n    modifier onlyRegistered(){\r\n        require(voters[msg.sender].isRegistered == true, \"address not registered as voter\");\r\n        _;\r\n    }\r\n\r\n    /**\r\n     * @dev Throws if called during an inappropriate voting status.\r\n     */\r\n    modifier onlyOnStatus(WorkflowStatus status){\r\n        require(_currentVotingStatus == status, \"Call is not approriate during the current voting status\");\r\n        _;\r\n    }\r\n\r\n    modifier onlyOnStatusWithMessage(WorkflowStatus status, string memory message){\r\n        require(_currentVotingStatus == status, message);\r\n        _;\r\n    }\r\n\r\n    /**\r\n     * @notice change status and trigger WorkflowStatusChange event.\r\n     */\r\n    function changeStatus(WorkflowStatus status) internal onlyOwner {\r\n        require(_currentVotingStatus != WorkflowStatus.VotesTallied, \"Voting is over\");\r\n\r\n        emit WorkflowStatusChanged(_currentVotingStatus, status);\r\n        _currentVotingStatus = status;\r\n    }\r\n\r\n    /**\r\n     * @notice returns the identifier, description and vote count of the proposal winner\r\n     */\r\n    function getWinner() external view onlyOnStatusWithMessage(WorkflowStatus.VotesTallied, \"Votes not tallied yet\") returns (uint winnerProposalId, string memory winnerProposalDescription, uint winnerVoteCount) {\r\n        require(_winnerVotedProposalId > 0 && !_equalityWinners, \"No winner determined\");\r\n        winnerProposalId = _winnerVotedProposalId;\r\n        winnerProposalDescription = proposals[_winnerVotedProposalId].description;\r\n        winnerVoteCount = proposals[_winnerVotedProposalId].voteCount;\r\n    }\r\n\r\n    /**\r\n     * @notice register a voter by his address.\r\n     * @param addressToRegister address voter to register\r\n     * Can only be called by the admin.\r\n     */\r\n    function registerVoter(address addressToRegister) external onlyOnStatus(WorkflowStatus.RegisteringVoters) onlyOwner {\r\n        require(!voters[addressToRegister].isRegistered, \"Voter already registred\");\r\n        registerVoterInternal(addressToRegister);\r\n    }\r\n\r\n    /**\r\n     * @notice register voters by their addresses.\r\n     * @param addressesToRegister address voter list to register\r\n     * Can only be called by the admin.\r\n     */\r\n    function registerVoters(address[] memory addressesToRegister) external onlyOnStatus(WorkflowStatus.RegisteringVoters) onlyOwner {\r\n        for(uint i=0; i < addressesToRegister.length; i++){\r\n            if(!voters[addressesToRegister[i]].isRegistered)\r\n            {\r\n                registerVoterInternal(addressesToRegister[i]);\r\n            }\r\n        }\r\n    }\r\n\r\n    /**\r\n     * @notice register a determinated voter by his address.\r\n     * @param addressToRegister address voter to register\r\n     * Can only be called by the admin.\r\n     */\r\n    function registerVoterInternal(address addressToRegister) internal onlyOnStatus(WorkflowStatus.RegisteringVoters) onlyOwner {\r\n        voters[addressToRegister].isRegistered = true;\r\n        emit VoterRegistered(addressToRegister);\r\n    }\r\n\r\n    /**\r\n     * @notice start proposal registration session.\r\n     * Can only be called by the admin.\r\n     */\r\n    function startProposalsRegistration() external onlyOnStatus(WorkflowStatus.RegisteringVoters) onlyOwner {\r\n        changeStatus(WorkflowStatus.ProposalsRegistrationStarted);\r\n    }\r\n\r\n    /**\r\n     * @notice register a proposal\r\n     * @param proposalDescription proposal description to register\r\n     * Can only be called by a registred voter.\r\n     */\r\n    function registerProposal(string memory proposalDescription) external onlyOnStatus(WorkflowStatus.ProposalsRegistrationStarted) onlyRegistered {   \r\n        require(bytes(proposalDescription).length != 0, \"Register proposal can not be empty\");    \r\n\r\n        proposals[++_proposalIdIncrement].description = proposalDescription;\r\n        emit ProposalRegistered(_proposalIdIncrement);\r\n    }\r\n\r\n    /**\r\n     * @notice end proposal registration session.\r\n     * Can only be called by the admin.\r\n     * Can only be called during voting session.\r\n     */\r\n    function endProposalsRegistration() external onlyOnStatus(WorkflowStatus.ProposalsRegistrationStarted) onlyOwner {\r\n        changeStatus(WorkflowStatus.ProposalsRegistrationEnded);\r\n    }\r\n\r\n    /**\r\n     * @notice start proposal voting session.\r\n     * Can only be called by the admin.\r\n     * Can only be called after voting registration session.\r\n     */\r\n    function startVotingSession() external onlyOnStatus(WorkflowStatus.ProposalsRegistrationEnded) onlyOwner {\r\n        changeStatus(WorkflowStatus.VotingSessionStarted);\r\n    }\r\n\r\n    /**\r\n     * @notice vote for a proposal\r\n     * @param proposalId proposal identifier to vote for\r\n     * Can only be called by a registred voter.\r\n     * Can only be called during voting session.\r\n     */\r\n    function vote(uint proposalId) external onlyOnStatus(WorkflowStatus.VotingSessionStarted) onlyRegistered {\r\n        require(voters[msg.sender].hasVoted == false, \"Voter has already voted\");   \r\n        require(bytes(proposals[proposalId].description).length != 0, \"proposal Id don't exists\");            \r\n\r\n        proposals[proposalId].voteCount++;\r\n        voters[msg.sender].hasVoted = true;\r\n        voters[msg.sender].votedProposalId = proposalId;\r\n        emit Voted(msg.sender, proposalId);\r\n\r\n        if(proposals[proposalId].voteCount == proposals[_winnerVotedProposalId].voteCount)\r\n        {\r\n            _equalityWinners = true;\r\n        }\r\n        else if(proposals[proposalId].voteCount > proposals[_winnerVotedProposalId].voteCount)\r\n        {\r\n            _winnerVotedProposalId = proposalId;\r\n            _equalityWinners = false;\r\n        }\r\n    }\r\n\r\n    /**\r\n     * @notice end proposal voting session.\r\n     * Can only be called by the admin.\r\n     * Can only be called during voting session.\r\n     */\r\n    function endVotingSession() external onlyOnStatus(WorkflowStatus.VotingSessionStarted) onlyOwner {\r\n        changeStatus(WorkflowStatus.VotingSessionEnded);\r\n    }\r\n\r\n    /**\r\n     * @notice tally votes to determinate a proposal winner.\r\n     * Can only be called by the admin.\r\n     */\r\n    function tallyVotes() external onlyOnStatus(WorkflowStatus.VotingSessionEnded) onlyOwner {\r\n        changeStatus(WorkflowStatus.VotesTallied);\r\n    }\r\n\r\n    /**\r\n     * @notice returns the current voting status\r\n     */\r\n    function getCurrentVotingStatus() external view returns (uint8) {\r\n        return (uint8)(_currentVotingStatus);\r\n    }\r\n\r\n    /**\r\n     * @notice returns the current voting status\r\n     */\r\n    function getCurrentVotingStatusKey() external view returns (string memory) {\r\n        return getStatusKey(_currentVotingStatus);\r\n    }\r\n\r\n    /**\r\n     * @dev is there a best pratice to get enum key from value in solidity??\r\n     */\r\n    function getStatusKey(WorkflowStatus status) internal pure returns (string memory) {        \r\n        if (status == WorkflowStatus.RegisteringVoters) return \"RegisteringVoters\";\r\n        if (status == WorkflowStatus.ProposalsRegistrationStarted) return \"ProposalsRegistrationStarted\";\r\n        if (status == WorkflowStatus.ProposalsRegistrationEnded) return \"ProposalsRegistrationEnded\";\r\n        if (status == WorkflowStatus.VotingSessionStarted) return \"VotingSessionStarted\";\r\n        if (status == WorkflowStatus.VotingSessionEnded) return \"VotingSessionEnded\";\r\n        if (status == WorkflowStatus.VotesTallied) return \"VotesTallied\";\r\n        return \"undefined\";\r\n    }\r\n}",
  "sourcePath": "C:\\Users\\mdmou\\source\\repos\\Developpeur-Ethereum-Template\\6. Dapp\\defi\\contracts\\Voting.sol",
  "compiler": {
    "name": "solc",
    "version": "0.8.12+commit.f00d7308.Emscripten.clang"
  },
  "schemaVersion": "3.4.4",
  "updatedAt": "2022-02-21T12:09:05.810Z",
  "networkType": "ethereum",
  "devdoc": {
    "author": "Mourad M.",
    "kind": "dev",
    "methods": {
      "owner()": {
        "details": "Returns the address of the current owner."
      },
      "registerProposal(string)": {
        "params": {
          "proposalDescription": "proposal description to register Can only be called by a registred voter."
        }
      },
      "registerVoter(address)": {
        "params": {
          "addressToRegister": "address voter to register Can only be called by the admin."
        }
      },
      "registerVoters(address[])": {
        "params": {
          "addressesToRegister": "address voter list to register Can only be called by the admin."
        }
      },
      "renounceOwnership()": {
        "details": "Leaves the contract without owner. It will not be possible to call `onlyOwner` functions anymore. Can only be called by the current owner. NOTE: Renouncing ownership will leave the contract without an owner, thereby removing any functionality that is only available to the owner."
      },
      "transferOwnership(address)": {
        "details": "Transfers ownership of the contract to a new account (`newOwner`). Can only be called by the current owner."
      },
      "vote(uint256)": {
        "params": {
          "proposalId": "proposal identifier to vote for Can only be called by a registred voter. Can only be called during voting session."
        }
      }
    },
    "stateVariables": {
      "_currentVotingStatus": {
        "details": "initialized to RegisteringVoters status."
      },
      "_equalityWinners": {
        "details": "equals false before vote tailling."
      },
      "_proposalIdIncrement": {
        "details": "initialized to 0."
      },
      "_winnerVotedProposalId": {
        "details": "equals 0 before vote tailling."
      }
    },
    "title": "voting",
    "version": 1
  },
  "userdoc": {
    "kind": "user",
    "methods": {
      "endProposalsRegistration()": {
        "notice": "end proposal registration session. Can only be called by the admin. Can only be called during voting session."
      },
      "endVotingSession()": {
        "notice": "end proposal voting session. Can only be called by the admin. Can only be called during voting session."
      },
      "getCurrentVotingStatus()": {
        "notice": "returns the current voting status"
      },
      "getCurrentVotingStatusKey()": {
        "notice": "returns the current voting status"
      },
      "getWinner()": {
        "notice": "returns the identifier, description and vote count of the proposal winner"
      },
      "proposals(uint256)": {
        "notice": "represents voters proposals."
      },
      "registerProposal(string)": {
        "notice": "register a proposal"
      },
      "registerVoter(address)": {
        "notice": "register a voter by his address."
      },
      "registerVoters(address[])": {
        "notice": "register voters by their addresses."
      },
      "startProposalsRegistration()": {
        "notice": "start proposal registration session. Can only be called by the admin."
      },
      "startVotingSession()": {
        "notice": "start proposal voting session. Can only be called by the admin. Can only be called after voting registration session."
      },
      "tallyVotes()": {
        "notice": "tally votes to determinate a proposal winner. Can only be called by the admin."
      },
      "vote(uint256)": {
        "notice": "vote for a proposal"
      },
      "voters(address)": {
        "notice": "represents the voters identified by their addresses."
      }
    },
    "notice": "Implementation of Voting system. Exercice for Alyra Voting is not secret Each voter can see other people's votes The winner is determined by simple majority The proposal which obtains the most votes wins. The voting process: The voting administrator records a whitelist of voters identified by their Ethereum address. The voting administrator begins the recording session for the proposal. Registered voters are allowed to register their proposals while the registration session is active. The voting administrator ends the proposal recording session. The voting administrator begins the voting session. Registered voters vote for their favorite proposals. The voting administrator ends the voting session. The vote administrator counts the votes. Anyone can check the final details of the winning proposal.",
    "version": 1
  }
}